{
  "contracts/casinoPlatform.sol": {
    "CasinoPlatform": {
      "abi": [
        {
          "inputs": [],
          "stateMutability": "nonpayable",
          "type": "constructor"
        },
        {
          "inputs": [
            {
              "internalType": "address",
              "name": "newOwner",
              "type": "address"
            }
          ],
          "name": "changeOwner",
          "outputs": [],
          "stateMutability": "nonpayable",
          "type": "function"
        },
        {
          "inputs": [
            {
              "internalType": "uint256",
              "name": "postId",
              "type": "uint256"
            }
          ],
          "name": "contributeToBettingPost",
          "outputs": [
            {
              "internalType": "bool",
              "name": "success",
              "type": "bool"
            }
          ],
          "stateMutability": "payable",
          "type": "function"
        },
        {
          "inputs": [
            {
              "internalType": "uint256",
              "name": "matchId",
              "type": "uint256"
            },
            {
              "internalType": "uint32",
              "name": "homeHandicapScore",
              "type": "uint32"
            },
            {
              "internalType": "uint32",
              "name": "awayHandicapScore",
              "type": "uint32"
            }
          ],
          "name": "createBettingPost",
          "outputs": [
            {
              "internalType": "uint256",
              "name": "newPostId",
              "type": "uint256"
            }
          ],
          "stateMutability": "payable",
          "type": "function"
        },
        {
          "inputs": [
            {
              "internalType": "string",
              "name": "home",
              "type": "string"
            },
            {
              "internalType": "string",
              "name": "away",
              "type": "string"
            }
          ],
          "name": "createMatch",
          "outputs": [
            {
              "internalType": "uint256",
              "name": "",
              "type": "uint256"
            }
          ],
          "stateMutability": "nonpayable",
          "type": "function"
        },
        {
          "inputs": [
            {
              "internalType": "uint256",
              "name": "matchId",
              "type": "uint256"
            },
            {
              "internalType": "uint32",
              "name": "homeScore",
              "type": "uint32"
            },
            {
              "internalType": "uint32",
              "name": "awayScore",
              "type": "uint32"
            }
          ],
          "name": "finishMatch",
          "outputs": [
            {
              "internalType": "bool",
              "name": "",
              "type": "bool"
            }
          ],
          "stateMutability": "nonpayable",
          "type": "function"
        },
        {
          "inputs": [
            {
              "internalType": "uint256",
              "name": "nData",
              "type": "uint256"
            },
            {
              "internalType": "uint256",
              "name": "pageNumber",
              "type": "uint256"
            }
          ],
          "name": "getActiveMatchSortByLatestWithPagination",
          "outputs": [
            {
              "components": [
                {
                  "internalType": "uint256",
                  "name": "id",
                  "type": "uint256"
                },
                {
                  "internalType": "string",
                  "name": "home",
                  "type": "string"
                },
                {
                  "internalType": "string",
                  "name": "away",
                  "type": "string"
                },
                {
                  "internalType": "uint32",
                  "name": "homeScore",
                  "type": "uint32"
                },
                {
                  "internalType": "uint32",
                  "name": "awayScore",
                  "type": "uint32"
                },
                {
                  "internalType": "bool",
                  "name": "isFinished",
                  "type": "bool"
                },
                {
                  "internalType": "bool",
                  "name": "isInitialized",
                  "type": "bool"
                },
                {
                  "internalType": "uint256",
                  "name": "nPosts",
                  "type": "uint256"
                }
              ],
              "internalType": "struct MatchView[]",
              "name": "activeMatches",
              "type": "tuple[]"
            },
            {
              "internalType": "bool",
              "name": "success",
              "type": "bool"
            },
            {
              "internalType": "bool",
              "name": "haveMorePageAvailable",
              "type": "bool"
            }
          ],
          "stateMutability": "view",
          "type": "function"
        },
        {
          "inputs": [
            {
              "internalType": "uint256",
              "name": "nData",
              "type": "uint256"
            },
            {
              "internalType": "uint256",
              "name": "pageNumber",
              "type": "uint256"
            }
          ],
          "name": "getMyBettingPostsAsBankerWithPagination",
          "outputs": [
            {
              "components": [
                {
                  "internalType": "uint256",
                  "name": "id",
                  "type": "uint256"
                },
                {
                  "internalType": "uint256",
                  "name": "matchId",
                  "type": "uint256"
                },
                {
                  "internalType": "uint32",
                  "name": "homeHandicapScore",
                  "type": "uint32"
                },
                {
                  "internalType": "uint32",
                  "name": "awayHandicapScore",
                  "type": "uint32"
                },
                {
                  "internalType": "uint256",
                  "name": "totalStake",
                  "type": "uint256"
                },
                {
                  "internalType": "uint256",
                  "name": "myStake",
                  "type": "uint256"
                },
                {
                  "components": [
                    {
                      "internalType": "uint256",
                      "name": "homeBet",
                      "type": "uint256"
                    },
                    {
                      "internalType": "uint256",
                      "name": "awayBet",
                      "type": "uint256"
                    },
                    {
                      "internalType": "bool",
                      "name": "isClaimed",
                      "type": "bool"
                    },
                    {
                      "internalType": "bool",
                      "name": "isInitialized",
                      "type": "bool"
                    }
                  ],
                  "internalType": "struct Bet",
                  "name": "totalBet",
                  "type": "tuple"
                },
                {
                  "components": [
                    {
                      "internalType": "uint256",
                      "name": "homeBet",
                      "type": "uint256"
                    },
                    {
                      "internalType": "uint256",
                      "name": "awayBet",
                      "type": "uint256"
                    },
                    {
                      "internalType": "bool",
                      "name": "isClaimed",
                      "type": "bool"
                    },
                    {
                      "internalType": "bool",
                      "name": "isInitialized",
                      "type": "bool"
                    }
                  ],
                  "internalType": "struct Bet",
                  "name": "myBet",
                  "type": "tuple"
                },
                {
                  "internalType": "bool",
                  "name": "isInitialized",
                  "type": "bool"
                },
                {
                  "internalType": "bool",
                  "name": "isFinished",
                  "type": "bool"
                },
                {
                  "internalType": "bool",
                  "name": "isAlreadyMadeABet",
                  "type": "bool"
                }
              ],
              "internalType": "struct PostView[]",
              "name": "posts",
              "type": "tuple[]"
            },
            {
              "internalType": "bool",
              "name": "success",
              "type": "bool"
            },
            {
              "internalType": "bool",
              "name": "haveMorePageAvailable",
              "type": "bool"
            }
          ],
          "stateMutability": "view",
          "type": "function"
        },
        {
          "inputs": [],
          "name": "getOwner",
          "outputs": [
            {
              "internalType": "address",
              "name": "",
              "type": "address"
            }
          ],
          "stateMutability": "view",
          "type": "function"
        },
        {
          "inputs": [
            {
              "internalType": "uint256",
              "name": "matchId",
              "type": "uint256"
            },
            {
              "internalType": "uint256",
              "name": "nData",
              "type": "uint256"
            },
            {
              "internalType": "uint256",
              "name": "pageNumber",
              "type": "uint256"
            }
          ],
          "name": "getPostsByMatchIdSortByLatestWithPagination",
          "outputs": [
            {
              "components": [
                {
                  "internalType": "uint256",
                  "name": "id",
                  "type": "uint256"
                },
                {
                  "internalType": "uint256",
                  "name": "matchId",
                  "type": "uint256"
                },
                {
                  "internalType": "uint32",
                  "name": "homeHandicapScore",
                  "type": "uint32"
                },
                {
                  "internalType": "uint32",
                  "name": "awayHandicapScore",
                  "type": "uint32"
                },
                {
                  "internalType": "uint256",
                  "name": "totalStake",
                  "type": "uint256"
                },
                {
                  "internalType": "uint256",
                  "name": "myStake",
                  "type": "uint256"
                },
                {
                  "components": [
                    {
                      "internalType": "uint256",
                      "name": "homeBet",
                      "type": "uint256"
                    },
                    {
                      "internalType": "uint256",
                      "name": "awayBet",
                      "type": "uint256"
                    },
                    {
                      "internalType": "bool",
                      "name": "isClaimed",
                      "type": "bool"
                    },
                    {
                      "internalType": "bool",
                      "name": "isInitialized",
                      "type": "bool"
                    }
                  ],
                  "internalType": "struct Bet",
                  "name": "totalBet",
                  "type": "tuple"
                },
                {
                  "components": [
                    {
                      "internalType": "uint256",
                      "name": "homeBet",
                      "type": "uint256"
                    },
                    {
                      "internalType": "uint256",
                      "name": "awayBet",
                      "type": "uint256"
                    },
                    {
                      "internalType": "bool",
                      "name": "isClaimed",
                      "type": "bool"
                    },
                    {
                      "internalType": "bool",
                      "name": "isInitialized",
                      "type": "bool"
                    }
                  ],
                  "internalType": "struct Bet",
                  "name": "myBet",
                  "type": "tuple"
                },
                {
                  "internalType": "bool",
                  "name": "isInitialized",
                  "type": "bool"
                },
                {
                  "internalType": "bool",
                  "name": "isFinished",
                  "type": "bool"
                },
                {
                  "internalType": "bool",
                  "name": "isAlreadyMadeABet",
                  "type": "bool"
                }
              ],
              "internalType": "struct PostView[]",
              "name": "posts",
              "type": "tuple[]"
            },
            {
              "internalType": "bool",
              "name": "success",
              "type": "bool"
            },
            {
              "internalType": "bool",
              "name": "haveMorePageAvailable",
              "type": "bool"
            }
          ],
          "stateMutability": "view",
          "type": "function"
        },
        {
          "inputs": [
            {
              "internalType": "uint256",
              "name": "nData",
              "type": "uint256"
            },
            {
              "internalType": "uint256",
              "name": "pageNumber",
              "type": "uint256"
            }
          ],
          "name": "getPostsIBetInWithPagination",
          "outputs": [
            {
              "components": [
                {
                  "internalType": "uint256",
                  "name": "id",
                  "type": "uint256"
                },
                {
                  "internalType": "uint256",
                  "name": "matchId",
                  "type": "uint256"
                },
                {
                  "internalType": "uint32",
                  "name": "homeHandicapScore",
                  "type": "uint32"
                },
                {
                  "internalType": "uint32",
                  "name": "awayHandicapScore",
                  "type": "uint32"
                },
                {
                  "internalType": "uint256",
                  "name": "totalStake",
                  "type": "uint256"
                },
                {
                  "internalType": "uint256",
                  "name": "myStake",
                  "type": "uint256"
                },
                {
                  "components": [
                    {
                      "internalType": "uint256",
                      "name": "homeBet",
                      "type": "uint256"
                    },
                    {
                      "internalType": "uint256",
                      "name": "awayBet",
                      "type": "uint256"
                    },
                    {
                      "internalType": "bool",
                      "name": "isClaimed",
                      "type": "bool"
                    },
                    {
                      "internalType": "bool",
                      "name": "isInitialized",
                      "type": "bool"
                    }
                  ],
                  "internalType": "struct Bet",
                  "name": "totalBet",
                  "type": "tuple"
                },
                {
                  "components": [
                    {
                      "internalType": "uint256",
                      "name": "homeBet",
                      "type": "uint256"
                    },
                    {
                      "internalType": "uint256",
                      "name": "awayBet",
                      "type": "uint256"
                    },
                    {
                      "internalType": "bool",
                      "name": "isClaimed",
                      "type": "bool"
                    },
                    {
                      "internalType": "bool",
                      "name": "isInitialized",
                      "type": "bool"
                    }
                  ],
                  "internalType": "struct Bet",
                  "name": "myBet",
                  "type": "tuple"
                },
                {
                  "internalType": "bool",
                  "name": "isInitialized",
                  "type": "bool"
                },
                {
                  "internalType": "bool",
                  "name": "isFinished",
                  "type": "bool"
                },
                {
                  "internalType": "bool",
                  "name": "isAlreadyMadeABet",
                  "type": "bool"
                }
              ],
              "internalType": "struct PostView[]",
              "name": "posts",
              "type": "tuple[]"
            },
            {
              "internalType": "bool",
              "name": "success",
              "type": "bool"
            },
            {
              "internalType": "bool",
              "name": "haveMorePageAvailable",
              "type": "bool"
            }
          ],
          "stateMutability": "view",
          "type": "function"
        },
        {
          "inputs": [
            {
              "internalType": "uint256",
              "name": "postId",
              "type": "uint256"
            },
            {
              "internalType": "address",
              "name": "user",
              "type": "address"
            }
          ],
          "name": "getStakeInPostByUserAddress",
          "outputs": [
            {
              "internalType": "uint256",
              "name": "",
              "type": "uint256"
            }
          ],
          "stateMutability": "view",
          "type": "function"
        },
        {
          "inputs": [
            {
              "internalType": "uint256",
              "name": "postId",
              "type": "uint256"
            },
            {
              "internalType": "bool",
              "name": "isHomeBet",
              "type": "bool"
            }
          ],
          "name": "makeABet",
          "outputs": [
            {
              "internalType": "bool",
              "name": "",
              "type": "bool"
            }
          ],
          "stateMutability": "payable",
          "type": "function"
        },
        {
          "inputs": [],
          "name": "nBetting",
          "outputs": [
            {
              "internalType": "uint256",
              "name": "",
              "type": "uint256"
            }
          ],
          "stateMutability": "view",
          "type": "function"
        },
        {
          "inputs": [],
          "name": "nMatch",
          "outputs": [
            {
              "internalType": "uint256",
              "name": "",
              "type": "uint256"
            }
          ],
          "stateMutability": "view",
          "type": "function"
        },
        {
          "inputs": [
            {
              "internalType": "uint256",
              "name": "postId",
              "type": "uint256"
            }
          ],
          "name": "playerClaimBettingReward",
          "outputs": [
            {
              "internalType": "bool",
              "name": "",
              "type": "bool"
            }
          ],
          "stateMutability": "nonpayable",
          "type": "function"
        }
      ],
      "evm": {
        "bytecode": {
          "linkReferences": {},
          "object": "6080604052348015600f57600080fd5b50336000806101000a81548173ffffffffffffffffffffffffffffffffffffffff021916908373ffffffffffffffffffffffffffffffffffffffff160217905550600060018190555060006002819055506138f88061006f6000396000f3fe6080604052600436106100e85760003560e01c80639058fa1e1161008a578063aaa3cdf411610059578063aaa3cdf41461034a578063b6806e571461037a578063d927b1b8146103aa578063e7587ea5146103e7576100e8565b80639058fa1e1461026657806391293d5a146102a5578063a0579644146102e2578063a6f9dae114610321576100e8565b806357447733116100c6578063574477331461019657806369cc08d3146101d35780637f8206ad146101fe578063893d20e81461023b576100e8565b806317c77e26146100ed5780633a3567b61461011857806347071b4314610157575b600080fd5b3480156100f957600080fd5b50610102610417565b60405161010f9190612654565b60405180910390f35b34801561012457600080fd5b5061013f600480360381019061013a91906126a5565b61041d565b60405161014e93929190612924565b60405180910390f35b34801561016357600080fd5b5061017e600480360381019061017991906126a5565b6104cd565b60405161018d93929190612924565b60405180910390f35b3480156101a257600080fd5b506101bd60048036038101906101b891906129c7565b61057d565b6040516101ca9190612654565b60405180910390f35b3480156101df57600080fd5b506101e861071c565b6040516101f59190612654565b60405180910390f35b34801561020a57600080fd5b5061022560048036038101906102209190612a74565b610722565b6040516102329190612ac7565b60405180910390f35b34801561024757600080fd5b50610250610857565b60405161025d9190612b23565b60405180910390f35b34801561027257600080fd5b5061028d60048036038101906102889190612b3e565b610880565b60405161029c93929190612924565b60405180910390f35b3480156102b157600080fd5b506102cc60048036038101906102c79190612bbd565b610909565b6040516102d99190612654565b60405180910390f35b3480156102ee57600080fd5b50610309600480360381019061030491906126a5565b610967565b60405161031893929190612e06565b60405180910390f35b34801561032d57600080fd5b5061034860048036038101906103439190612e44565b610d94565b005b610364600480360381019061035f9190612e71565b610e65565b6040516103719190612ac7565b60405180910390f35b610394600480360381019061038f9190612a74565b610fff565b6040516103a19190612654565b60405180910390f35b3480156103b657600080fd5b506103d160048036038101906103cc9190612e71565b61135c565b6040516103de9190612ac7565b60405180910390f35b61040160048036038101906103fc9190612eca565b61173c565b60405161040e9190612ac7565b60405180910390f35b60025481565b60606000806000600560003373ffffffffffffffffffffffffffffffffffffffff1673ffffffffffffffffffffffffffffffffffffffff16815260200190815260200160002090506104bf818054806020026020016040519081016040528092919081815260200182805480156104b357602002820191906000526020600020905b81548152602001906001019080831161049f575b50505050508787611c42565b935093509350509250925092565b60606000806000600660003373ffffffffffffffffffffffffffffffffffffffff1673ffffffffffffffffffffffffffffffffffffffff168152602001908152602001600020905061056f8180548060200260200160405190810160405280929190818152602001828054801561056357602002820191906000526020600020905b81548152602001906001019080831161054f575b50505050508787611c42565b935093509350509250925092565b60008060009054906101000a900473ffffffffffffffffffffffffffffffffffffffff1673ffffffffffffffffffffffffffffffffffffffff163373ffffffffffffffffffffffffffffffffffffffff161461060e576040517f08c379a000000000000000000000000000000000000000000000000000000000815260040161060590612f67565b60405180910390fd5b60025460036000600254815260200190815260200160002060000181905550848460036000600254815260200190815260200160002060010191826106549291906131cd565b508282600360006002548152602001908152602001600020600201918261067c9291906131cd565b50600060036000600254815260200190815260200160002060030160086101000a81548160ff021916908315150217905550600160036000600254815260200190815260200160002060030160096101000a81548160ff0219169083151502179055506001600260008282546106f291906132cc565b92505081905550600360006002548152602001908152602001600020600001549050949350505050565b60015481565b60008060009054906101000a900473ffffffffffffffffffffffffffffffffffffffff1673ffffffffffffffffffffffffffffffffffffffff163373ffffffffffffffffffffffffffffffffffffffff16146107b3576040517f08c379a00000000000000000000000000000000000000000000000000000000081526004016107aa90612f67565b60405180910390fd5b826003600086815260200190815260200160002060030160006101000a81548163ffffffff021916908363ffffffff160217905550816003600086815260200190815260200160002060030160046101000a81548163ffffffff021916908363ffffffff16021790555060016003600086815260200190815260200160002060030160086101000a81548160ff021916908315150217905550600190509392505050565b60008060009054906101000a900473ffffffffffffffffffffffffffffffffffffffff16905090565b606060008060006003600088815260200190815260200160002060040190506108f9818054806020026020016040519081016040528092919081815260200182805480156108ed57602002820191906000526020600020905b8154815260200190600101908083116108d9575b50505050508787611c42565b9350935093505093509350939050565b60006004600084815260200190815260200160002060030160008373ffffffffffffffffffffffffffffffffffffffff1673ffffffffffffffffffffffffffffffffffffffff16815260200190815260200160002054905092915050565b606060008060008061097c60025488886122fd565b8096508197508294508395505050505083610998575050610d8d565b6000600182846109a89190613300565b6109b291906132cc565b90508067ffffffffffffffff8111156109ce576109cd612f92565b5b604051908082528060200260200182016040528015610a0757816020015b6109f4612542565b8152602001906001900390816109ec5790505b50955060008390505b828110610d7e5760008185610a259190613300565b90506003600083815260200190815260200160002060000154888281518110610a5157610a50613334565b5b60200260200101516000018181525050600360008381526020019081526020016000206001018054610a8290612ff0565b80601f0160208091040260200160405190810160405280929190818152602001828054610aae90612ff0565b8015610afb5780601f10610ad057610100808354040283529160200191610afb565b820191906000526020600020905b815481529060010190602001808311610ade57829003601f168201915b5050505050888281518110610b1357610b12613334565b5b602002602001015160200181905250600360008381526020019081526020016000206002018054610b4390612ff0565b80601f0160208091040260200160405190810160405280929190818152602001828054610b6f90612ff0565b8015610bbc5780601f10610b9157610100808354040283529160200191610bbc565b820191906000526020600020905b815481529060010190602001808311610b9f57829003601f168201915b5050505050888281518110610bd457610bd3613334565b5b6020026020010151604001819052506003600083815260200190815260200160002060030160009054906101000a900463ffffffff16888281518110610c1d57610c1c613334565b5b60200260200101516060019063ffffffff16908163ffffffff16815250506003600083815260200190815260200160002060030160049054906101000a900463ffffffff16888281518110610c7557610c74613334565b5b60200260200101516080019063ffffffff16908163ffffffff16815250506003600083815260200190815260200160002060030160089054906101000a900460ff16888281518110610cca57610cc9613334565b5b602002602001015160a00190151590811515815250506003600083815260200190815260200160002060030160099054906101000a900460ff16888281518110610d1757610d16613334565b5b602002602001015160c00190151590811515815250506003600083815260200190815260200160002060040180549050888281518110610d5a57610d59613334565b5b602002602001015160e0018181525050508080610d7690613363565b915050610a10565b50600194506000821193505050505b9250925092565b60008054906101000a900473ffffffffffffffffffffffffffffffffffffffff1673ffffffffffffffffffffffffffffffffffffffff163373ffffffffffffffffffffffffffffffffffffffff1614610e22576040517f08c379a0000000000000000000000000000000000000000000000000000000008152600401610e1990612f67565b60405180910390fd5b806000806101000a81548173ffffffffffffffffffffffffffffffffffffffff021916908373ffffffffffffffffffffffffffffffffffffffff16021790555050565b6000600360006004600085815260200190815260200160002060010154815260200190815260200160002060030160089054906101000a900460ff1615610ee1576040517f08c379a0000000000000000000000000000000000000000000000000000000008152600401610ed8906133d8565b60405180910390fd5b346004600084815260200190815260200160002060030160003373ffffffffffffffffffffffffffffffffffffffff1673ffffffffffffffffffffffffffffffffffffffff1681526020019081526020016000206000828254610f4491906132cc565b9250508190555034600460008481526020019081526020016000206004016000828254610f7191906132cc565b92505081905550600660003373ffffffffffffffffffffffffffffffffffffffff1673ffffffffffffffffffffffffffffffffffffffff16815260200190815260200160002060046000600154815260200190815260200160002060000154908060018154018082558091505060019003906000526020600020016000909190919091505560019050919050565b60006003600085815260200190815260200160002060030160099054906101000a900460ff16611064576040517f08c379a000000000000000000000000000000000000000000000000000000000815260040161105b90613444565b60405180910390fd5b6003600085815260200190815260200160002060030160089054906101000a900460ff16156110c8576040517f08c379a00000000000000000000000000000000000000000000000000000000081526004016110bf906134b0565b60405180910390fd5b6001546004600060015481526020019081526020016000206000018190555083600460006001548152602001908152602001600020600101819055508260046000600154815260200190815260200160002060020160006101000a81548163ffffffff021916908363ffffffff1602179055508160046000600154815260200190815260200160002060020160046101000a81548163ffffffff021916908363ffffffff1602179055503460046000600154815260200190815260200160002060030160003373ffffffffffffffffffffffffffffffffffffffff1673ffffffffffffffffffffffffffffffffffffffff168152602001908152602001600020819055503460046000600154815260200190815260200160002060040181905550600160046000600154815260200190815260200160002060090160006101000a81548160ff021916908315150217905550600160046000600154815260200190815260200160002060060160020160016101000a81548160ff02191690831515021790555060036000858152602001908152602001600020600401600460006001548152602001908152602001600020600001549080600181540180825580915050600190039060005260206000200160009091909190915055600660003373ffffffffffffffffffffffffffffffffffffffff1673ffffffffffffffffffffffffffffffffffffffff168152602001908152602001600020600460006001548152602001908152602001600020600001549080600181540180825580915050600190039060005260206000200160009091909190915055600180600082825461133391906132cc565b925050819055506004600060015481526020019081526020016000206000015490509392505050565b6000806004600084815260200190815260200160002090506000600360008360010154815260200190815260200160002090508160090160009054906101000a900460ff166113e0576040517f08c379a00000000000000000000000000000000000000000000000000000000081526004016113d79061351c565b60405180910390fd5b8060030160089054906101000a900460ff16611431576040517f08c379a000000000000000000000000000000000000000000000000000000000815260040161142890613588565b60405180910390fd5b8160050160003373ffffffffffffffffffffffffffffffffffffffff1673ffffffffffffffffffffffffffffffffffffffff16815260200190815260200160002060020160009054906101000a900460ff16156114c3576040517f08c379a00000000000000000000000000000000000000000000000000000000081526004016114ba906135f4565b60405180910390fd5b60018260050160003373ffffffffffffffffffffffffffffffffffffffff1673ffffffffffffffffffffffffffffffffffffffff16815260200190815260200160002060020160006101000a81548160ff02191690831515021790555060008260020160009054906101000a900463ffffffff168260030160009054906101000a900463ffffffff166115569190613614565b905060008360020160049054906101000a900463ffffffff168360030160049054906101000a900463ffffffff1661158e9190613614565b90508063ffffffff168263ffffffff16111561161157600060028560050160003373ffffffffffffffffffffffffffffffffffffffff1673ffffffffffffffffffffffffffffffffffffffff168152602001908152602001600020600001546115f7919061364c565b905061160333826123a9565b600195505050505050611737565b8063ffffffff168263ffffffff16101561169257600060028560050160003373ffffffffffffffffffffffffffffffffffffffff1673ffffffffffffffffffffffffffffffffffffffff16815260200190815260200160002060010154611678919061364c565b905061168433826123a9565b600195505050505050611737565b6116e0338560050160003373ffffffffffffffffffffffffffffffffffffffff1673ffffffffffffffffffffffffffffffffffffffff168152602001908152602001600020600001546123a9565b61172e338560050160003373ffffffffffffffffffffffffffffffffffffffff1673ffffffffffffffffffffffffffffffffffffffff168152602001908152602001600020600101546123a9565b60019450505050505b919050565b60006004600084815260200190815260200160002060090160009054906101000a900460ff166117a1576040517f08c379a0000000000000000000000000000000000000000000000000000000008152600401611798906136da565b60405180910390fd5b6117be6004600085815260200190815260200160002083346124a9565b6117fd576040517f08c379a00000000000000000000000000000000000000000000000000000000081526004016117f490613746565b60405180910390fd5b600360006004600086815260200190815260200160002060010154815260200190815260200160002060030160089054906101000a900460ff1615611877576040517f08c379a000000000000000000000000000000000000000000000000000000000815260040161186e906133d8565b60405180910390fd5b6004600084815260200190815260200160002060050160003373ffffffffffffffffffffffffffffffffffffffff1673ffffffffffffffffffffffffffffffffffffffff16815260200190815260200160002060020160019054906101000a900460ff1661191a576040517f08c379a0000000000000000000000000000000000000000000000000000000008152600401611911906137d8565b60405180910390fd5b8115611a0c57346004600085815260200190815260200160002060050160003373ffffffffffffffffffffffffffffffffffffffff1673ffffffffffffffffffffffffffffffffffffffff1681526020019081526020016000206000018190555060006004600085815260200190815260200160002060050160003373ffffffffffffffffffffffffffffffffffffffff1673ffffffffffffffffffffffffffffffffffffffff1681526020019081526020016000206001018190555034600460008581526020019081526020016000206006016000016000828254611a0091906132cc565b92505081905550611af4565b346004600085815260200190815260200160002060050160003373ffffffffffffffffffffffffffffffffffffffff1673ffffffffffffffffffffffffffffffffffffffff1681526020019081526020016000206001018190555060006004600085815260200190815260200160002060050160003373ffffffffffffffffffffffffffffffffffffffff1673ffffffffffffffffffffffffffffffffffffffff1681526020019081526020016000206000018190555034600460008581526020019081526020016000206006016001016000828254611aec91906132cc565b925050819055505b60006004600085815260200190815260200160002060050160003373ffffffffffffffffffffffffffffffffffffffff1673ffffffffffffffffffffffffffffffffffffffff16815260200190815260200160002060020160006101000a81548160ff02191690831515021790555060016004600085815260200190815260200160002060050160003373ffffffffffffffffffffffffffffffffffffffff1673ffffffffffffffffffffffffffffffffffffffff16815260200190815260200160002060020160016101000a81548160ff021916908315150217905550600560003373ffffffffffffffffffffffffffffffffffffffff1673ffffffffffffffffffffffffffffffffffffffff1681526020019081526020016000208390806001815401808255809150506001900390600052602060002001600090919091909150556001905092915050565b6060600080600080611c56885188886122fd565b8096508197508294508395505050505083611c725750506122f4565b600060018284611c829190613300565b611c8c91906132cc565b90508067ffffffffffffffff811115611ca857611ca7612f92565b5b604051908082528060200260200182016040528015611ce157816020015b611cce612597565b815260200190600190039081611cc65790505b50955060008390505b8281106122eb5760008185611cff9190613300565b9050600460008c8481518110611d1857611d17613334565b5b6020026020010151815260200190815260200160002060000154888281518110611d4557611d44613334565b5b60200260200101516000018181525050600460008c8481518110611d6c57611d6b613334565b5b6020026020010151815260200190815260200160002060010154888281518110611d9957611d98613334565b5b60200260200101516020018181525050600460008c8481518110611dc057611dbf613334565b5b6020026020010151815260200190815260200160002060020160009054906101000a900463ffffffff16888281518110611dfd57611dfc613334565b5b60200260200101516040019063ffffffff16908163ffffffff1681525050600460008c8481518110611e3257611e31613334565b5b6020026020010151815260200190815260200160002060020160049054906101000a900463ffffffff16888281518110611e6f57611e6e613334565b5b60200260200101516060019063ffffffff16908163ffffffff1681525050600460008c8481518110611ea457611ea3613334565b5b6020026020010151815260200190815260200160002060040154888281518110611ed157611ed0613334565b5b60200260200101516080018181525050600460008c8481518110611ef857611ef7613334565b5b6020026020010151815260200190815260200160002060060160405180608001604052908160008201548152602001600182015481526020016002820160009054906101000a900460ff161515151581526020016002820160019054906101000a900460ff161515151581525050888281518110611f7957611f78613334565b5b602002602001015160c00181905250600460008c8481518110611f9f57611f9e613334565b5b6020026020010151815260200190815260200160002060090160009054906101000a900460ff16888281518110611fd957611fd8613334565b5b602002602001015161010001901515908115158152505060036000600460008e868151811061200b5761200a613334565b5b6020026020010151815260200190815260200160002060010154815260200190815260200160002060030160089054906101000a900460ff1688828151811061205757612056613334565b5b6020026020010151610120019015159081151581525050600460008c848151811061208557612084613334565b5b6020026020010151815260200190815260200160002060050160003373ffffffffffffffffffffffffffffffffffffffff1673ffffffffffffffffffffffffffffffffffffffff16815260200190815260200160002060020160019054906101000a900460ff168882815181106120ff576120fe613334565b5b6020026020010151610140019015159081151581525050600460008c848151811061212d5761212c613334565b5b6020026020010151815260200190815260200160002060030160003373ffffffffffffffffffffffffffffffffffffffff1673ffffffffffffffffffffffffffffffffffffffff1681526020019081526020016000205488828151811061219757612196613334565b5b602002602001015160a0018181525050600460008c84815181106121be576121bd613334565b5b6020026020010151815260200190815260200160002060050160003373ffffffffffffffffffffffffffffffffffffffff1673ffffffffffffffffffffffffffffffffffffffff1681526020019081526020016000206000015488828151811061222b5761222a613334565b5b602002602001015160e001516000018181525050600460008c848151811061225657612255613334565b5b6020026020010151815260200190815260200160002060050160003373ffffffffffffffffffffffffffffffffffffffff1673ffffffffffffffffffffffffffffffffffffffff168152602001908152602001600020600101548882815181106122c3576122c2613334565b5b602002602001015160e0015160200181815250505080806122e390613363565b915050611cea565b50600194505050505b93509350939050565b60008060008060008760018888612314919061364c565b61231e91906132cc565b1190508015612335576000925060009150506123a0565b60018787612343919061364c565b8961234e9190613300565b6123589190613300565b9450600060018661236991906132cc565b88119050801561237c5760009450612397565b8760018761238a91906132cc565b6123949190613300565b94505b60008511925050505b93509350935093565b60008273ffffffffffffffffffffffffffffffffffffffff1682600067ffffffffffffffff8111156123de576123dd612f92565b5b6040519080825280601f01601f1916602001820160405280156124105781602001600182028036833780820191505090505b5060405161241e919061383f565b60006040518083038185875af1925050503d806000811461245b576040519150601f19603f3d011682016040523d82523d6000602084013e612460565b606091505b50509050806124a4576040517f08c379a000000000000000000000000000000000000000000000000000000000815260040161249b906138a2565b60405180910390fd5b505050565b6000808460060160000154905060008560060160010154905084156124db5783826124d491906132cc565b91506124ea565b83816124e791906132cc565b90505b6000808284111561250057839150829050612507565b8291508390505b600081836125159190613300565b905088600401548111156125315760009550505050505061253b565b6001955050505050505b9392505050565b604051806101000160405280600081526020016060815260200160608152602001600063ffffffff168152602001600063ffffffff168152602001600015158152602001600015158152602001600081525090565b6040518061016001604052806000815260200160008152602001600063ffffffff168152602001600063ffffffff16815260200160008152602001600081526020016125e161260f565b81526020016125ee61260f565b81526020016000151581526020016000151581526020016000151581525090565b604051806080016040528060008152602001600081526020016000151581526020016000151581525090565b6000819050919050565b61264e8161263b565b82525050565b60006020820190506126696000830184612645565b92915050565b600080fd5b600080fd5b6126828161263b565b811461268d57600080fd5b50565b60008135905061269f81612679565b92915050565b600080604083850312156126bc576126bb61266f565b5b60006126ca85828601612690565b92505060206126db85828601612690565b9150509250929050565b600081519050919050565b600082825260208201905092915050565b6000819050602082019050919050565b61271a8161263b565b82525050565b600063ffffffff82169050919050565b61273981612720565b82525050565b60008115159050919050565b6127548161273f565b82525050565b6080820160008201516127706000850182612711565b5060208201516127836020850182612711565b506040820151612796604085018261274b565b5060608201516127a9606085018261274b565b50505050565b610220820160008201516127c66000850182612711565b5060208201516127d96020850182612711565b5060408201516127ec6040850182612730565b5060608201516127ff6060850182612730565b5060808201516128126080850182612711565b5060a082015161282560a0850182612711565b5060c082015161283860c085018261275a565b5060e082015161284c61014085018261275a565b506101008201516128616101c085018261274b565b506101208201516128766101e085018261274b565b5061014082015161288b61020085018261274b565b50505050565b600061289d83836127af565b6102208301905092915050565b6000602082019050919050565b60006128c2826126e5565b6128cc81856126f0565b93506128d783612701565b8060005b838110156129085781516128ef8882612891565b97506128fa836128aa565b9250506001810190506128db565b5085935050505092915050565b61291e8161273f565b82525050565b6000606082019050818103600083015261293e81866128b7565b905061294d6020830185612915565b61295a6040830184612915565b949350505050565b600080fd5b600080fd5b600080fd5b60008083601f84011261298757612986612962565b5b8235905067ffffffffffffffff8111156129a4576129a3612967565b5b6020830191508360018202830111156129c0576129bf61296c565b5b9250929050565b600080600080604085870312156129e1576129e061266f565b5b600085013567ffffffffffffffff8111156129ff576129fe612674565b5b612a0b87828801612971565b9450945050602085013567ffffffffffffffff811115612a2e57612a2d612674565b5b612a3a87828801612971565b925092505092959194509250565b612a5181612720565b8114612a5c57600080fd5b50565b600081359050612a6e81612a48565b92915050565b600080600060608486031215612a8d57612a8c61266f565b5b6000612a9b86828701612690565b9350506020612aac86828701612a5f565b9250506040612abd86828701612a5f565b9150509250925092565b6000602082019050612adc6000830184612915565b92915050565b600073ffffffffffffffffffffffffffffffffffffffff82169050919050565b6000612b0d82612ae2565b9050919050565b612b1d81612b02565b82525050565b6000602082019050612b386000830184612b14565b92915050565b600080600060608486031215612b5757612b5661266f565b5b6000612b6586828701612690565b9350506020612b7686828701612690565b9250506040612b8786828701612690565b9150509250925092565b612b9a81612b02565b8114612ba557600080fd5b50565b600081359050612bb781612b91565b92915050565b60008060408385031215612bd457612bd361266f565b5b6000612be285828601612690565b9250506020612bf385828601612ba8565b9150509250929050565b600081519050919050565b600082825260208201905092915050565b6000819050602082019050919050565b600081519050919050565b600082825260208201905092915050565b60005b83811015612c63578082015181840152602081019050612c48565b60008484015250505050565b6000601f19601f8301169050919050565b6000612c8b82612c29565b612c958185612c34565b9350612ca5818560208601612c45565b612cae81612c6f565b840191505092915050565b600061010083016000830151612cd26000860182612711565b5060208301518482036020860152612cea8282612c80565b91505060408301518482036040860152612d048282612c80565b9150506060830151612d196060860182612730565b506080830151612d2c6080860182612730565b5060a0830151612d3f60a086018261274b565b5060c0830151612d5260c086018261274b565b5060e0830151612d6560e0860182612711565b508091505092915050565b6000612d7c8383612cb9565b905092915050565b6000602082019050919050565b6000612d9c82612bfd565b612da68185612c08565b935083602082028501612db885612c19565b8060005b85811015612df45784840389528151612dd58582612d70565b9450612de083612d84565b925060208a01995050600181019050612dbc565b50829750879550505050505092915050565b60006060820190508181036000830152612e208186612d91565b9050612e2f6020830185612915565b612e3c6040830184612915565b949350505050565b600060208284031215612e5a57612e5961266f565b5b6000612e6884828501612ba8565b91505092915050565b600060208284031215612e8757612e8661266f565b5b6000612e9584828501612690565b91505092915050565b612ea78161273f565b8114612eb257600080fd5b50565b600081359050612ec481612e9e565b92915050565b60008060408385031215612ee157612ee061266f565b5b6000612eef85828601612690565b9250506020612f0085828601612eb5565b9150509250929050565b600082825260208201905092915050565b7f756e617574686f72697a65640000000000000000000000000000000000000000600082015250565b6000612f51600c83612f0a565b9150612f5c82612f1b565b602082019050919050565b60006020820190508181036000830152612f8081612f44565b9050919050565b600082905092915050565b7f4e487b7100000000000000000000000000000000000000000000000000000000600052604160045260246000fd5b7f4e487b7100000000000000000000000000000000000000000000000000000000600052602260045260246000fd5b6000600282049050600182168061300857607f821691505b60208210810361301b5761301a612fc1565b5b50919050565b60008190508160005260206000209050919050565b60006020601f8301049050919050565b600082821b905092915050565b6000600883026130837fffffffffffffffffffffffffffffffffffffffffffffffffffffffffffffffff82613046565b61308d8683613046565b95508019841693508086168417925050509392505050565b6000819050919050565b60006130ca6130c56130c08461263b565b6130a5565b61263b565b9050919050565b6000819050919050565b6130e4836130af565b6130f86130f0826130d1565b848454613053565b825550505050565b600090565b61310d613100565b6131188184846130db565b505050565b5b8181101561313c57613131600082613105565b60018101905061311e565b5050565b601f8211156131815761315281613021565b61315b84613036565b8101602085101561316a578190505b61317e61317685613036565b83018261311d565b50505b505050565b600082821c905092915050565b60006131a460001984600802613186565b1980831691505092915050565b60006131bd8383613193565b9150826002028217905092915050565b6131d78383612f87565b67ffffffffffffffff8111156131f0576131ef612f92565b5b6131fa8254612ff0565b613205828285613140565b6000601f8311600181146132345760008415613222578287013590505b61322c85826131b1565b865550613294565b601f19841661324286613021565b60005b8281101561326a57848901358255600182019150602085019450602081019050613245565b868310156132875784890135613283601f891682613193565b8355505b6001600288020188555050505b50505050505050565b7f4e487b7100000000000000000000000000000000000000000000000000000000600052601160045260246000fd5b60006132d78261263b565b91506132e28361263b565b92508282019050808211156132fa576132f961329d565b5b92915050565b600061330b8261263b565b91506133168361263b565b925082820390508181111561332e5761332d61329d565b5b92915050565b7f4e487b7100000000000000000000000000000000000000000000000000000000600052603260045260246000fd5b600061336e8261263b565b9150600082036133815761338061329d565b5b600182039050919050565b7f6d6174636820616c72656164792066696e697368656400000000000000000000600082015250565b60006133c2601683612f0a565b91506133cd8261338c565b602082019050919050565b600060208201905081810360008301526133f1816133b5565b9050919050565b7f6d617463684964206e6f74206578697374656400000000000000000000000000600082015250565b600061342e601383612f0a565b9150613439826133f8565b602082019050919050565b6000602082019050818103600083015261345d81613421565b9050919050565b7f746865206d6174636820697320616c726561792066696e697368656400000000600082015250565b600061349a601c83612f0a565b91506134a582613464565b602082019050919050565b600060208201905081810360008301526134c98161348d565b9050919050565b7f62657474696e6720706f7374206e6f7420666f756e6400000000000000000000600082015250565b6000613506601683612f0a565b9150613511826134d0565b602082019050919050565b60006020820190508181036000830152613535816134f9565b9050919050565b7f6d61746368206973206e6f742066696e69736865640000000000000000000000600082015250565b6000613572601583612f0a565b915061357d8261353c565b602082019050919050565b600060208201905081810360008301526135a181613565565b9050919050565b7f72657761726420616c726561647920636c61696d656400000000000000000000600082015250565b60006135de601683612f0a565b91506135e9826135a8565b602082019050919050565b6000602082019050818103600083015261360d816135d1565b9050919050565b600061361f82612720565b915061362a83612720565b9250828201905063ffffffff8111156136465761364561329d565b5b92915050565b60006136578261263b565b91506136628361263b565b92508282026136708161263b565b915082820484148315176136875761368661329d565b5b5092915050565b7f706f7374206e6f74206578697374000000000000000000000000000000000000600082015250565b60006136c4600e83612f0a565b91506136cf8261368e565b602082019050919050565b600060208201905081810360008301526136f3816136b7565b9050919050565b7f626574206e6f742076616c696400000000000000000000000000000000000000600082015250565b6000613730600d83612f0a565b915061373b826136fa565b602082019050919050565b6000602082019050818103600083015261375f81613723565b9050919050565b7f796f7520616c7265616479206d616b65206120626574206f6e2074686973207060008201527f6f73740000000000000000000000000000000000000000000000000000000000602082015250565b60006137c2602383612f0a565b91506137cd82613766565b604082019050919050565b600060208201905081810360008301526137f1816137b5565b9050919050565b600081519050919050565b600081905092915050565b6000613819826137f8565b6138238185613803565b9350613833818560208601612c45565b80840191505092915050565b600061384b828461380e565b915081905092915050565b7f7472616e73666572206572726f72000000000000000000000000000000000000600082015250565b600061388c600e83612f0a565b915061389782613856565b602082019050919050565b600060208201905081810360008301526138bb8161387f565b905091905056fea264697066735822122047c8b5f39baa6ee1b91a38bb1b4a51f06d992f166edf289e5fef81b8763aacbd64736f6c634300081b0033",
          "opcodes": "PUSH1 0x80 PUSH1 0x40 MSTORE CALLVALUE DUP1 ISZERO PUSH1 0xF JUMPI PUSH1 0x0 DUP1 REVERT JUMPDEST POP CALLER PUSH1 0x0 DUP1 PUSH2 0x100 EXP DUP2 SLOAD DUP2 PUSH20 0xFFFFFFFFFFFFFFFFFFFFFFFFFFFFFFFFFFFFFFFF MUL NOT AND SWAP1 DUP4 PUSH20 0xFFFFFFFFFFFFFFFFFFFFFFFFFFFFFFFFFFFFFFFF AND MUL OR SWAP1 SSTORE POP PUSH1 0x0 PUSH1 0x1 DUP2 SWAP1 SSTORE POP PUSH1 0x0 PUSH1 0x2 DUP2 SWAP1 SSTORE POP PUSH2 0x38F8 DUP1 PUSH2 0x6F PUSH1 0x0 CODECOPY PUSH1 0x0 RETURN INVALID PUSH1 0x80 PUSH1 0x40 MSTORE PUSH1 0x4 CALLDATASIZE LT PUSH2 0xE8 JUMPI PUSH1 0x0 CALLDATALOAD PUSH1 0xE0 SHR DUP1 PUSH4 0x9058FA1E GT PUSH2 0x8A JUMPI DUP1 PUSH4 0xAAA3CDF4 GT PUSH2 0x59 JUMPI DUP1 PUSH4 0xAAA3CDF4 EQ PUSH2 0x34A JUMPI DUP1 PUSH4 0xB6806E57 EQ PUSH2 0x37A JUMPI DUP1 PUSH4 0xD927B1B8 EQ PUSH2 0x3AA JUMPI DUP1 PUSH4 0xE7587EA5 EQ PUSH2 0x3E7 JUMPI PUSH2 0xE8 JUMP JUMPDEST DUP1 PUSH4 0x9058FA1E EQ PUSH2 0x266 JUMPI DUP1 PUSH4 0x91293D5A EQ PUSH2 0x2A5 JUMPI DUP1 PUSH4 0xA0579644 EQ PUSH2 0x2E2 JUMPI DUP1 PUSH4 0xA6F9DAE1 EQ PUSH2 0x321 JUMPI PUSH2 0xE8 JUMP JUMPDEST DUP1 PUSH4 0x57447733 GT PUSH2 0xC6 JUMPI DUP1 PUSH4 0x57447733 EQ PUSH2 0x196 JUMPI DUP1 PUSH4 0x69CC08D3 EQ PUSH2 0x1D3 JUMPI DUP1 PUSH4 0x7F8206AD EQ PUSH2 0x1FE JUMPI DUP1 PUSH4 0x893D20E8 EQ PUSH2 0x23B JUMPI PUSH2 0xE8 JUMP JUMPDEST DUP1 PUSH4 0x17C77E26 EQ PUSH2 0xED JUMPI DUP1 PUSH4 0x3A3567B6 EQ PUSH2 0x118 JUMPI DUP1 PUSH4 0x47071B43 EQ PUSH2 0x157 JUMPI JUMPDEST PUSH1 0x0 DUP1 REVERT JUMPDEST CALLVALUE DUP1 ISZERO PUSH2 0xF9 JUMPI PUSH1 0x0 DUP1 REVERT JUMPDEST POP PUSH2 0x102 PUSH2 0x417 JUMP JUMPDEST PUSH1 0x40 MLOAD PUSH2 0x10F SWAP2 SWAP1 PUSH2 0x2654 JUMP JUMPDEST PUSH1 0x40 MLOAD DUP1 SWAP2 SUB SWAP1 RETURN JUMPDEST CALLVALUE DUP1 ISZERO PUSH2 0x124 JUMPI PUSH1 0x0 DUP1 REVERT JUMPDEST POP PUSH2 0x13F PUSH1 0x4 DUP1 CALLDATASIZE SUB DUP2 ADD SWAP1 PUSH2 0x13A SWAP2 SWAP1 PUSH2 0x26A5 JUMP JUMPDEST PUSH2 0x41D JUMP JUMPDEST PUSH1 0x40 MLOAD PUSH2 0x14E SWAP4 SWAP3 SWAP2 SWAP1 PUSH2 0x2924 JUMP JUMPDEST PUSH1 0x40 MLOAD DUP1 SWAP2 SUB SWAP1 RETURN JUMPDEST CALLVALUE DUP1 ISZERO PUSH2 0x163 JUMPI PUSH1 0x0 DUP1 REVERT JUMPDEST POP PUSH2 0x17E PUSH1 0x4 DUP1 CALLDATASIZE SUB DUP2 ADD SWAP1 PUSH2 0x179 SWAP2 SWAP1 PUSH2 0x26A5 JUMP JUMPDEST PUSH2 0x4CD JUMP JUMPDEST PUSH1 0x40 MLOAD PUSH2 0x18D SWAP4 SWAP3 SWAP2 SWAP1 PUSH2 0x2924 JUMP JUMPDEST PUSH1 0x40 MLOAD DUP1 SWAP2 SUB SWAP1 RETURN JUMPDEST CALLVALUE DUP1 ISZERO PUSH2 0x1A2 JUMPI PUSH1 0x0 DUP1 REVERT JUMPDEST POP PUSH2 0x1BD PUSH1 0x4 DUP1 CALLDATASIZE SUB DUP2 ADD SWAP1 PUSH2 0x1B8 SWAP2 SWAP1 PUSH2 0x29C7 JUMP JUMPDEST PUSH2 0x57D JUMP JUMPDEST PUSH1 0x40 MLOAD PUSH2 0x1CA SWAP2 SWAP1 PUSH2 0x2654 JUMP JUMPDEST PUSH1 0x40 MLOAD DUP1 SWAP2 SUB SWAP1 RETURN JUMPDEST CALLVALUE DUP1 ISZERO PUSH2 0x1DF JUMPI PUSH1 0x0 DUP1 REVERT JUMPDEST POP PUSH2 0x1E8 PUSH2 0x71C JUMP JUMPDEST PUSH1 0x40 MLOAD PUSH2 0x1F5 SWAP2 SWAP1 PUSH2 0x2654 JUMP JUMPDEST PUSH1 0x40 MLOAD DUP1 SWAP2 SUB SWAP1 RETURN JUMPDEST CALLVALUE DUP1 ISZERO PUSH2 0x20A JUMPI PUSH1 0x0 DUP1 REVERT JUMPDEST POP PUSH2 0x225 PUSH1 0x4 DUP1 CALLDATASIZE SUB DUP2 ADD SWAP1 PUSH2 0x220 SWAP2 SWAP1 PUSH2 0x2A74 JUMP JUMPDEST PUSH2 0x722 JUMP JUMPDEST PUSH1 0x40 MLOAD PUSH2 0x232 SWAP2 SWAP1 PUSH2 0x2AC7 JUMP JUMPDEST PUSH1 0x40 MLOAD DUP1 SWAP2 SUB SWAP1 RETURN JUMPDEST CALLVALUE DUP1 ISZERO PUSH2 0x247 JUMPI PUSH1 0x0 DUP1 REVERT JUMPDEST POP PUSH2 0x250 PUSH2 0x857 JUMP JUMPDEST PUSH1 0x40 MLOAD PUSH2 0x25D SWAP2 SWAP1 PUSH2 0x2B23 JUMP JUMPDEST PUSH1 0x40 MLOAD DUP1 SWAP2 SUB SWAP1 RETURN JUMPDEST CALLVALUE DUP1 ISZERO PUSH2 0x272 JUMPI PUSH1 0x0 DUP1 REVERT JUMPDEST POP PUSH2 0x28D PUSH1 0x4 DUP1 CALLDATASIZE SUB DUP2 ADD SWAP1 PUSH2 0x288 SWAP2 SWAP1 PUSH2 0x2B3E JUMP JUMPDEST PUSH2 0x880 JUMP JUMPDEST PUSH1 0x40 MLOAD PUSH2 0x29C SWAP4 SWAP3 SWAP2 SWAP1 PUSH2 0x2924 JUMP JUMPDEST PUSH1 0x40 MLOAD DUP1 SWAP2 SUB SWAP1 RETURN JUMPDEST CALLVALUE DUP1 ISZERO PUSH2 0x2B1 JUMPI PUSH1 0x0 DUP1 REVERT JUMPDEST POP PUSH2 0x2CC PUSH1 0x4 DUP1 CALLDATASIZE SUB DUP2 ADD SWAP1 PUSH2 0x2C7 SWAP2 SWAP1 PUSH2 0x2BBD JUMP JUMPDEST PUSH2 0x909 JUMP JUMPDEST PUSH1 0x40 MLOAD PUSH2 0x2D9 SWAP2 SWAP1 PUSH2 0x2654 JUMP JUMPDEST PUSH1 0x40 MLOAD DUP1 SWAP2 SUB SWAP1 RETURN JUMPDEST CALLVALUE DUP1 ISZERO PUSH2 0x2EE JUMPI PUSH1 0x0 DUP1 REVERT JUMPDEST POP PUSH2 0x309 PUSH1 0x4 DUP1 CALLDATASIZE SUB DUP2 ADD SWAP1 PUSH2 0x304 SWAP2 SWAP1 PUSH2 0x26A5 JUMP JUMPDEST PUSH2 0x967 JUMP JUMPDEST PUSH1 0x40 MLOAD PUSH2 0x318 SWAP4 SWAP3 SWAP2 SWAP1 PUSH2 0x2E06 JUMP JUMPDEST PUSH1 0x40 MLOAD DUP1 SWAP2 SUB SWAP1 RETURN JUMPDEST CALLVALUE DUP1 ISZERO PUSH2 0x32D JUMPI PUSH1 0x0 DUP1 REVERT JUMPDEST POP PUSH2 0x348 PUSH1 0x4 DUP1 CALLDATASIZE SUB DUP2 ADD SWAP1 PUSH2 0x343 SWAP2 SWAP1 PUSH2 0x2E44 JUMP JUMPDEST PUSH2 0xD94 JUMP JUMPDEST STOP JUMPDEST PUSH2 0x364 PUSH1 0x4 DUP1 CALLDATASIZE SUB DUP2 ADD SWAP1 PUSH2 0x35F SWAP2 SWAP1 PUSH2 0x2E71 JUMP JUMPDEST PUSH2 0xE65 JUMP JUMPDEST PUSH1 0x40 MLOAD PUSH2 0x371 SWAP2 SWAP1 PUSH2 0x2AC7 JUMP JUMPDEST PUSH1 0x40 MLOAD DUP1 SWAP2 SUB SWAP1 RETURN JUMPDEST PUSH2 0x394 PUSH1 0x4 DUP1 CALLDATASIZE SUB DUP2 ADD SWAP1 PUSH2 0x38F SWAP2 SWAP1 PUSH2 0x2A74 JUMP JUMPDEST PUSH2 0xFFF JUMP JUMPDEST PUSH1 0x40 MLOAD PUSH2 0x3A1 SWAP2 SWAP1 PUSH2 0x2654 JUMP JUMPDEST PUSH1 0x40 MLOAD DUP1 SWAP2 SUB SWAP1 RETURN JUMPDEST CALLVALUE DUP1 ISZERO PUSH2 0x3B6 JUMPI PUSH1 0x0 DUP1 REVERT JUMPDEST POP PUSH2 0x3D1 PUSH1 0x4 DUP1 CALLDATASIZE SUB DUP2 ADD SWAP1 PUSH2 0x3CC SWAP2 SWAP1 PUSH2 0x2E71 JUMP JUMPDEST PUSH2 0x135C JUMP JUMPDEST PUSH1 0x40 MLOAD PUSH2 0x3DE SWAP2 SWAP1 PUSH2 0x2AC7 JUMP JUMPDEST PUSH1 0x40 MLOAD DUP1 SWAP2 SUB SWAP1 RETURN JUMPDEST PUSH2 0x401 PUSH1 0x4 DUP1 CALLDATASIZE SUB DUP2 ADD SWAP1 PUSH2 0x3FC SWAP2 SWAP1 PUSH2 0x2ECA JUMP JUMPDEST PUSH2 0x173C JUMP JUMPDEST PUSH1 0x40 MLOAD PUSH2 0x40E SWAP2 SWAP1 PUSH2 0x2AC7 JUMP JUMPDEST PUSH1 0x40 MLOAD DUP1 SWAP2 SUB SWAP1 RETURN JUMPDEST PUSH1 0x2 SLOAD DUP2 JUMP JUMPDEST PUSH1 0x60 PUSH1 0x0 DUP1 PUSH1 0x0 PUSH1 0x5 PUSH1 0x0 CALLER PUSH20 0xFFFFFFFFFFFFFFFFFFFFFFFFFFFFFFFFFFFFFFFF AND PUSH20 0xFFFFFFFFFFFFFFFFFFFFFFFFFFFFFFFFFFFFFFFF AND DUP2 MSTORE PUSH1 0x20 ADD SWAP1 DUP2 MSTORE PUSH1 0x20 ADD PUSH1 0x0 KECCAK256 SWAP1 POP PUSH2 0x4BF DUP2 DUP1 SLOAD DUP1 PUSH1 0x20 MUL PUSH1 0x20 ADD PUSH1 0x40 MLOAD SWAP1 DUP2 ADD PUSH1 0x40 MSTORE DUP1 SWAP3 SWAP2 SWAP1 DUP2 DUP2 MSTORE PUSH1 0x20 ADD DUP3 DUP1 SLOAD DUP1 ISZERO PUSH2 0x4B3 JUMPI PUSH1 0x20 MUL DUP3 ADD SWAP2 SWAP1 PUSH1 0x0 MSTORE PUSH1 0x20 PUSH1 0x0 KECCAK256 SWAP1 JUMPDEST DUP2 SLOAD DUP2 MSTORE PUSH1 0x20 ADD SWAP1 PUSH1 0x1 ADD SWAP1 DUP1 DUP4 GT PUSH2 0x49F JUMPI JUMPDEST POP POP POP POP POP DUP8 DUP8 PUSH2 0x1C42 JUMP JUMPDEST SWAP4 POP SWAP4 POP SWAP4 POP POP SWAP3 POP SWAP3 POP SWAP3 JUMP JUMPDEST PUSH1 0x60 PUSH1 0x0 DUP1 PUSH1 0x0 PUSH1 0x6 PUSH1 0x0 CALLER PUSH20 0xFFFFFFFFFFFFFFFFFFFFFFFFFFFFFFFFFFFFFFFF AND PUSH20 0xFFFFFFFFFFFFFFFFFFFFFFFFFFFFFFFFFFFFFFFF AND DUP2 MSTORE PUSH1 0x20 ADD SWAP1 DUP2 MSTORE PUSH1 0x20 ADD PUSH1 0x0 KECCAK256 SWAP1 POP PUSH2 0x56F DUP2 DUP1 SLOAD DUP1 PUSH1 0x20 MUL PUSH1 0x20 ADD PUSH1 0x40 MLOAD SWAP1 DUP2 ADD PUSH1 0x40 MSTORE DUP1 SWAP3 SWAP2 SWAP1 DUP2 DUP2 MSTORE PUSH1 0x20 ADD DUP3 DUP1 SLOAD DUP1 ISZERO PUSH2 0x563 JUMPI PUSH1 0x20 MUL DUP3 ADD SWAP2 SWAP1 PUSH1 0x0 MSTORE PUSH1 0x20 PUSH1 0x0 KECCAK256 SWAP1 JUMPDEST DUP2 SLOAD DUP2 MSTORE PUSH1 0x20 ADD SWAP1 PUSH1 0x1 ADD SWAP1 DUP1 DUP4 GT PUSH2 0x54F JUMPI JUMPDEST POP POP POP POP POP DUP8 DUP8 PUSH2 0x1C42 JUMP JUMPDEST SWAP4 POP SWAP4 POP SWAP4 POP POP SWAP3 POP SWAP3 POP SWAP3 JUMP JUMPDEST PUSH1 0x0 DUP1 PUSH1 0x0 SWAP1 SLOAD SWAP1 PUSH2 0x100 EXP SWAP1 DIV PUSH20 0xFFFFFFFFFFFFFFFFFFFFFFFFFFFFFFFFFFFFFFFF AND PUSH20 0xFFFFFFFFFFFFFFFFFFFFFFFFFFFFFFFFFFFFFFFF AND CALLER PUSH20 0xFFFFFFFFFFFFFFFFFFFFFFFFFFFFFFFFFFFFFFFF AND EQ PUSH2 0x60E JUMPI PUSH1 0x40 MLOAD PUSH32 0x8C379A000000000000000000000000000000000000000000000000000000000 DUP2 MSTORE PUSH1 0x4 ADD PUSH2 0x605 SWAP1 PUSH2 0x2F67 JUMP JUMPDEST PUSH1 0x40 MLOAD DUP1 SWAP2 SUB SWAP1 REVERT JUMPDEST PUSH1 0x2 SLOAD PUSH1 0x3 PUSH1 0x0 PUSH1 0x2 SLOAD DUP2 MSTORE PUSH1 0x20 ADD SWAP1 DUP2 MSTORE PUSH1 0x20 ADD PUSH1 0x0 KECCAK256 PUSH1 0x0 ADD DUP2 SWAP1 SSTORE POP DUP5 DUP5 PUSH1 0x3 PUSH1 0x0 PUSH1 0x2 SLOAD DUP2 MSTORE PUSH1 0x20 ADD SWAP1 DUP2 MSTORE PUSH1 0x20 ADD PUSH1 0x0 KECCAK256 PUSH1 0x1 ADD SWAP2 DUP3 PUSH2 0x654 SWAP3 SWAP2 SWAP1 PUSH2 0x31CD JUMP JUMPDEST POP DUP3 DUP3 PUSH1 0x3 PUSH1 0x0 PUSH1 0x2 SLOAD DUP2 MSTORE PUSH1 0x20 ADD SWAP1 DUP2 MSTORE PUSH1 0x20 ADD PUSH1 0x0 KECCAK256 PUSH1 0x2 ADD SWAP2 DUP3 PUSH2 0x67C SWAP3 SWAP2 SWAP1 PUSH2 0x31CD JUMP JUMPDEST POP PUSH1 0x0 PUSH1 0x3 PUSH1 0x0 PUSH1 0x2 SLOAD DUP2 MSTORE PUSH1 0x20 ADD SWAP1 DUP2 MSTORE PUSH1 0x20 ADD PUSH1 0x0 KECCAK256 PUSH1 0x3 ADD PUSH1 0x8 PUSH2 0x100 EXP DUP2 SLOAD DUP2 PUSH1 0xFF MUL NOT AND SWAP1 DUP4 ISZERO ISZERO MUL OR SWAP1 SSTORE POP PUSH1 0x1 PUSH1 0x3 PUSH1 0x0 PUSH1 0x2 SLOAD DUP2 MSTORE PUSH1 0x20 ADD SWAP1 DUP2 MSTORE PUSH1 0x20 ADD PUSH1 0x0 KECCAK256 PUSH1 0x3 ADD PUSH1 0x9 PUSH2 0x100 EXP DUP2 SLOAD DUP2 PUSH1 0xFF MUL NOT AND SWAP1 DUP4 ISZERO ISZERO MUL OR SWAP1 SSTORE POP PUSH1 0x1 PUSH1 0x2 PUSH1 0x0 DUP3 DUP3 SLOAD PUSH2 0x6F2 SWAP2 SWAP1 PUSH2 0x32CC JUMP JUMPDEST SWAP3 POP POP DUP2 SWAP1 SSTORE POP PUSH1 0x3 PUSH1 0x0 PUSH1 0x2 SLOAD DUP2 MSTORE PUSH1 0x20 ADD SWAP1 DUP2 MSTORE PUSH1 0x20 ADD PUSH1 0x0 KECCAK256 PUSH1 0x0 ADD SLOAD SWAP1 POP SWAP5 SWAP4 POP POP POP POP JUMP JUMPDEST PUSH1 0x1 SLOAD DUP2 JUMP JUMPDEST PUSH1 0x0 DUP1 PUSH1 0x0 SWAP1 SLOAD SWAP1 PUSH2 0x100 EXP SWAP1 DIV PUSH20 0xFFFFFFFFFFFFFFFFFFFFFFFFFFFFFFFFFFFFFFFF AND PUSH20 0xFFFFFFFFFFFFFFFFFFFFFFFFFFFFFFFFFFFFFFFF AND CALLER PUSH20 0xFFFFFFFFFFFFFFFFFFFFFFFFFFFFFFFFFFFFFFFF AND EQ PUSH2 0x7B3 JUMPI PUSH1 0x40 MLOAD PUSH32 0x8C379A000000000000000000000000000000000000000000000000000000000 DUP2 MSTORE PUSH1 0x4 ADD PUSH2 0x7AA SWAP1 PUSH2 0x2F67 JUMP JUMPDEST PUSH1 0x40 MLOAD DUP1 SWAP2 SUB SWAP1 REVERT JUMPDEST DUP3 PUSH1 0x3 PUSH1 0x0 DUP7 DUP2 MSTORE PUSH1 0x20 ADD SWAP1 DUP2 MSTORE PUSH1 0x20 ADD PUSH1 0x0 KECCAK256 PUSH1 0x3 ADD PUSH1 0x0 PUSH2 0x100 EXP DUP2 SLOAD DUP2 PUSH4 0xFFFFFFFF MUL NOT AND SWAP1 DUP4 PUSH4 0xFFFFFFFF AND MUL OR SWAP1 SSTORE POP DUP2 PUSH1 0x3 PUSH1 0x0 DUP7 DUP2 MSTORE PUSH1 0x20 ADD SWAP1 DUP2 MSTORE PUSH1 0x20 ADD PUSH1 0x0 KECCAK256 PUSH1 0x3 ADD PUSH1 0x4 PUSH2 0x100 EXP DUP2 SLOAD DUP2 PUSH4 0xFFFFFFFF MUL NOT AND SWAP1 DUP4 PUSH4 0xFFFFFFFF AND MUL OR SWAP1 SSTORE POP PUSH1 0x1 PUSH1 0x3 PUSH1 0x0 DUP7 DUP2 MSTORE PUSH1 0x20 ADD SWAP1 DUP2 MSTORE PUSH1 0x20 ADD PUSH1 0x0 KECCAK256 PUSH1 0x3 ADD PUSH1 0x8 PUSH2 0x100 EXP DUP2 SLOAD DUP2 PUSH1 0xFF MUL NOT AND SWAP1 DUP4 ISZERO ISZERO MUL OR SWAP1 SSTORE POP PUSH1 0x1 SWAP1 POP SWAP4 SWAP3 POP POP POP JUMP JUMPDEST PUSH1 0x0 DUP1 PUSH1 0x0 SWAP1 SLOAD SWAP1 PUSH2 0x100 EXP SWAP1 DIV PUSH20 0xFFFFFFFFFFFFFFFFFFFFFFFFFFFFFFFFFFFFFFFF AND SWAP1 POP SWAP1 JUMP JUMPDEST PUSH1 0x60 PUSH1 0x0 DUP1 PUSH1 0x0 PUSH1 0x3 PUSH1 0x0 DUP9 DUP2 MSTORE PUSH1 0x20 ADD SWAP1 DUP2 MSTORE PUSH1 0x20 ADD PUSH1 0x0 KECCAK256 PUSH1 0x4 ADD SWAP1 POP PUSH2 0x8F9 DUP2 DUP1 SLOAD DUP1 PUSH1 0x20 MUL PUSH1 0x20 ADD PUSH1 0x40 MLOAD SWAP1 DUP2 ADD PUSH1 0x40 MSTORE DUP1 SWAP3 SWAP2 SWAP1 DUP2 DUP2 MSTORE PUSH1 0x20 ADD DUP3 DUP1 SLOAD DUP1 ISZERO PUSH2 0x8ED JUMPI PUSH1 0x20 MUL DUP3 ADD SWAP2 SWAP1 PUSH1 0x0 MSTORE PUSH1 0x20 PUSH1 0x0 KECCAK256 SWAP1 JUMPDEST DUP2 SLOAD DUP2 MSTORE PUSH1 0x20 ADD SWAP1 PUSH1 0x1 ADD SWAP1 DUP1 DUP4 GT PUSH2 0x8D9 JUMPI JUMPDEST POP POP POP POP POP DUP8 DUP8 PUSH2 0x1C42 JUMP JUMPDEST SWAP4 POP SWAP4 POP SWAP4 POP POP SWAP4 POP SWAP4 POP SWAP4 SWAP1 POP JUMP JUMPDEST PUSH1 0x0 PUSH1 0x4 PUSH1 0x0 DUP5 DUP2 MSTORE PUSH1 0x20 ADD SWAP1 DUP2 MSTORE PUSH1 0x20 ADD PUSH1 0x0 KECCAK256 PUSH1 0x3 ADD PUSH1 0x0 DUP4 PUSH20 0xFFFFFFFFFFFFFFFFFFFFFFFFFFFFFFFFFFFFFFFF AND PUSH20 0xFFFFFFFFFFFFFFFFFFFFFFFFFFFFFFFFFFFFFFFF AND DUP2 MSTORE PUSH1 0x20 ADD SWAP1 DUP2 MSTORE PUSH1 0x20 ADD PUSH1 0x0 KECCAK256 SLOAD SWAP1 POP SWAP3 SWAP2 POP POP JUMP JUMPDEST PUSH1 0x60 PUSH1 0x0 DUP1 PUSH1 0x0 DUP1 PUSH2 0x97C PUSH1 0x2 SLOAD DUP9 DUP9 PUSH2 0x22FD JUMP JUMPDEST DUP1 SWAP7 POP DUP2 SWAP8 POP DUP3 SWAP5 POP DUP4 SWAP6 POP POP POP POP POP DUP4 PUSH2 0x998 JUMPI POP POP PUSH2 0xD8D JUMP JUMPDEST PUSH1 0x0 PUSH1 0x1 DUP3 DUP5 PUSH2 0x9A8 SWAP2 SWAP1 PUSH2 0x3300 JUMP JUMPDEST PUSH2 0x9B2 SWAP2 SWAP1 PUSH2 0x32CC JUMP JUMPDEST SWAP1 POP DUP1 PUSH8 0xFFFFFFFFFFFFFFFF DUP2 GT ISZERO PUSH2 0x9CE JUMPI PUSH2 0x9CD PUSH2 0x2F92 JUMP JUMPDEST JUMPDEST PUSH1 0x40 MLOAD SWAP1 DUP1 DUP3 MSTORE DUP1 PUSH1 0x20 MUL PUSH1 0x20 ADD DUP3 ADD PUSH1 0x40 MSTORE DUP1 ISZERO PUSH2 0xA07 JUMPI DUP2 PUSH1 0x20 ADD JUMPDEST PUSH2 0x9F4 PUSH2 0x2542 JUMP JUMPDEST DUP2 MSTORE PUSH1 0x20 ADD SWAP1 PUSH1 0x1 SWAP1 SUB SWAP1 DUP2 PUSH2 0x9EC JUMPI SWAP1 POP JUMPDEST POP SWAP6 POP PUSH1 0x0 DUP4 SWAP1 POP JUMPDEST DUP3 DUP2 LT PUSH2 0xD7E JUMPI PUSH1 0x0 DUP2 DUP6 PUSH2 0xA25 SWAP2 SWAP1 PUSH2 0x3300 JUMP JUMPDEST SWAP1 POP PUSH1 0x3 PUSH1 0x0 DUP4 DUP2 MSTORE PUSH1 0x20 ADD SWAP1 DUP2 MSTORE PUSH1 0x20 ADD PUSH1 0x0 KECCAK256 PUSH1 0x0 ADD SLOAD DUP9 DUP3 DUP2 MLOAD DUP2 LT PUSH2 0xA51 JUMPI PUSH2 0xA50 PUSH2 0x3334 JUMP JUMPDEST JUMPDEST PUSH1 0x20 MUL PUSH1 0x20 ADD ADD MLOAD PUSH1 0x0 ADD DUP2 DUP2 MSTORE POP POP PUSH1 0x3 PUSH1 0x0 DUP4 DUP2 MSTORE PUSH1 0x20 ADD SWAP1 DUP2 MSTORE PUSH1 0x20 ADD PUSH1 0x0 KECCAK256 PUSH1 0x1 ADD DUP1 SLOAD PUSH2 0xA82 SWAP1 PUSH2 0x2FF0 JUMP JUMPDEST DUP1 PUSH1 0x1F ADD PUSH1 0x20 DUP1 SWAP2 DIV MUL PUSH1 0x20 ADD PUSH1 0x40 MLOAD SWAP1 DUP2 ADD PUSH1 0x40 MSTORE DUP1 SWAP3 SWAP2 SWAP1 DUP2 DUP2 MSTORE PUSH1 0x20 ADD DUP3 DUP1 SLOAD PUSH2 0xAAE SWAP1 PUSH2 0x2FF0 JUMP JUMPDEST DUP1 ISZERO PUSH2 0xAFB JUMPI DUP1 PUSH1 0x1F LT PUSH2 0xAD0 JUMPI PUSH2 0x100 DUP1 DUP4 SLOAD DIV MUL DUP4 MSTORE SWAP2 PUSH1 0x20 ADD SWAP2 PUSH2 0xAFB JUMP JUMPDEST DUP3 ADD SWAP2 SWAP1 PUSH1 0x0 MSTORE PUSH1 0x20 PUSH1 0x0 KECCAK256 SWAP1 JUMPDEST DUP2 SLOAD DUP2 MSTORE SWAP1 PUSH1 0x1 ADD SWAP1 PUSH1 0x20 ADD DUP1 DUP4 GT PUSH2 0xADE JUMPI DUP3 SWAP1 SUB PUSH1 0x1F AND DUP3 ADD SWAP2 JUMPDEST POP POP POP POP POP DUP9 DUP3 DUP2 MLOAD DUP2 LT PUSH2 0xB13 JUMPI PUSH2 0xB12 PUSH2 0x3334 JUMP JUMPDEST JUMPDEST PUSH1 0x20 MUL PUSH1 0x20 ADD ADD MLOAD PUSH1 0x20 ADD DUP2 SWAP1 MSTORE POP PUSH1 0x3 PUSH1 0x0 DUP4 DUP2 MSTORE PUSH1 0x20 ADD SWAP1 DUP2 MSTORE PUSH1 0x20 ADD PUSH1 0x0 KECCAK256 PUSH1 0x2 ADD DUP1 SLOAD PUSH2 0xB43 SWAP1 PUSH2 0x2FF0 JUMP JUMPDEST DUP1 PUSH1 0x1F ADD PUSH1 0x20 DUP1 SWAP2 DIV MUL PUSH1 0x20 ADD PUSH1 0x40 MLOAD SWAP1 DUP2 ADD PUSH1 0x40 MSTORE DUP1 SWAP3 SWAP2 SWAP1 DUP2 DUP2 MSTORE PUSH1 0x20 ADD DUP3 DUP1 SLOAD PUSH2 0xB6F SWAP1 PUSH2 0x2FF0 JUMP JUMPDEST DUP1 ISZERO PUSH2 0xBBC JUMPI DUP1 PUSH1 0x1F LT PUSH2 0xB91 JUMPI PUSH2 0x100 DUP1 DUP4 SLOAD DIV MUL DUP4 MSTORE SWAP2 PUSH1 0x20 ADD SWAP2 PUSH2 0xBBC JUMP JUMPDEST DUP3 ADD SWAP2 SWAP1 PUSH1 0x0 MSTORE PUSH1 0x20 PUSH1 0x0 KECCAK256 SWAP1 JUMPDEST DUP2 SLOAD DUP2 MSTORE SWAP1 PUSH1 0x1 ADD SWAP1 PUSH1 0x20 ADD DUP1 DUP4 GT PUSH2 0xB9F JUMPI DUP3 SWAP1 SUB PUSH1 0x1F AND DUP3 ADD SWAP2 JUMPDEST POP POP POP POP POP DUP9 DUP3 DUP2 MLOAD DUP2 LT PUSH2 0xBD4 JUMPI PUSH2 0xBD3 PUSH2 0x3334 JUMP JUMPDEST JUMPDEST PUSH1 0x20 MUL PUSH1 0x20 ADD ADD MLOAD PUSH1 0x40 ADD DUP2 SWAP1 MSTORE POP PUSH1 0x3 PUSH1 0x0 DUP4 DUP2 MSTORE PUSH1 0x20 ADD SWAP1 DUP2 MSTORE PUSH1 0x20 ADD PUSH1 0x0 KECCAK256 PUSH1 0x3 ADD PUSH1 0x0 SWAP1 SLOAD SWAP1 PUSH2 0x100 EXP SWAP1 DIV PUSH4 0xFFFFFFFF AND DUP9 DUP3 DUP2 MLOAD DUP2 LT PUSH2 0xC1D JUMPI PUSH2 0xC1C PUSH2 0x3334 JUMP JUMPDEST JUMPDEST PUSH1 0x20 MUL PUSH1 0x20 ADD ADD MLOAD PUSH1 0x60 ADD SWAP1 PUSH4 0xFFFFFFFF AND SWAP1 DUP2 PUSH4 0xFFFFFFFF AND DUP2 MSTORE POP POP PUSH1 0x3 PUSH1 0x0 DUP4 DUP2 MSTORE PUSH1 0x20 ADD SWAP1 DUP2 MSTORE PUSH1 0x20 ADD PUSH1 0x0 KECCAK256 PUSH1 0x3 ADD PUSH1 0x4 SWAP1 SLOAD SWAP1 PUSH2 0x100 EXP SWAP1 DIV PUSH4 0xFFFFFFFF AND DUP9 DUP3 DUP2 MLOAD DUP2 LT PUSH2 0xC75 JUMPI PUSH2 0xC74 PUSH2 0x3334 JUMP JUMPDEST JUMPDEST PUSH1 0x20 MUL PUSH1 0x20 ADD ADD MLOAD PUSH1 0x80 ADD SWAP1 PUSH4 0xFFFFFFFF AND SWAP1 DUP2 PUSH4 0xFFFFFFFF AND DUP2 MSTORE POP POP PUSH1 0x3 PUSH1 0x0 DUP4 DUP2 MSTORE PUSH1 0x20 ADD SWAP1 DUP2 MSTORE PUSH1 0x20 ADD PUSH1 0x0 KECCAK256 PUSH1 0x3 ADD PUSH1 0x8 SWAP1 SLOAD SWAP1 PUSH2 0x100 EXP SWAP1 DIV PUSH1 0xFF AND DUP9 DUP3 DUP2 MLOAD DUP2 LT PUSH2 0xCCA JUMPI PUSH2 0xCC9 PUSH2 0x3334 JUMP JUMPDEST JUMPDEST PUSH1 0x20 MUL PUSH1 0x20 ADD ADD MLOAD PUSH1 0xA0 ADD SWAP1 ISZERO ISZERO SWAP1 DUP2 ISZERO ISZERO DUP2 MSTORE POP POP PUSH1 0x3 PUSH1 0x0 DUP4 DUP2 MSTORE PUSH1 0x20 ADD SWAP1 DUP2 MSTORE PUSH1 0x20 ADD PUSH1 0x0 KECCAK256 PUSH1 0x3 ADD PUSH1 0x9 SWAP1 SLOAD SWAP1 PUSH2 0x100 EXP SWAP1 DIV PUSH1 0xFF AND DUP9 DUP3 DUP2 MLOAD DUP2 LT PUSH2 0xD17 JUMPI PUSH2 0xD16 PUSH2 0x3334 JUMP JUMPDEST JUMPDEST PUSH1 0x20 MUL PUSH1 0x20 ADD ADD MLOAD PUSH1 0xC0 ADD SWAP1 ISZERO ISZERO SWAP1 DUP2 ISZERO ISZERO DUP2 MSTORE POP POP PUSH1 0x3 PUSH1 0x0 DUP4 DUP2 MSTORE PUSH1 0x20 ADD SWAP1 DUP2 MSTORE PUSH1 0x20 ADD PUSH1 0x0 KECCAK256 PUSH1 0x4 ADD DUP1 SLOAD SWAP1 POP DUP9 DUP3 DUP2 MLOAD DUP2 LT PUSH2 0xD5A JUMPI PUSH2 0xD59 PUSH2 0x3334 JUMP JUMPDEST JUMPDEST PUSH1 0x20 MUL PUSH1 0x20 ADD ADD MLOAD PUSH1 0xE0 ADD DUP2 DUP2 MSTORE POP POP POP DUP1 DUP1 PUSH2 0xD76 SWAP1 PUSH2 0x3363 JUMP JUMPDEST SWAP2 POP POP PUSH2 0xA10 JUMP JUMPDEST POP PUSH1 0x1 SWAP5 POP PUSH1 0x0 DUP3 GT SWAP4 POP POP POP POP JUMPDEST SWAP3 POP SWAP3 POP SWAP3 JUMP JUMPDEST PUSH1 0x0 DUP1 SLOAD SWAP1 PUSH2 0x100 EXP SWAP1 DIV PUSH20 0xFFFFFFFFFFFFFFFFFFFFFFFFFFFFFFFFFFFFFFFF AND PUSH20 0xFFFFFFFFFFFFFFFFFFFFFFFFFFFFFFFFFFFFFFFF AND CALLER PUSH20 0xFFFFFFFFFFFFFFFFFFFFFFFFFFFFFFFFFFFFFFFF AND EQ PUSH2 0xE22 JUMPI PUSH1 0x40 MLOAD PUSH32 0x8C379A000000000000000000000000000000000000000000000000000000000 DUP2 MSTORE PUSH1 0x4 ADD PUSH2 0xE19 SWAP1 PUSH2 0x2F67 JUMP JUMPDEST PUSH1 0x40 MLOAD DUP1 SWAP2 SUB SWAP1 REVERT JUMPDEST DUP1 PUSH1 0x0 DUP1 PUSH2 0x100 EXP DUP2 SLOAD DUP2 PUSH20 0xFFFFFFFFFFFFFFFFFFFFFFFFFFFFFFFFFFFFFFFF MUL NOT AND SWAP1 DUP4 PUSH20 0xFFFFFFFFFFFFFFFFFFFFFFFFFFFFFFFFFFFFFFFF AND MUL OR SWAP1 SSTORE POP POP JUMP JUMPDEST PUSH1 0x0 PUSH1 0x3 PUSH1 0x0 PUSH1 0x4 PUSH1 0x0 DUP6 DUP2 MSTORE PUSH1 0x20 ADD SWAP1 DUP2 MSTORE PUSH1 0x20 ADD PUSH1 0x0 KECCAK256 PUSH1 0x1 ADD SLOAD DUP2 MSTORE PUSH1 0x20 ADD SWAP1 DUP2 MSTORE PUSH1 0x20 ADD PUSH1 0x0 KECCAK256 PUSH1 0x3 ADD PUSH1 0x8 SWAP1 SLOAD SWAP1 PUSH2 0x100 EXP SWAP1 DIV PUSH1 0xFF AND ISZERO PUSH2 0xEE1 JUMPI PUSH1 0x40 MLOAD PUSH32 0x8C379A000000000000000000000000000000000000000000000000000000000 DUP2 MSTORE PUSH1 0x4 ADD PUSH2 0xED8 SWAP1 PUSH2 0x33D8 JUMP JUMPDEST PUSH1 0x40 MLOAD DUP1 SWAP2 SUB SWAP1 REVERT JUMPDEST CALLVALUE PUSH1 0x4 PUSH1 0x0 DUP5 DUP2 MSTORE PUSH1 0x20 ADD SWAP1 DUP2 MSTORE PUSH1 0x20 ADD PUSH1 0x0 KECCAK256 PUSH1 0x3 ADD PUSH1 0x0 CALLER PUSH20 0xFFFFFFFFFFFFFFFFFFFFFFFFFFFFFFFFFFFFFFFF AND PUSH20 0xFFFFFFFFFFFFFFFFFFFFFFFFFFFFFFFFFFFFFFFF AND DUP2 MSTORE PUSH1 0x20 ADD SWAP1 DUP2 MSTORE PUSH1 0x20 ADD PUSH1 0x0 KECCAK256 PUSH1 0x0 DUP3 DUP3 SLOAD PUSH2 0xF44 SWAP2 SWAP1 PUSH2 0x32CC JUMP JUMPDEST SWAP3 POP POP DUP2 SWAP1 SSTORE POP CALLVALUE PUSH1 0x4 PUSH1 0x0 DUP5 DUP2 MSTORE PUSH1 0x20 ADD SWAP1 DUP2 MSTORE PUSH1 0x20 ADD PUSH1 0x0 KECCAK256 PUSH1 0x4 ADD PUSH1 0x0 DUP3 DUP3 SLOAD PUSH2 0xF71 SWAP2 SWAP1 PUSH2 0x32CC JUMP JUMPDEST SWAP3 POP POP DUP2 SWAP1 SSTORE POP PUSH1 0x6 PUSH1 0x0 CALLER PUSH20 0xFFFFFFFFFFFFFFFFFFFFFFFFFFFFFFFFFFFFFFFF AND PUSH20 0xFFFFFFFFFFFFFFFFFFFFFFFFFFFFFFFFFFFFFFFF AND DUP2 MSTORE PUSH1 0x20 ADD SWAP1 DUP2 MSTORE PUSH1 0x20 ADD PUSH1 0x0 KECCAK256 PUSH1 0x4 PUSH1 0x0 PUSH1 0x1 SLOAD DUP2 MSTORE PUSH1 0x20 ADD SWAP1 DUP2 MSTORE PUSH1 0x20 ADD PUSH1 0x0 KECCAK256 PUSH1 0x0 ADD SLOAD SWAP1 DUP1 PUSH1 0x1 DUP2 SLOAD ADD DUP1 DUP3 SSTORE DUP1 SWAP2 POP POP PUSH1 0x1 SWAP1 SUB SWAP1 PUSH1 0x0 MSTORE PUSH1 0x20 PUSH1 0x0 KECCAK256 ADD PUSH1 0x0 SWAP1 SWAP2 SWAP1 SWAP2 SWAP1 SWAP2 POP SSTORE PUSH1 0x1 SWAP1 POP SWAP2 SWAP1 POP JUMP JUMPDEST PUSH1 0x0 PUSH1 0x3 PUSH1 0x0 DUP6 DUP2 MSTORE PUSH1 0x20 ADD SWAP1 DUP2 MSTORE PUSH1 0x20 ADD PUSH1 0x0 KECCAK256 PUSH1 0x3 ADD PUSH1 0x9 SWAP1 SLOAD SWAP1 PUSH2 0x100 EXP SWAP1 DIV PUSH1 0xFF AND PUSH2 0x1064 JUMPI PUSH1 0x40 MLOAD PUSH32 0x8C379A000000000000000000000000000000000000000000000000000000000 DUP2 MSTORE PUSH1 0x4 ADD PUSH2 0x105B SWAP1 PUSH2 0x3444 JUMP JUMPDEST PUSH1 0x40 MLOAD DUP1 SWAP2 SUB SWAP1 REVERT JUMPDEST PUSH1 0x3 PUSH1 0x0 DUP6 DUP2 MSTORE PUSH1 0x20 ADD SWAP1 DUP2 MSTORE PUSH1 0x20 ADD PUSH1 0x0 KECCAK256 PUSH1 0x3 ADD PUSH1 0x8 SWAP1 SLOAD SWAP1 PUSH2 0x100 EXP SWAP1 DIV PUSH1 0xFF AND ISZERO PUSH2 0x10C8 JUMPI PUSH1 0x40 MLOAD PUSH32 0x8C379A000000000000000000000000000000000000000000000000000000000 DUP2 MSTORE PUSH1 0x4 ADD PUSH2 0x10BF SWAP1 PUSH2 0x34B0 JUMP JUMPDEST PUSH1 0x40 MLOAD DUP1 SWAP2 SUB SWAP1 REVERT JUMPDEST PUSH1 0x1 SLOAD PUSH1 0x4 PUSH1 0x0 PUSH1 0x1 SLOAD DUP2 MSTORE PUSH1 0x20 ADD SWAP1 DUP2 MSTORE PUSH1 0x20 ADD PUSH1 0x0 KECCAK256 PUSH1 0x0 ADD DUP2 SWAP1 SSTORE POP DUP4 PUSH1 0x4 PUSH1 0x0 PUSH1 0x1 SLOAD DUP2 MSTORE PUSH1 0x20 ADD SWAP1 DUP2 MSTORE PUSH1 0x20 ADD PUSH1 0x0 KECCAK256 PUSH1 0x1 ADD DUP2 SWAP1 SSTORE POP DUP3 PUSH1 0x4 PUSH1 0x0 PUSH1 0x1 SLOAD DUP2 MSTORE PUSH1 0x20 ADD SWAP1 DUP2 MSTORE PUSH1 0x20 ADD PUSH1 0x0 KECCAK256 PUSH1 0x2 ADD PUSH1 0x0 PUSH2 0x100 EXP DUP2 SLOAD DUP2 PUSH4 0xFFFFFFFF MUL NOT AND SWAP1 DUP4 PUSH4 0xFFFFFFFF AND MUL OR SWAP1 SSTORE POP DUP2 PUSH1 0x4 PUSH1 0x0 PUSH1 0x1 SLOAD DUP2 MSTORE PUSH1 0x20 ADD SWAP1 DUP2 MSTORE PUSH1 0x20 ADD PUSH1 0x0 KECCAK256 PUSH1 0x2 ADD PUSH1 0x4 PUSH2 0x100 EXP DUP2 SLOAD DUP2 PUSH4 0xFFFFFFFF MUL NOT AND SWAP1 DUP4 PUSH4 0xFFFFFFFF AND MUL OR SWAP1 SSTORE POP CALLVALUE PUSH1 0x4 PUSH1 0x0 PUSH1 0x1 SLOAD DUP2 MSTORE PUSH1 0x20 ADD SWAP1 DUP2 MSTORE PUSH1 0x20 ADD PUSH1 0x0 KECCAK256 PUSH1 0x3 ADD PUSH1 0x0 CALLER PUSH20 0xFFFFFFFFFFFFFFFFFFFFFFFFFFFFFFFFFFFFFFFF AND PUSH20 0xFFFFFFFFFFFFFFFFFFFFFFFFFFFFFFFFFFFFFFFF AND DUP2 MSTORE PUSH1 0x20 ADD SWAP1 DUP2 MSTORE PUSH1 0x20 ADD PUSH1 0x0 KECCAK256 DUP2 SWAP1 SSTORE POP CALLVALUE PUSH1 0x4 PUSH1 0x0 PUSH1 0x1 SLOAD DUP2 MSTORE PUSH1 0x20 ADD SWAP1 DUP2 MSTORE PUSH1 0x20 ADD PUSH1 0x0 KECCAK256 PUSH1 0x4 ADD DUP2 SWAP1 SSTORE POP PUSH1 0x1 PUSH1 0x4 PUSH1 0x0 PUSH1 0x1 SLOAD DUP2 MSTORE PUSH1 0x20 ADD SWAP1 DUP2 MSTORE PUSH1 0x20 ADD PUSH1 0x0 KECCAK256 PUSH1 0x9 ADD PUSH1 0x0 PUSH2 0x100 EXP DUP2 SLOAD DUP2 PUSH1 0xFF MUL NOT AND SWAP1 DUP4 ISZERO ISZERO MUL OR SWAP1 SSTORE POP PUSH1 0x1 PUSH1 0x4 PUSH1 0x0 PUSH1 0x1 SLOAD DUP2 MSTORE PUSH1 0x20 ADD SWAP1 DUP2 MSTORE PUSH1 0x20 ADD PUSH1 0x0 KECCAK256 PUSH1 0x6 ADD PUSH1 0x2 ADD PUSH1 0x1 PUSH2 0x100 EXP DUP2 SLOAD DUP2 PUSH1 0xFF MUL NOT AND SWAP1 DUP4 ISZERO ISZERO MUL OR SWAP1 SSTORE POP PUSH1 0x3 PUSH1 0x0 DUP6 DUP2 MSTORE PUSH1 0x20 ADD SWAP1 DUP2 MSTORE PUSH1 0x20 ADD PUSH1 0x0 KECCAK256 PUSH1 0x4 ADD PUSH1 0x4 PUSH1 0x0 PUSH1 0x1 SLOAD DUP2 MSTORE PUSH1 0x20 ADD SWAP1 DUP2 MSTORE PUSH1 0x20 ADD PUSH1 0x0 KECCAK256 PUSH1 0x0 ADD SLOAD SWAP1 DUP1 PUSH1 0x1 DUP2 SLOAD ADD DUP1 DUP3 SSTORE DUP1 SWAP2 POP POP PUSH1 0x1 SWAP1 SUB SWAP1 PUSH1 0x0 MSTORE PUSH1 0x20 PUSH1 0x0 KECCAK256 ADD PUSH1 0x0 SWAP1 SWAP2 SWAP1 SWAP2 SWAP1 SWAP2 POP SSTORE PUSH1 0x6 PUSH1 0x0 CALLER PUSH20 0xFFFFFFFFFFFFFFFFFFFFFFFFFFFFFFFFFFFFFFFF AND PUSH20 0xFFFFFFFFFFFFFFFFFFFFFFFFFFFFFFFFFFFFFFFF AND DUP2 MSTORE PUSH1 0x20 ADD SWAP1 DUP2 MSTORE PUSH1 0x20 ADD PUSH1 0x0 KECCAK256 PUSH1 0x4 PUSH1 0x0 PUSH1 0x1 SLOAD DUP2 MSTORE PUSH1 0x20 ADD SWAP1 DUP2 MSTORE PUSH1 0x20 ADD PUSH1 0x0 KECCAK256 PUSH1 0x0 ADD SLOAD SWAP1 DUP1 PUSH1 0x1 DUP2 SLOAD ADD DUP1 DUP3 SSTORE DUP1 SWAP2 POP POP PUSH1 0x1 SWAP1 SUB SWAP1 PUSH1 0x0 MSTORE PUSH1 0x20 PUSH1 0x0 KECCAK256 ADD PUSH1 0x0 SWAP1 SWAP2 SWAP1 SWAP2 SWAP1 SWAP2 POP SSTORE PUSH1 0x1 DUP1 PUSH1 0x0 DUP3 DUP3 SLOAD PUSH2 0x1333 SWAP2 SWAP1 PUSH2 0x32CC JUMP JUMPDEST SWAP3 POP POP DUP2 SWAP1 SSTORE POP PUSH1 0x4 PUSH1 0x0 PUSH1 0x1 SLOAD DUP2 MSTORE PUSH1 0x20 ADD SWAP1 DUP2 MSTORE PUSH1 0x20 ADD PUSH1 0x0 KECCAK256 PUSH1 0x0 ADD SLOAD SWAP1 POP SWAP4 SWAP3 POP POP POP JUMP JUMPDEST PUSH1 0x0 DUP1 PUSH1 0x4 PUSH1 0x0 DUP5 DUP2 MSTORE PUSH1 0x20 ADD SWAP1 DUP2 MSTORE PUSH1 0x20 ADD PUSH1 0x0 KECCAK256 SWAP1 POP PUSH1 0x0 PUSH1 0x3 PUSH1 0x0 DUP4 PUSH1 0x1 ADD SLOAD DUP2 MSTORE PUSH1 0x20 ADD SWAP1 DUP2 MSTORE PUSH1 0x20 ADD PUSH1 0x0 KECCAK256 SWAP1 POP DUP2 PUSH1 0x9 ADD PUSH1 0x0 SWAP1 SLOAD SWAP1 PUSH2 0x100 EXP SWAP1 DIV PUSH1 0xFF AND PUSH2 0x13E0 JUMPI PUSH1 0x40 MLOAD PUSH32 0x8C379A000000000000000000000000000000000000000000000000000000000 DUP2 MSTORE PUSH1 0x4 ADD PUSH2 0x13D7 SWAP1 PUSH2 0x351C JUMP JUMPDEST PUSH1 0x40 MLOAD DUP1 SWAP2 SUB SWAP1 REVERT JUMPDEST DUP1 PUSH1 0x3 ADD PUSH1 0x8 SWAP1 SLOAD SWAP1 PUSH2 0x100 EXP SWAP1 DIV PUSH1 0xFF AND PUSH2 0x1431 JUMPI PUSH1 0x40 MLOAD PUSH32 0x8C379A000000000000000000000000000000000000000000000000000000000 DUP2 MSTORE PUSH1 0x4 ADD PUSH2 0x1428 SWAP1 PUSH2 0x3588 JUMP JUMPDEST PUSH1 0x40 MLOAD DUP1 SWAP2 SUB SWAP1 REVERT JUMPDEST DUP2 PUSH1 0x5 ADD PUSH1 0x0 CALLER PUSH20 0xFFFFFFFFFFFFFFFFFFFFFFFFFFFFFFFFFFFFFFFF AND PUSH20 0xFFFFFFFFFFFFFFFFFFFFFFFFFFFFFFFFFFFFFFFF AND DUP2 MSTORE PUSH1 0x20 ADD SWAP1 DUP2 MSTORE PUSH1 0x20 ADD PUSH1 0x0 KECCAK256 PUSH1 0x2 ADD PUSH1 0x0 SWAP1 SLOAD SWAP1 PUSH2 0x100 EXP SWAP1 DIV PUSH1 0xFF AND ISZERO PUSH2 0x14C3 JUMPI PUSH1 0x40 MLOAD PUSH32 0x8C379A000000000000000000000000000000000000000000000000000000000 DUP2 MSTORE PUSH1 0x4 ADD PUSH2 0x14BA SWAP1 PUSH2 0x35F4 JUMP JUMPDEST PUSH1 0x40 MLOAD DUP1 SWAP2 SUB SWAP1 REVERT JUMPDEST PUSH1 0x1 DUP3 PUSH1 0x5 ADD PUSH1 0x0 CALLER PUSH20 0xFFFFFFFFFFFFFFFFFFFFFFFFFFFFFFFFFFFFFFFF AND PUSH20 0xFFFFFFFFFFFFFFFFFFFFFFFFFFFFFFFFFFFFFFFF AND DUP2 MSTORE PUSH1 0x20 ADD SWAP1 DUP2 MSTORE PUSH1 0x20 ADD PUSH1 0x0 KECCAK256 PUSH1 0x2 ADD PUSH1 0x0 PUSH2 0x100 EXP DUP2 SLOAD DUP2 PUSH1 0xFF MUL NOT AND SWAP1 DUP4 ISZERO ISZERO MUL OR SWAP1 SSTORE POP PUSH1 0x0 DUP3 PUSH1 0x2 ADD PUSH1 0x0 SWAP1 SLOAD SWAP1 PUSH2 0x100 EXP SWAP1 DIV PUSH4 0xFFFFFFFF AND DUP3 PUSH1 0x3 ADD PUSH1 0x0 SWAP1 SLOAD SWAP1 PUSH2 0x100 EXP SWAP1 DIV PUSH4 0xFFFFFFFF AND PUSH2 0x1556 SWAP2 SWAP1 PUSH2 0x3614 JUMP JUMPDEST SWAP1 POP PUSH1 0x0 DUP4 PUSH1 0x2 ADD PUSH1 0x4 SWAP1 SLOAD SWAP1 PUSH2 0x100 EXP SWAP1 DIV PUSH4 0xFFFFFFFF AND DUP4 PUSH1 0x3 ADD PUSH1 0x4 SWAP1 SLOAD SWAP1 PUSH2 0x100 EXP SWAP1 DIV PUSH4 0xFFFFFFFF AND PUSH2 0x158E SWAP2 SWAP1 PUSH2 0x3614 JUMP JUMPDEST SWAP1 POP DUP1 PUSH4 0xFFFFFFFF AND DUP3 PUSH4 0xFFFFFFFF AND GT ISZERO PUSH2 0x1611 JUMPI PUSH1 0x0 PUSH1 0x2 DUP6 PUSH1 0x5 ADD PUSH1 0x0 CALLER PUSH20 0xFFFFFFFFFFFFFFFFFFFFFFFFFFFFFFFFFFFFFFFF AND PUSH20 0xFFFFFFFFFFFFFFFFFFFFFFFFFFFFFFFFFFFFFFFF AND DUP2 MSTORE PUSH1 0x20 ADD SWAP1 DUP2 MSTORE PUSH1 0x20 ADD PUSH1 0x0 KECCAK256 PUSH1 0x0 ADD SLOAD PUSH2 0x15F7 SWAP2 SWAP1 PUSH2 0x364C JUMP JUMPDEST SWAP1 POP PUSH2 0x1603 CALLER DUP3 PUSH2 0x23A9 JUMP JUMPDEST PUSH1 0x1 SWAP6 POP POP POP POP POP POP PUSH2 0x1737 JUMP JUMPDEST DUP1 PUSH4 0xFFFFFFFF AND DUP3 PUSH4 0xFFFFFFFF AND LT ISZERO PUSH2 0x1692 JUMPI PUSH1 0x0 PUSH1 0x2 DUP6 PUSH1 0x5 ADD PUSH1 0x0 CALLER PUSH20 0xFFFFFFFFFFFFFFFFFFFFFFFFFFFFFFFFFFFFFFFF AND PUSH20 0xFFFFFFFFFFFFFFFFFFFFFFFFFFFFFFFFFFFFFFFF AND DUP2 MSTORE PUSH1 0x20 ADD SWAP1 DUP2 MSTORE PUSH1 0x20 ADD PUSH1 0x0 KECCAK256 PUSH1 0x1 ADD SLOAD PUSH2 0x1678 SWAP2 SWAP1 PUSH2 0x364C JUMP JUMPDEST SWAP1 POP PUSH2 0x1684 CALLER DUP3 PUSH2 0x23A9 JUMP JUMPDEST PUSH1 0x1 SWAP6 POP POP POP POP POP POP PUSH2 0x1737 JUMP JUMPDEST PUSH2 0x16E0 CALLER DUP6 PUSH1 0x5 ADD PUSH1 0x0 CALLER PUSH20 0xFFFFFFFFFFFFFFFFFFFFFFFFFFFFFFFFFFFFFFFF AND PUSH20 0xFFFFFFFFFFFFFFFFFFFFFFFFFFFFFFFFFFFFFFFF AND DUP2 MSTORE PUSH1 0x20 ADD SWAP1 DUP2 MSTORE PUSH1 0x20 ADD PUSH1 0x0 KECCAK256 PUSH1 0x0 ADD SLOAD PUSH2 0x23A9 JUMP JUMPDEST PUSH2 0x172E CALLER DUP6 PUSH1 0x5 ADD PUSH1 0x0 CALLER PUSH20 0xFFFFFFFFFFFFFFFFFFFFFFFFFFFFFFFFFFFFFFFF AND PUSH20 0xFFFFFFFFFFFFFFFFFFFFFFFFFFFFFFFFFFFFFFFF AND DUP2 MSTORE PUSH1 0x20 ADD SWAP1 DUP2 MSTORE PUSH1 0x20 ADD PUSH1 0x0 KECCAK256 PUSH1 0x1 ADD SLOAD PUSH2 0x23A9 JUMP JUMPDEST PUSH1 0x1 SWAP5 POP POP POP POP POP JUMPDEST SWAP2 SWAP1 POP JUMP JUMPDEST PUSH1 0x0 PUSH1 0x4 PUSH1 0x0 DUP5 DUP2 MSTORE PUSH1 0x20 ADD SWAP1 DUP2 MSTORE PUSH1 0x20 ADD PUSH1 0x0 KECCAK256 PUSH1 0x9 ADD PUSH1 0x0 SWAP1 SLOAD SWAP1 PUSH2 0x100 EXP SWAP1 DIV PUSH1 0xFF AND PUSH2 0x17A1 JUMPI PUSH1 0x40 MLOAD PUSH32 0x8C379A000000000000000000000000000000000000000000000000000000000 DUP2 MSTORE PUSH1 0x4 ADD PUSH2 0x1798 SWAP1 PUSH2 0x36DA JUMP JUMPDEST PUSH1 0x40 MLOAD DUP1 SWAP2 SUB SWAP1 REVERT JUMPDEST PUSH2 0x17BE PUSH1 0x4 PUSH1 0x0 DUP6 DUP2 MSTORE PUSH1 0x20 ADD SWAP1 DUP2 MSTORE PUSH1 0x20 ADD PUSH1 0x0 KECCAK256 DUP4 CALLVALUE PUSH2 0x24A9 JUMP JUMPDEST PUSH2 0x17FD JUMPI PUSH1 0x40 MLOAD PUSH32 0x8C379A000000000000000000000000000000000000000000000000000000000 DUP2 MSTORE PUSH1 0x4 ADD PUSH2 0x17F4 SWAP1 PUSH2 0x3746 JUMP JUMPDEST PUSH1 0x40 MLOAD DUP1 SWAP2 SUB SWAP1 REVERT JUMPDEST PUSH1 0x3 PUSH1 0x0 PUSH1 0x4 PUSH1 0x0 DUP7 DUP2 MSTORE PUSH1 0x20 ADD SWAP1 DUP2 MSTORE PUSH1 0x20 ADD PUSH1 0x0 KECCAK256 PUSH1 0x1 ADD SLOAD DUP2 MSTORE PUSH1 0x20 ADD SWAP1 DUP2 MSTORE PUSH1 0x20 ADD PUSH1 0x0 KECCAK256 PUSH1 0x3 ADD PUSH1 0x8 SWAP1 SLOAD SWAP1 PUSH2 0x100 EXP SWAP1 DIV PUSH1 0xFF AND ISZERO PUSH2 0x1877 JUMPI PUSH1 0x40 MLOAD PUSH32 0x8C379A000000000000000000000000000000000000000000000000000000000 DUP2 MSTORE PUSH1 0x4 ADD PUSH2 0x186E SWAP1 PUSH2 0x33D8 JUMP JUMPDEST PUSH1 0x40 MLOAD DUP1 SWAP2 SUB SWAP1 REVERT JUMPDEST PUSH1 0x4 PUSH1 0x0 DUP5 DUP2 MSTORE PUSH1 0x20 ADD SWAP1 DUP2 MSTORE PUSH1 0x20 ADD PUSH1 0x0 KECCAK256 PUSH1 0x5 ADD PUSH1 0x0 CALLER PUSH20 0xFFFFFFFFFFFFFFFFFFFFFFFFFFFFFFFFFFFFFFFF AND PUSH20 0xFFFFFFFFFFFFFFFFFFFFFFFFFFFFFFFFFFFFFFFF AND DUP2 MSTORE PUSH1 0x20 ADD SWAP1 DUP2 MSTORE PUSH1 0x20 ADD PUSH1 0x0 KECCAK256 PUSH1 0x2 ADD PUSH1 0x1 SWAP1 SLOAD SWAP1 PUSH2 0x100 EXP SWAP1 DIV PUSH1 0xFF AND PUSH2 0x191A JUMPI PUSH1 0x40 MLOAD PUSH32 0x8C379A000000000000000000000000000000000000000000000000000000000 DUP2 MSTORE PUSH1 0x4 ADD PUSH2 0x1911 SWAP1 PUSH2 0x37D8 JUMP JUMPDEST PUSH1 0x40 MLOAD DUP1 SWAP2 SUB SWAP1 REVERT JUMPDEST DUP2 ISZERO PUSH2 0x1A0C JUMPI CALLVALUE PUSH1 0x4 PUSH1 0x0 DUP6 DUP2 MSTORE PUSH1 0x20 ADD SWAP1 DUP2 MSTORE PUSH1 0x20 ADD PUSH1 0x0 KECCAK256 PUSH1 0x5 ADD PUSH1 0x0 CALLER PUSH20 0xFFFFFFFFFFFFFFFFFFFFFFFFFFFFFFFFFFFFFFFF AND PUSH20 0xFFFFFFFFFFFFFFFFFFFFFFFFFFFFFFFFFFFFFFFF AND DUP2 MSTORE PUSH1 0x20 ADD SWAP1 DUP2 MSTORE PUSH1 0x20 ADD PUSH1 0x0 KECCAK256 PUSH1 0x0 ADD DUP2 SWAP1 SSTORE POP PUSH1 0x0 PUSH1 0x4 PUSH1 0x0 DUP6 DUP2 MSTORE PUSH1 0x20 ADD SWAP1 DUP2 MSTORE PUSH1 0x20 ADD PUSH1 0x0 KECCAK256 PUSH1 0x5 ADD PUSH1 0x0 CALLER PUSH20 0xFFFFFFFFFFFFFFFFFFFFFFFFFFFFFFFFFFFFFFFF AND PUSH20 0xFFFFFFFFFFFFFFFFFFFFFFFFFFFFFFFFFFFFFFFF AND DUP2 MSTORE PUSH1 0x20 ADD SWAP1 DUP2 MSTORE PUSH1 0x20 ADD PUSH1 0x0 KECCAK256 PUSH1 0x1 ADD DUP2 SWAP1 SSTORE POP CALLVALUE PUSH1 0x4 PUSH1 0x0 DUP6 DUP2 MSTORE PUSH1 0x20 ADD SWAP1 DUP2 MSTORE PUSH1 0x20 ADD PUSH1 0x0 KECCAK256 PUSH1 0x6 ADD PUSH1 0x0 ADD PUSH1 0x0 DUP3 DUP3 SLOAD PUSH2 0x1A00 SWAP2 SWAP1 PUSH2 0x32CC JUMP JUMPDEST SWAP3 POP POP DUP2 SWAP1 SSTORE POP PUSH2 0x1AF4 JUMP JUMPDEST CALLVALUE PUSH1 0x4 PUSH1 0x0 DUP6 DUP2 MSTORE PUSH1 0x20 ADD SWAP1 DUP2 MSTORE PUSH1 0x20 ADD PUSH1 0x0 KECCAK256 PUSH1 0x5 ADD PUSH1 0x0 CALLER PUSH20 0xFFFFFFFFFFFFFFFFFFFFFFFFFFFFFFFFFFFFFFFF AND PUSH20 0xFFFFFFFFFFFFFFFFFFFFFFFFFFFFFFFFFFFFFFFF AND DUP2 MSTORE PUSH1 0x20 ADD SWAP1 DUP2 MSTORE PUSH1 0x20 ADD PUSH1 0x0 KECCAK256 PUSH1 0x1 ADD DUP2 SWAP1 SSTORE POP PUSH1 0x0 PUSH1 0x4 PUSH1 0x0 DUP6 DUP2 MSTORE PUSH1 0x20 ADD SWAP1 DUP2 MSTORE PUSH1 0x20 ADD PUSH1 0x0 KECCAK256 PUSH1 0x5 ADD PUSH1 0x0 CALLER PUSH20 0xFFFFFFFFFFFFFFFFFFFFFFFFFFFFFFFFFFFFFFFF AND PUSH20 0xFFFFFFFFFFFFFFFFFFFFFFFFFFFFFFFFFFFFFFFF AND DUP2 MSTORE PUSH1 0x20 ADD SWAP1 DUP2 MSTORE PUSH1 0x20 ADD PUSH1 0x0 KECCAK256 PUSH1 0x0 ADD DUP2 SWAP1 SSTORE POP CALLVALUE PUSH1 0x4 PUSH1 0x0 DUP6 DUP2 MSTORE PUSH1 0x20 ADD SWAP1 DUP2 MSTORE PUSH1 0x20 ADD PUSH1 0x0 KECCAK256 PUSH1 0x6 ADD PUSH1 0x1 ADD PUSH1 0x0 DUP3 DUP3 SLOAD PUSH2 0x1AEC SWAP2 SWAP1 PUSH2 0x32CC JUMP JUMPDEST SWAP3 POP POP DUP2 SWAP1 SSTORE POP JUMPDEST PUSH1 0x0 PUSH1 0x4 PUSH1 0x0 DUP6 DUP2 MSTORE PUSH1 0x20 ADD SWAP1 DUP2 MSTORE PUSH1 0x20 ADD PUSH1 0x0 KECCAK256 PUSH1 0x5 ADD PUSH1 0x0 CALLER PUSH20 0xFFFFFFFFFFFFFFFFFFFFFFFFFFFFFFFFFFFFFFFF AND PUSH20 0xFFFFFFFFFFFFFFFFFFFFFFFFFFFFFFFFFFFFFFFF AND DUP2 MSTORE PUSH1 0x20 ADD SWAP1 DUP2 MSTORE PUSH1 0x20 ADD PUSH1 0x0 KECCAK256 PUSH1 0x2 ADD PUSH1 0x0 PUSH2 0x100 EXP DUP2 SLOAD DUP2 PUSH1 0xFF MUL NOT AND SWAP1 DUP4 ISZERO ISZERO MUL OR SWAP1 SSTORE POP PUSH1 0x1 PUSH1 0x4 PUSH1 0x0 DUP6 DUP2 MSTORE PUSH1 0x20 ADD SWAP1 DUP2 MSTORE PUSH1 0x20 ADD PUSH1 0x0 KECCAK256 PUSH1 0x5 ADD PUSH1 0x0 CALLER PUSH20 0xFFFFFFFFFFFFFFFFFFFFFFFFFFFFFFFFFFFFFFFF AND PUSH20 0xFFFFFFFFFFFFFFFFFFFFFFFFFFFFFFFFFFFFFFFF AND DUP2 MSTORE PUSH1 0x20 ADD SWAP1 DUP2 MSTORE PUSH1 0x20 ADD PUSH1 0x0 KECCAK256 PUSH1 0x2 ADD PUSH1 0x1 PUSH2 0x100 EXP DUP2 SLOAD DUP2 PUSH1 0xFF MUL NOT AND SWAP1 DUP4 ISZERO ISZERO MUL OR SWAP1 SSTORE POP PUSH1 0x5 PUSH1 0x0 CALLER PUSH20 0xFFFFFFFFFFFFFFFFFFFFFFFFFFFFFFFFFFFFFFFF AND PUSH20 0xFFFFFFFFFFFFFFFFFFFFFFFFFFFFFFFFFFFFFFFF AND DUP2 MSTORE PUSH1 0x20 ADD SWAP1 DUP2 MSTORE PUSH1 0x20 ADD PUSH1 0x0 KECCAK256 DUP4 SWAP1 DUP1 PUSH1 0x1 DUP2 SLOAD ADD DUP1 DUP3 SSTORE DUP1 SWAP2 POP POP PUSH1 0x1 SWAP1 SUB SWAP1 PUSH1 0x0 MSTORE PUSH1 0x20 PUSH1 0x0 KECCAK256 ADD PUSH1 0x0 SWAP1 SWAP2 SWAP1 SWAP2 SWAP1 SWAP2 POP SSTORE PUSH1 0x1 SWAP1 POP SWAP3 SWAP2 POP POP JUMP JUMPDEST PUSH1 0x60 PUSH1 0x0 DUP1 PUSH1 0x0 DUP1 PUSH2 0x1C56 DUP9 MLOAD DUP9 DUP9 PUSH2 0x22FD JUMP JUMPDEST DUP1 SWAP7 POP DUP2 SWAP8 POP DUP3 SWAP5 POP DUP4 SWAP6 POP POP POP POP POP DUP4 PUSH2 0x1C72 JUMPI POP POP PUSH2 0x22F4 JUMP JUMPDEST PUSH1 0x0 PUSH1 0x1 DUP3 DUP5 PUSH2 0x1C82 SWAP2 SWAP1 PUSH2 0x3300 JUMP JUMPDEST PUSH2 0x1C8C SWAP2 SWAP1 PUSH2 0x32CC JUMP JUMPDEST SWAP1 POP DUP1 PUSH8 0xFFFFFFFFFFFFFFFF DUP2 GT ISZERO PUSH2 0x1CA8 JUMPI PUSH2 0x1CA7 PUSH2 0x2F92 JUMP JUMPDEST JUMPDEST PUSH1 0x40 MLOAD SWAP1 DUP1 DUP3 MSTORE DUP1 PUSH1 0x20 MUL PUSH1 0x20 ADD DUP3 ADD PUSH1 0x40 MSTORE DUP1 ISZERO PUSH2 0x1CE1 JUMPI DUP2 PUSH1 0x20 ADD JUMPDEST PUSH2 0x1CCE PUSH2 0x2597 JUMP JUMPDEST DUP2 MSTORE PUSH1 0x20 ADD SWAP1 PUSH1 0x1 SWAP1 SUB SWAP1 DUP2 PUSH2 0x1CC6 JUMPI SWAP1 POP JUMPDEST POP SWAP6 POP PUSH1 0x0 DUP4 SWAP1 POP JUMPDEST DUP3 DUP2 LT PUSH2 0x22EB JUMPI PUSH1 0x0 DUP2 DUP6 PUSH2 0x1CFF SWAP2 SWAP1 PUSH2 0x3300 JUMP JUMPDEST SWAP1 POP PUSH1 0x4 PUSH1 0x0 DUP13 DUP5 DUP2 MLOAD DUP2 LT PUSH2 0x1D18 JUMPI PUSH2 0x1D17 PUSH2 0x3334 JUMP JUMPDEST JUMPDEST PUSH1 0x20 MUL PUSH1 0x20 ADD ADD MLOAD DUP2 MSTORE PUSH1 0x20 ADD SWAP1 DUP2 MSTORE PUSH1 0x20 ADD PUSH1 0x0 KECCAK256 PUSH1 0x0 ADD SLOAD DUP9 DUP3 DUP2 MLOAD DUP2 LT PUSH2 0x1D45 JUMPI PUSH2 0x1D44 PUSH2 0x3334 JUMP JUMPDEST JUMPDEST PUSH1 0x20 MUL PUSH1 0x20 ADD ADD MLOAD PUSH1 0x0 ADD DUP2 DUP2 MSTORE POP POP PUSH1 0x4 PUSH1 0x0 DUP13 DUP5 DUP2 MLOAD DUP2 LT PUSH2 0x1D6C JUMPI PUSH2 0x1D6B PUSH2 0x3334 JUMP JUMPDEST JUMPDEST PUSH1 0x20 MUL PUSH1 0x20 ADD ADD MLOAD DUP2 MSTORE PUSH1 0x20 ADD SWAP1 DUP2 MSTORE PUSH1 0x20 ADD PUSH1 0x0 KECCAK256 PUSH1 0x1 ADD SLOAD DUP9 DUP3 DUP2 MLOAD DUP2 LT PUSH2 0x1D99 JUMPI PUSH2 0x1D98 PUSH2 0x3334 JUMP JUMPDEST JUMPDEST PUSH1 0x20 MUL PUSH1 0x20 ADD ADD MLOAD PUSH1 0x20 ADD DUP2 DUP2 MSTORE POP POP PUSH1 0x4 PUSH1 0x0 DUP13 DUP5 DUP2 MLOAD DUP2 LT PUSH2 0x1DC0 JUMPI PUSH2 0x1DBF PUSH2 0x3334 JUMP JUMPDEST JUMPDEST PUSH1 0x20 MUL PUSH1 0x20 ADD ADD MLOAD DUP2 MSTORE PUSH1 0x20 ADD SWAP1 DUP2 MSTORE PUSH1 0x20 ADD PUSH1 0x0 KECCAK256 PUSH1 0x2 ADD PUSH1 0x0 SWAP1 SLOAD SWAP1 PUSH2 0x100 EXP SWAP1 DIV PUSH4 0xFFFFFFFF AND DUP9 DUP3 DUP2 MLOAD DUP2 LT PUSH2 0x1DFD JUMPI PUSH2 0x1DFC PUSH2 0x3334 JUMP JUMPDEST JUMPDEST PUSH1 0x20 MUL PUSH1 0x20 ADD ADD MLOAD PUSH1 0x40 ADD SWAP1 PUSH4 0xFFFFFFFF AND SWAP1 DUP2 PUSH4 0xFFFFFFFF AND DUP2 MSTORE POP POP PUSH1 0x4 PUSH1 0x0 DUP13 DUP5 DUP2 MLOAD DUP2 LT PUSH2 0x1E32 JUMPI PUSH2 0x1E31 PUSH2 0x3334 JUMP JUMPDEST JUMPDEST PUSH1 0x20 MUL PUSH1 0x20 ADD ADD MLOAD DUP2 MSTORE PUSH1 0x20 ADD SWAP1 DUP2 MSTORE PUSH1 0x20 ADD PUSH1 0x0 KECCAK256 PUSH1 0x2 ADD PUSH1 0x4 SWAP1 SLOAD SWAP1 PUSH2 0x100 EXP SWAP1 DIV PUSH4 0xFFFFFFFF AND DUP9 DUP3 DUP2 MLOAD DUP2 LT PUSH2 0x1E6F JUMPI PUSH2 0x1E6E PUSH2 0x3334 JUMP JUMPDEST JUMPDEST PUSH1 0x20 MUL PUSH1 0x20 ADD ADD MLOAD PUSH1 0x60 ADD SWAP1 PUSH4 0xFFFFFFFF AND SWAP1 DUP2 PUSH4 0xFFFFFFFF AND DUP2 MSTORE POP POP PUSH1 0x4 PUSH1 0x0 DUP13 DUP5 DUP2 MLOAD DUP2 LT PUSH2 0x1EA4 JUMPI PUSH2 0x1EA3 PUSH2 0x3334 JUMP JUMPDEST JUMPDEST PUSH1 0x20 MUL PUSH1 0x20 ADD ADD MLOAD DUP2 MSTORE PUSH1 0x20 ADD SWAP1 DUP2 MSTORE PUSH1 0x20 ADD PUSH1 0x0 KECCAK256 PUSH1 0x4 ADD SLOAD DUP9 DUP3 DUP2 MLOAD DUP2 LT PUSH2 0x1ED1 JUMPI PUSH2 0x1ED0 PUSH2 0x3334 JUMP JUMPDEST JUMPDEST PUSH1 0x20 MUL PUSH1 0x20 ADD ADD MLOAD PUSH1 0x80 ADD DUP2 DUP2 MSTORE POP POP PUSH1 0x4 PUSH1 0x0 DUP13 DUP5 DUP2 MLOAD DUP2 LT PUSH2 0x1EF8 JUMPI PUSH2 0x1EF7 PUSH2 0x3334 JUMP JUMPDEST JUMPDEST PUSH1 0x20 MUL PUSH1 0x20 ADD ADD MLOAD DUP2 MSTORE PUSH1 0x20 ADD SWAP1 DUP2 MSTORE PUSH1 0x20 ADD PUSH1 0x0 KECCAK256 PUSH1 0x6 ADD PUSH1 0x40 MLOAD DUP1 PUSH1 0x80 ADD PUSH1 0x40 MSTORE SWAP1 DUP2 PUSH1 0x0 DUP3 ADD SLOAD DUP2 MSTORE PUSH1 0x20 ADD PUSH1 0x1 DUP3 ADD SLOAD DUP2 MSTORE PUSH1 0x20 ADD PUSH1 0x2 DUP3 ADD PUSH1 0x0 SWAP1 SLOAD SWAP1 PUSH2 0x100 EXP SWAP1 DIV PUSH1 0xFF AND ISZERO ISZERO ISZERO ISZERO DUP2 MSTORE PUSH1 0x20 ADD PUSH1 0x2 DUP3 ADD PUSH1 0x1 SWAP1 SLOAD SWAP1 PUSH2 0x100 EXP SWAP1 DIV PUSH1 0xFF AND ISZERO ISZERO ISZERO ISZERO DUP2 MSTORE POP POP DUP9 DUP3 DUP2 MLOAD DUP2 LT PUSH2 0x1F79 JUMPI PUSH2 0x1F78 PUSH2 0x3334 JUMP JUMPDEST JUMPDEST PUSH1 0x20 MUL PUSH1 0x20 ADD ADD MLOAD PUSH1 0xC0 ADD DUP2 SWAP1 MSTORE POP PUSH1 0x4 PUSH1 0x0 DUP13 DUP5 DUP2 MLOAD DUP2 LT PUSH2 0x1F9F JUMPI PUSH2 0x1F9E PUSH2 0x3334 JUMP JUMPDEST JUMPDEST PUSH1 0x20 MUL PUSH1 0x20 ADD ADD MLOAD DUP2 MSTORE PUSH1 0x20 ADD SWAP1 DUP2 MSTORE PUSH1 0x20 ADD PUSH1 0x0 KECCAK256 PUSH1 0x9 ADD PUSH1 0x0 SWAP1 SLOAD SWAP1 PUSH2 0x100 EXP SWAP1 DIV PUSH1 0xFF AND DUP9 DUP3 DUP2 MLOAD DUP2 LT PUSH2 0x1FD9 JUMPI PUSH2 0x1FD8 PUSH2 0x3334 JUMP JUMPDEST JUMPDEST PUSH1 0x20 MUL PUSH1 0x20 ADD ADD MLOAD PUSH2 0x100 ADD SWAP1 ISZERO ISZERO SWAP1 DUP2 ISZERO ISZERO DUP2 MSTORE POP POP PUSH1 0x3 PUSH1 0x0 PUSH1 0x4 PUSH1 0x0 DUP15 DUP7 DUP2 MLOAD DUP2 LT PUSH2 0x200B JUMPI PUSH2 0x200A PUSH2 0x3334 JUMP JUMPDEST JUMPDEST PUSH1 0x20 MUL PUSH1 0x20 ADD ADD MLOAD DUP2 MSTORE PUSH1 0x20 ADD SWAP1 DUP2 MSTORE PUSH1 0x20 ADD PUSH1 0x0 KECCAK256 PUSH1 0x1 ADD SLOAD DUP2 MSTORE PUSH1 0x20 ADD SWAP1 DUP2 MSTORE PUSH1 0x20 ADD PUSH1 0x0 KECCAK256 PUSH1 0x3 ADD PUSH1 0x8 SWAP1 SLOAD SWAP1 PUSH2 0x100 EXP SWAP1 DIV PUSH1 0xFF AND DUP9 DUP3 DUP2 MLOAD DUP2 LT PUSH2 0x2057 JUMPI PUSH2 0x2056 PUSH2 0x3334 JUMP JUMPDEST JUMPDEST PUSH1 0x20 MUL PUSH1 0x20 ADD ADD MLOAD PUSH2 0x120 ADD SWAP1 ISZERO ISZERO SWAP1 DUP2 ISZERO ISZERO DUP2 MSTORE POP POP PUSH1 0x4 PUSH1 0x0 DUP13 DUP5 DUP2 MLOAD DUP2 LT PUSH2 0x2085 JUMPI PUSH2 0x2084 PUSH2 0x3334 JUMP JUMPDEST JUMPDEST PUSH1 0x20 MUL PUSH1 0x20 ADD ADD MLOAD DUP2 MSTORE PUSH1 0x20 ADD SWAP1 DUP2 MSTORE PUSH1 0x20 ADD PUSH1 0x0 KECCAK256 PUSH1 0x5 ADD PUSH1 0x0 CALLER PUSH20 0xFFFFFFFFFFFFFFFFFFFFFFFFFFFFFFFFFFFFFFFF AND PUSH20 0xFFFFFFFFFFFFFFFFFFFFFFFFFFFFFFFFFFFFFFFF AND DUP2 MSTORE PUSH1 0x20 ADD SWAP1 DUP2 MSTORE PUSH1 0x20 ADD PUSH1 0x0 KECCAK256 PUSH1 0x2 ADD PUSH1 0x1 SWAP1 SLOAD SWAP1 PUSH2 0x100 EXP SWAP1 DIV PUSH1 0xFF AND DUP9 DUP3 DUP2 MLOAD DUP2 LT PUSH2 0x20FF JUMPI PUSH2 0x20FE PUSH2 0x3334 JUMP JUMPDEST JUMPDEST PUSH1 0x20 MUL PUSH1 0x20 ADD ADD MLOAD PUSH2 0x140 ADD SWAP1 ISZERO ISZERO SWAP1 DUP2 ISZERO ISZERO DUP2 MSTORE POP POP PUSH1 0x4 PUSH1 0x0 DUP13 DUP5 DUP2 MLOAD DUP2 LT PUSH2 0x212D JUMPI PUSH2 0x212C PUSH2 0x3334 JUMP JUMPDEST JUMPDEST PUSH1 0x20 MUL PUSH1 0x20 ADD ADD MLOAD DUP2 MSTORE PUSH1 0x20 ADD SWAP1 DUP2 MSTORE PUSH1 0x20 ADD PUSH1 0x0 KECCAK256 PUSH1 0x3 ADD PUSH1 0x0 CALLER PUSH20 0xFFFFFFFFFFFFFFFFFFFFFFFFFFFFFFFFFFFFFFFF AND PUSH20 0xFFFFFFFFFFFFFFFFFFFFFFFFFFFFFFFFFFFFFFFF AND DUP2 MSTORE PUSH1 0x20 ADD SWAP1 DUP2 MSTORE PUSH1 0x20 ADD PUSH1 0x0 KECCAK256 SLOAD DUP9 DUP3 DUP2 MLOAD DUP2 LT PUSH2 0x2197 JUMPI PUSH2 0x2196 PUSH2 0x3334 JUMP JUMPDEST JUMPDEST PUSH1 0x20 MUL PUSH1 0x20 ADD ADD MLOAD PUSH1 0xA0 ADD DUP2 DUP2 MSTORE POP POP PUSH1 0x4 PUSH1 0x0 DUP13 DUP5 DUP2 MLOAD DUP2 LT PUSH2 0x21BE JUMPI PUSH2 0x21BD PUSH2 0x3334 JUMP JUMPDEST JUMPDEST PUSH1 0x20 MUL PUSH1 0x20 ADD ADD MLOAD DUP2 MSTORE PUSH1 0x20 ADD SWAP1 DUP2 MSTORE PUSH1 0x20 ADD PUSH1 0x0 KECCAK256 PUSH1 0x5 ADD PUSH1 0x0 CALLER PUSH20 0xFFFFFFFFFFFFFFFFFFFFFFFFFFFFFFFFFFFFFFFF AND PUSH20 0xFFFFFFFFFFFFFFFFFFFFFFFFFFFFFFFFFFFFFFFF AND DUP2 MSTORE PUSH1 0x20 ADD SWAP1 DUP2 MSTORE PUSH1 0x20 ADD PUSH1 0x0 KECCAK256 PUSH1 0x0 ADD SLOAD DUP9 DUP3 DUP2 MLOAD DUP2 LT PUSH2 0x222B JUMPI PUSH2 0x222A PUSH2 0x3334 JUMP JUMPDEST JUMPDEST PUSH1 0x20 MUL PUSH1 0x20 ADD ADD MLOAD PUSH1 0xE0 ADD MLOAD PUSH1 0x0 ADD DUP2 DUP2 MSTORE POP POP PUSH1 0x4 PUSH1 0x0 DUP13 DUP5 DUP2 MLOAD DUP2 LT PUSH2 0x2256 JUMPI PUSH2 0x2255 PUSH2 0x3334 JUMP JUMPDEST JUMPDEST PUSH1 0x20 MUL PUSH1 0x20 ADD ADD MLOAD DUP2 MSTORE PUSH1 0x20 ADD SWAP1 DUP2 MSTORE PUSH1 0x20 ADD PUSH1 0x0 KECCAK256 PUSH1 0x5 ADD PUSH1 0x0 CALLER PUSH20 0xFFFFFFFFFFFFFFFFFFFFFFFFFFFFFFFFFFFFFFFF AND PUSH20 0xFFFFFFFFFFFFFFFFFFFFFFFFFFFFFFFFFFFFFFFF AND DUP2 MSTORE PUSH1 0x20 ADD SWAP1 DUP2 MSTORE PUSH1 0x20 ADD PUSH1 0x0 KECCAK256 PUSH1 0x1 ADD SLOAD DUP9 DUP3 DUP2 MLOAD DUP2 LT PUSH2 0x22C3 JUMPI PUSH2 0x22C2 PUSH2 0x3334 JUMP JUMPDEST JUMPDEST PUSH1 0x20 MUL PUSH1 0x20 ADD ADD MLOAD PUSH1 0xE0 ADD MLOAD PUSH1 0x20 ADD DUP2 DUP2 MSTORE POP POP POP DUP1 DUP1 PUSH2 0x22E3 SWAP1 PUSH2 0x3363 JUMP JUMPDEST SWAP2 POP POP PUSH2 0x1CEA JUMP JUMPDEST POP PUSH1 0x1 SWAP5 POP POP POP POP JUMPDEST SWAP4 POP SWAP4 POP SWAP4 SWAP1 POP JUMP JUMPDEST PUSH1 0x0 DUP1 PUSH1 0x0 DUP1 PUSH1 0x0 DUP8 PUSH1 0x1 DUP9 DUP9 PUSH2 0x2314 SWAP2 SWAP1 PUSH2 0x364C JUMP JUMPDEST PUSH2 0x231E SWAP2 SWAP1 PUSH2 0x32CC JUMP JUMPDEST GT SWAP1 POP DUP1 ISZERO PUSH2 0x2335 JUMPI PUSH1 0x0 SWAP3 POP PUSH1 0x0 SWAP2 POP POP PUSH2 0x23A0 JUMP JUMPDEST PUSH1 0x1 DUP8 DUP8 PUSH2 0x2343 SWAP2 SWAP1 PUSH2 0x364C JUMP JUMPDEST DUP10 PUSH2 0x234E SWAP2 SWAP1 PUSH2 0x3300 JUMP JUMPDEST PUSH2 0x2358 SWAP2 SWAP1 PUSH2 0x3300 JUMP JUMPDEST SWAP5 POP PUSH1 0x0 PUSH1 0x1 DUP7 PUSH2 0x2369 SWAP2 SWAP1 PUSH2 0x32CC JUMP JUMPDEST DUP9 GT SWAP1 POP DUP1 ISZERO PUSH2 0x237C JUMPI PUSH1 0x0 SWAP5 POP PUSH2 0x2397 JUMP JUMPDEST DUP8 PUSH1 0x1 DUP8 PUSH2 0x238A SWAP2 SWAP1 PUSH2 0x32CC JUMP JUMPDEST PUSH2 0x2394 SWAP2 SWAP1 PUSH2 0x3300 JUMP JUMPDEST SWAP5 POP JUMPDEST PUSH1 0x0 DUP6 GT SWAP3 POP POP POP JUMPDEST SWAP4 POP SWAP4 POP SWAP4 POP SWAP4 JUMP JUMPDEST PUSH1 0x0 DUP3 PUSH20 0xFFFFFFFFFFFFFFFFFFFFFFFFFFFFFFFFFFFFFFFF AND DUP3 PUSH1 0x0 PUSH8 0xFFFFFFFFFFFFFFFF DUP2 GT ISZERO PUSH2 0x23DE JUMPI PUSH2 0x23DD PUSH2 0x2F92 JUMP JUMPDEST JUMPDEST PUSH1 0x40 MLOAD SWAP1 DUP1 DUP3 MSTORE DUP1 PUSH1 0x1F ADD PUSH1 0x1F NOT AND PUSH1 0x20 ADD DUP3 ADD PUSH1 0x40 MSTORE DUP1 ISZERO PUSH2 0x2410 JUMPI DUP2 PUSH1 0x20 ADD PUSH1 0x1 DUP3 MUL DUP1 CALLDATASIZE DUP4 CALLDATACOPY DUP1 DUP3 ADD SWAP2 POP POP SWAP1 POP JUMPDEST POP PUSH1 0x40 MLOAD PUSH2 0x241E SWAP2 SWAP1 PUSH2 0x383F JUMP JUMPDEST PUSH1 0x0 PUSH1 0x40 MLOAD DUP1 DUP4 SUB DUP2 DUP6 DUP8 GAS CALL SWAP3 POP POP POP RETURNDATASIZE DUP1 PUSH1 0x0 DUP2 EQ PUSH2 0x245B JUMPI PUSH1 0x40 MLOAD SWAP2 POP PUSH1 0x1F NOT PUSH1 0x3F RETURNDATASIZE ADD AND DUP3 ADD PUSH1 0x40 MSTORE RETURNDATASIZE DUP3 MSTORE RETURNDATASIZE PUSH1 0x0 PUSH1 0x20 DUP5 ADD RETURNDATACOPY PUSH2 0x2460 JUMP JUMPDEST PUSH1 0x60 SWAP2 POP JUMPDEST POP POP SWAP1 POP DUP1 PUSH2 0x24A4 JUMPI PUSH1 0x40 MLOAD PUSH32 0x8C379A000000000000000000000000000000000000000000000000000000000 DUP2 MSTORE PUSH1 0x4 ADD PUSH2 0x249B SWAP1 PUSH2 0x38A2 JUMP JUMPDEST PUSH1 0x40 MLOAD DUP1 SWAP2 SUB SWAP1 REVERT JUMPDEST POP POP POP JUMP JUMPDEST PUSH1 0x0 DUP1 DUP5 PUSH1 0x6 ADD PUSH1 0x0 ADD SLOAD SWAP1 POP PUSH1 0x0 DUP6 PUSH1 0x6 ADD PUSH1 0x1 ADD SLOAD SWAP1 POP DUP5 ISZERO PUSH2 0x24DB JUMPI DUP4 DUP3 PUSH2 0x24D4 SWAP2 SWAP1 PUSH2 0x32CC JUMP JUMPDEST SWAP2 POP PUSH2 0x24EA JUMP JUMPDEST DUP4 DUP2 PUSH2 0x24E7 SWAP2 SWAP1 PUSH2 0x32CC JUMP JUMPDEST SWAP1 POP JUMPDEST PUSH1 0x0 DUP1 DUP3 DUP5 GT ISZERO PUSH2 0x2500 JUMPI DUP4 SWAP2 POP DUP3 SWAP1 POP PUSH2 0x2507 JUMP JUMPDEST DUP3 SWAP2 POP DUP4 SWAP1 POP JUMPDEST PUSH1 0x0 DUP2 DUP4 PUSH2 0x2515 SWAP2 SWAP1 PUSH2 0x3300 JUMP JUMPDEST SWAP1 POP DUP9 PUSH1 0x4 ADD SLOAD DUP2 GT ISZERO PUSH2 0x2531 JUMPI PUSH1 0x0 SWAP6 POP POP POP POP POP POP PUSH2 0x253B JUMP JUMPDEST PUSH1 0x1 SWAP6 POP POP POP POP POP POP JUMPDEST SWAP4 SWAP3 POP POP POP JUMP JUMPDEST PUSH1 0x40 MLOAD DUP1 PUSH2 0x100 ADD PUSH1 0x40 MSTORE DUP1 PUSH1 0x0 DUP2 MSTORE PUSH1 0x20 ADD PUSH1 0x60 DUP2 MSTORE PUSH1 0x20 ADD PUSH1 0x60 DUP2 MSTORE PUSH1 0x20 ADD PUSH1 0x0 PUSH4 0xFFFFFFFF AND DUP2 MSTORE PUSH1 0x20 ADD PUSH1 0x0 PUSH4 0xFFFFFFFF AND DUP2 MSTORE PUSH1 0x20 ADD PUSH1 0x0 ISZERO ISZERO DUP2 MSTORE PUSH1 0x20 ADD PUSH1 0x0 ISZERO ISZERO DUP2 MSTORE PUSH1 0x20 ADD PUSH1 0x0 DUP2 MSTORE POP SWAP1 JUMP JUMPDEST PUSH1 0x40 MLOAD DUP1 PUSH2 0x160 ADD PUSH1 0x40 MSTORE DUP1 PUSH1 0x0 DUP2 MSTORE PUSH1 0x20 ADD PUSH1 0x0 DUP2 MSTORE PUSH1 0x20 ADD PUSH1 0x0 PUSH4 0xFFFFFFFF AND DUP2 MSTORE PUSH1 0x20 ADD PUSH1 0x0 PUSH4 0xFFFFFFFF AND DUP2 MSTORE PUSH1 0x20 ADD PUSH1 0x0 DUP2 MSTORE PUSH1 0x20 ADD PUSH1 0x0 DUP2 MSTORE PUSH1 0x20 ADD PUSH2 0x25E1 PUSH2 0x260F JUMP JUMPDEST DUP2 MSTORE PUSH1 0x20 ADD PUSH2 0x25EE PUSH2 0x260F JUMP JUMPDEST DUP2 MSTORE PUSH1 0x20 ADD PUSH1 0x0 ISZERO ISZERO DUP2 MSTORE PUSH1 0x20 ADD PUSH1 0x0 ISZERO ISZERO DUP2 MSTORE PUSH1 0x20 ADD PUSH1 0x0 ISZERO ISZERO DUP2 MSTORE POP SWAP1 JUMP JUMPDEST PUSH1 0x40 MLOAD DUP1 PUSH1 0x80 ADD PUSH1 0x40 MSTORE DUP1 PUSH1 0x0 DUP2 MSTORE PUSH1 0x20 ADD PUSH1 0x0 DUP2 MSTORE PUSH1 0x20 ADD PUSH1 0x0 ISZERO ISZERO DUP2 MSTORE PUSH1 0x20 ADD PUSH1 0x0 ISZERO ISZERO DUP2 MSTORE POP SWAP1 JUMP JUMPDEST PUSH1 0x0 DUP2 SWAP1 POP SWAP2 SWAP1 POP JUMP JUMPDEST PUSH2 0x264E DUP2 PUSH2 0x263B JUMP JUMPDEST DUP3 MSTORE POP POP JUMP JUMPDEST PUSH1 0x0 PUSH1 0x20 DUP3 ADD SWAP1 POP PUSH2 0x2669 PUSH1 0x0 DUP4 ADD DUP5 PUSH2 0x2645 JUMP JUMPDEST SWAP3 SWAP2 POP POP JUMP JUMPDEST PUSH1 0x0 DUP1 REVERT JUMPDEST PUSH1 0x0 DUP1 REVERT JUMPDEST PUSH2 0x2682 DUP2 PUSH2 0x263B JUMP JUMPDEST DUP2 EQ PUSH2 0x268D JUMPI PUSH1 0x0 DUP1 REVERT JUMPDEST POP JUMP JUMPDEST PUSH1 0x0 DUP2 CALLDATALOAD SWAP1 POP PUSH2 0x269F DUP2 PUSH2 0x2679 JUMP JUMPDEST SWAP3 SWAP2 POP POP JUMP JUMPDEST PUSH1 0x0 DUP1 PUSH1 0x40 DUP4 DUP6 SUB SLT ISZERO PUSH2 0x26BC JUMPI PUSH2 0x26BB PUSH2 0x266F JUMP JUMPDEST JUMPDEST PUSH1 0x0 PUSH2 0x26CA DUP6 DUP3 DUP7 ADD PUSH2 0x2690 JUMP JUMPDEST SWAP3 POP POP PUSH1 0x20 PUSH2 0x26DB DUP6 DUP3 DUP7 ADD PUSH2 0x2690 JUMP JUMPDEST SWAP2 POP POP SWAP3 POP SWAP3 SWAP1 POP JUMP JUMPDEST PUSH1 0x0 DUP2 MLOAD SWAP1 POP SWAP2 SWAP1 POP JUMP JUMPDEST PUSH1 0x0 DUP3 DUP3 MSTORE PUSH1 0x20 DUP3 ADD SWAP1 POP SWAP3 SWAP2 POP POP JUMP JUMPDEST PUSH1 0x0 DUP2 SWAP1 POP PUSH1 0x20 DUP3 ADD SWAP1 POP SWAP2 SWAP1 POP JUMP JUMPDEST PUSH2 0x271A DUP2 PUSH2 0x263B JUMP JUMPDEST DUP3 MSTORE POP POP JUMP JUMPDEST PUSH1 0x0 PUSH4 0xFFFFFFFF DUP3 AND SWAP1 POP SWAP2 SWAP1 POP JUMP JUMPDEST PUSH2 0x2739 DUP2 PUSH2 0x2720 JUMP JUMPDEST DUP3 MSTORE POP POP JUMP JUMPDEST PUSH1 0x0 DUP2 ISZERO ISZERO SWAP1 POP SWAP2 SWAP1 POP JUMP JUMPDEST PUSH2 0x2754 DUP2 PUSH2 0x273F JUMP JUMPDEST DUP3 MSTORE POP POP JUMP JUMPDEST PUSH1 0x80 DUP3 ADD PUSH1 0x0 DUP3 ADD MLOAD PUSH2 0x2770 PUSH1 0x0 DUP6 ADD DUP3 PUSH2 0x2711 JUMP JUMPDEST POP PUSH1 0x20 DUP3 ADD MLOAD PUSH2 0x2783 PUSH1 0x20 DUP6 ADD DUP3 PUSH2 0x2711 JUMP JUMPDEST POP PUSH1 0x40 DUP3 ADD MLOAD PUSH2 0x2796 PUSH1 0x40 DUP6 ADD DUP3 PUSH2 0x274B JUMP JUMPDEST POP PUSH1 0x60 DUP3 ADD MLOAD PUSH2 0x27A9 PUSH1 0x60 DUP6 ADD DUP3 PUSH2 0x274B JUMP JUMPDEST POP POP POP POP JUMP JUMPDEST PUSH2 0x220 DUP3 ADD PUSH1 0x0 DUP3 ADD MLOAD PUSH2 0x27C6 PUSH1 0x0 DUP6 ADD DUP3 PUSH2 0x2711 JUMP JUMPDEST POP PUSH1 0x20 DUP3 ADD MLOAD PUSH2 0x27D9 PUSH1 0x20 DUP6 ADD DUP3 PUSH2 0x2711 JUMP JUMPDEST POP PUSH1 0x40 DUP3 ADD MLOAD PUSH2 0x27EC PUSH1 0x40 DUP6 ADD DUP3 PUSH2 0x2730 JUMP JUMPDEST POP PUSH1 0x60 DUP3 ADD MLOAD PUSH2 0x27FF PUSH1 0x60 DUP6 ADD DUP3 PUSH2 0x2730 JUMP JUMPDEST POP PUSH1 0x80 DUP3 ADD MLOAD PUSH2 0x2812 PUSH1 0x80 DUP6 ADD DUP3 PUSH2 0x2711 JUMP JUMPDEST POP PUSH1 0xA0 DUP3 ADD MLOAD PUSH2 0x2825 PUSH1 0xA0 DUP6 ADD DUP3 PUSH2 0x2711 JUMP JUMPDEST POP PUSH1 0xC0 DUP3 ADD MLOAD PUSH2 0x2838 PUSH1 0xC0 DUP6 ADD DUP3 PUSH2 0x275A JUMP JUMPDEST POP PUSH1 0xE0 DUP3 ADD MLOAD PUSH2 0x284C PUSH2 0x140 DUP6 ADD DUP3 PUSH2 0x275A JUMP JUMPDEST POP PUSH2 0x100 DUP3 ADD MLOAD PUSH2 0x2861 PUSH2 0x1C0 DUP6 ADD DUP3 PUSH2 0x274B JUMP JUMPDEST POP PUSH2 0x120 DUP3 ADD MLOAD PUSH2 0x2876 PUSH2 0x1E0 DUP6 ADD DUP3 PUSH2 0x274B JUMP JUMPDEST POP PUSH2 0x140 DUP3 ADD MLOAD PUSH2 0x288B PUSH2 0x200 DUP6 ADD DUP3 PUSH2 0x274B JUMP JUMPDEST POP POP POP POP JUMP JUMPDEST PUSH1 0x0 PUSH2 0x289D DUP4 DUP4 PUSH2 0x27AF JUMP JUMPDEST PUSH2 0x220 DUP4 ADD SWAP1 POP SWAP3 SWAP2 POP POP JUMP JUMPDEST PUSH1 0x0 PUSH1 0x20 DUP3 ADD SWAP1 POP SWAP2 SWAP1 POP JUMP JUMPDEST PUSH1 0x0 PUSH2 0x28C2 DUP3 PUSH2 0x26E5 JUMP JUMPDEST PUSH2 0x28CC DUP2 DUP6 PUSH2 0x26F0 JUMP JUMPDEST SWAP4 POP PUSH2 0x28D7 DUP4 PUSH2 0x2701 JUMP JUMPDEST DUP1 PUSH1 0x0 JUMPDEST DUP4 DUP2 LT ISZERO PUSH2 0x2908 JUMPI DUP2 MLOAD PUSH2 0x28EF DUP9 DUP3 PUSH2 0x2891 JUMP JUMPDEST SWAP8 POP PUSH2 0x28FA DUP4 PUSH2 0x28AA JUMP JUMPDEST SWAP3 POP POP PUSH1 0x1 DUP2 ADD SWAP1 POP PUSH2 0x28DB JUMP JUMPDEST POP DUP6 SWAP4 POP POP POP POP SWAP3 SWAP2 POP POP JUMP JUMPDEST PUSH2 0x291E DUP2 PUSH2 0x273F JUMP JUMPDEST DUP3 MSTORE POP POP JUMP JUMPDEST PUSH1 0x0 PUSH1 0x60 DUP3 ADD SWAP1 POP DUP2 DUP2 SUB PUSH1 0x0 DUP4 ADD MSTORE PUSH2 0x293E DUP2 DUP7 PUSH2 0x28B7 JUMP JUMPDEST SWAP1 POP PUSH2 0x294D PUSH1 0x20 DUP4 ADD DUP6 PUSH2 0x2915 JUMP JUMPDEST PUSH2 0x295A PUSH1 0x40 DUP4 ADD DUP5 PUSH2 0x2915 JUMP JUMPDEST SWAP5 SWAP4 POP POP POP POP JUMP JUMPDEST PUSH1 0x0 DUP1 REVERT JUMPDEST PUSH1 0x0 DUP1 REVERT JUMPDEST PUSH1 0x0 DUP1 REVERT JUMPDEST PUSH1 0x0 DUP1 DUP4 PUSH1 0x1F DUP5 ADD SLT PUSH2 0x2987 JUMPI PUSH2 0x2986 PUSH2 0x2962 JUMP JUMPDEST JUMPDEST DUP3 CALLDATALOAD SWAP1 POP PUSH8 0xFFFFFFFFFFFFFFFF DUP2 GT ISZERO PUSH2 0x29A4 JUMPI PUSH2 0x29A3 PUSH2 0x2967 JUMP JUMPDEST JUMPDEST PUSH1 0x20 DUP4 ADD SWAP2 POP DUP4 PUSH1 0x1 DUP3 MUL DUP4 ADD GT ISZERO PUSH2 0x29C0 JUMPI PUSH2 0x29BF PUSH2 0x296C JUMP JUMPDEST JUMPDEST SWAP3 POP SWAP3 SWAP1 POP JUMP JUMPDEST PUSH1 0x0 DUP1 PUSH1 0x0 DUP1 PUSH1 0x40 DUP6 DUP8 SUB SLT ISZERO PUSH2 0x29E1 JUMPI PUSH2 0x29E0 PUSH2 0x266F JUMP JUMPDEST JUMPDEST PUSH1 0x0 DUP6 ADD CALLDATALOAD PUSH8 0xFFFFFFFFFFFFFFFF DUP2 GT ISZERO PUSH2 0x29FF JUMPI PUSH2 0x29FE PUSH2 0x2674 JUMP JUMPDEST JUMPDEST PUSH2 0x2A0B DUP8 DUP3 DUP9 ADD PUSH2 0x2971 JUMP JUMPDEST SWAP5 POP SWAP5 POP POP PUSH1 0x20 DUP6 ADD CALLDATALOAD PUSH8 0xFFFFFFFFFFFFFFFF DUP2 GT ISZERO PUSH2 0x2A2E JUMPI PUSH2 0x2A2D PUSH2 0x2674 JUMP JUMPDEST JUMPDEST PUSH2 0x2A3A DUP8 DUP3 DUP9 ADD PUSH2 0x2971 JUMP JUMPDEST SWAP3 POP SWAP3 POP POP SWAP3 SWAP6 SWAP2 SWAP5 POP SWAP3 POP JUMP JUMPDEST PUSH2 0x2A51 DUP2 PUSH2 0x2720 JUMP JUMPDEST DUP2 EQ PUSH2 0x2A5C JUMPI PUSH1 0x0 DUP1 REVERT JUMPDEST POP JUMP JUMPDEST PUSH1 0x0 DUP2 CALLDATALOAD SWAP1 POP PUSH2 0x2A6E DUP2 PUSH2 0x2A48 JUMP JUMPDEST SWAP3 SWAP2 POP POP JUMP JUMPDEST PUSH1 0x0 DUP1 PUSH1 0x0 PUSH1 0x60 DUP5 DUP7 SUB SLT ISZERO PUSH2 0x2A8D JUMPI PUSH2 0x2A8C PUSH2 0x266F JUMP JUMPDEST JUMPDEST PUSH1 0x0 PUSH2 0x2A9B DUP7 DUP3 DUP8 ADD PUSH2 0x2690 JUMP JUMPDEST SWAP4 POP POP PUSH1 0x20 PUSH2 0x2AAC DUP7 DUP3 DUP8 ADD PUSH2 0x2A5F JUMP JUMPDEST SWAP3 POP POP PUSH1 0x40 PUSH2 0x2ABD DUP7 DUP3 DUP8 ADD PUSH2 0x2A5F JUMP JUMPDEST SWAP2 POP POP SWAP3 POP SWAP3 POP SWAP3 JUMP JUMPDEST PUSH1 0x0 PUSH1 0x20 DUP3 ADD SWAP1 POP PUSH2 0x2ADC PUSH1 0x0 DUP4 ADD DUP5 PUSH2 0x2915 JUMP JUMPDEST SWAP3 SWAP2 POP POP JUMP JUMPDEST PUSH1 0x0 PUSH20 0xFFFFFFFFFFFFFFFFFFFFFFFFFFFFFFFFFFFFFFFF DUP3 AND SWAP1 POP SWAP2 SWAP1 POP JUMP JUMPDEST PUSH1 0x0 PUSH2 0x2B0D DUP3 PUSH2 0x2AE2 JUMP JUMPDEST SWAP1 POP SWAP2 SWAP1 POP JUMP JUMPDEST PUSH2 0x2B1D DUP2 PUSH2 0x2B02 JUMP JUMPDEST DUP3 MSTORE POP POP JUMP JUMPDEST PUSH1 0x0 PUSH1 0x20 DUP3 ADD SWAP1 POP PUSH2 0x2B38 PUSH1 0x0 DUP4 ADD DUP5 PUSH2 0x2B14 JUMP JUMPDEST SWAP3 SWAP2 POP POP JUMP JUMPDEST PUSH1 0x0 DUP1 PUSH1 0x0 PUSH1 0x60 DUP5 DUP7 SUB SLT ISZERO PUSH2 0x2B57 JUMPI PUSH2 0x2B56 PUSH2 0x266F JUMP JUMPDEST JUMPDEST PUSH1 0x0 PUSH2 0x2B65 DUP7 DUP3 DUP8 ADD PUSH2 0x2690 JUMP JUMPDEST SWAP4 POP POP PUSH1 0x20 PUSH2 0x2B76 DUP7 DUP3 DUP8 ADD PUSH2 0x2690 JUMP JUMPDEST SWAP3 POP POP PUSH1 0x40 PUSH2 0x2B87 DUP7 DUP3 DUP8 ADD PUSH2 0x2690 JUMP JUMPDEST SWAP2 POP POP SWAP3 POP SWAP3 POP SWAP3 JUMP JUMPDEST PUSH2 0x2B9A DUP2 PUSH2 0x2B02 JUMP JUMPDEST DUP2 EQ PUSH2 0x2BA5 JUMPI PUSH1 0x0 DUP1 REVERT JUMPDEST POP JUMP JUMPDEST PUSH1 0x0 DUP2 CALLDATALOAD SWAP1 POP PUSH2 0x2BB7 DUP2 PUSH2 0x2B91 JUMP JUMPDEST SWAP3 SWAP2 POP POP JUMP JUMPDEST PUSH1 0x0 DUP1 PUSH1 0x40 DUP4 DUP6 SUB SLT ISZERO PUSH2 0x2BD4 JUMPI PUSH2 0x2BD3 PUSH2 0x266F JUMP JUMPDEST JUMPDEST PUSH1 0x0 PUSH2 0x2BE2 DUP6 DUP3 DUP7 ADD PUSH2 0x2690 JUMP JUMPDEST SWAP3 POP POP PUSH1 0x20 PUSH2 0x2BF3 DUP6 DUP3 DUP7 ADD PUSH2 0x2BA8 JUMP JUMPDEST SWAP2 POP POP SWAP3 POP SWAP3 SWAP1 POP JUMP JUMPDEST PUSH1 0x0 DUP2 MLOAD SWAP1 POP SWAP2 SWAP1 POP JUMP JUMPDEST PUSH1 0x0 DUP3 DUP3 MSTORE PUSH1 0x20 DUP3 ADD SWAP1 POP SWAP3 SWAP2 POP POP JUMP JUMPDEST PUSH1 0x0 DUP2 SWAP1 POP PUSH1 0x20 DUP3 ADD SWAP1 POP SWAP2 SWAP1 POP JUMP JUMPDEST PUSH1 0x0 DUP2 MLOAD SWAP1 POP SWAP2 SWAP1 POP JUMP JUMPDEST PUSH1 0x0 DUP3 DUP3 MSTORE PUSH1 0x20 DUP3 ADD SWAP1 POP SWAP3 SWAP2 POP POP JUMP JUMPDEST PUSH1 0x0 JUMPDEST DUP4 DUP2 LT ISZERO PUSH2 0x2C63 JUMPI DUP1 DUP3 ADD MLOAD DUP2 DUP5 ADD MSTORE PUSH1 0x20 DUP2 ADD SWAP1 POP PUSH2 0x2C48 JUMP JUMPDEST PUSH1 0x0 DUP5 DUP5 ADD MSTORE POP POP POP POP JUMP JUMPDEST PUSH1 0x0 PUSH1 0x1F NOT PUSH1 0x1F DUP4 ADD AND SWAP1 POP SWAP2 SWAP1 POP JUMP JUMPDEST PUSH1 0x0 PUSH2 0x2C8B DUP3 PUSH2 0x2C29 JUMP JUMPDEST PUSH2 0x2C95 DUP2 DUP6 PUSH2 0x2C34 JUMP JUMPDEST SWAP4 POP PUSH2 0x2CA5 DUP2 DUP6 PUSH1 0x20 DUP7 ADD PUSH2 0x2C45 JUMP JUMPDEST PUSH2 0x2CAE DUP2 PUSH2 0x2C6F JUMP JUMPDEST DUP5 ADD SWAP2 POP POP SWAP3 SWAP2 POP POP JUMP JUMPDEST PUSH1 0x0 PUSH2 0x100 DUP4 ADD PUSH1 0x0 DUP4 ADD MLOAD PUSH2 0x2CD2 PUSH1 0x0 DUP7 ADD DUP3 PUSH2 0x2711 JUMP JUMPDEST POP PUSH1 0x20 DUP4 ADD MLOAD DUP5 DUP3 SUB PUSH1 0x20 DUP7 ADD MSTORE PUSH2 0x2CEA DUP3 DUP3 PUSH2 0x2C80 JUMP JUMPDEST SWAP2 POP POP PUSH1 0x40 DUP4 ADD MLOAD DUP5 DUP3 SUB PUSH1 0x40 DUP7 ADD MSTORE PUSH2 0x2D04 DUP3 DUP3 PUSH2 0x2C80 JUMP JUMPDEST SWAP2 POP POP PUSH1 0x60 DUP4 ADD MLOAD PUSH2 0x2D19 PUSH1 0x60 DUP7 ADD DUP3 PUSH2 0x2730 JUMP JUMPDEST POP PUSH1 0x80 DUP4 ADD MLOAD PUSH2 0x2D2C PUSH1 0x80 DUP7 ADD DUP3 PUSH2 0x2730 JUMP JUMPDEST POP PUSH1 0xA0 DUP4 ADD MLOAD PUSH2 0x2D3F PUSH1 0xA0 DUP7 ADD DUP3 PUSH2 0x274B JUMP JUMPDEST POP PUSH1 0xC0 DUP4 ADD MLOAD PUSH2 0x2D52 PUSH1 0xC0 DUP7 ADD DUP3 PUSH2 0x274B JUMP JUMPDEST POP PUSH1 0xE0 DUP4 ADD MLOAD PUSH2 0x2D65 PUSH1 0xE0 DUP7 ADD DUP3 PUSH2 0x2711 JUMP JUMPDEST POP DUP1 SWAP2 POP POP SWAP3 SWAP2 POP POP JUMP JUMPDEST PUSH1 0x0 PUSH2 0x2D7C DUP4 DUP4 PUSH2 0x2CB9 JUMP JUMPDEST SWAP1 POP SWAP3 SWAP2 POP POP JUMP JUMPDEST PUSH1 0x0 PUSH1 0x20 DUP3 ADD SWAP1 POP SWAP2 SWAP1 POP JUMP JUMPDEST PUSH1 0x0 PUSH2 0x2D9C DUP3 PUSH2 0x2BFD JUMP JUMPDEST PUSH2 0x2DA6 DUP2 DUP6 PUSH2 0x2C08 JUMP JUMPDEST SWAP4 POP DUP4 PUSH1 0x20 DUP3 MUL DUP6 ADD PUSH2 0x2DB8 DUP6 PUSH2 0x2C19 JUMP JUMPDEST DUP1 PUSH1 0x0 JUMPDEST DUP6 DUP2 LT ISZERO PUSH2 0x2DF4 JUMPI DUP5 DUP5 SUB DUP10 MSTORE DUP2 MLOAD PUSH2 0x2DD5 DUP6 DUP3 PUSH2 0x2D70 JUMP JUMPDEST SWAP5 POP PUSH2 0x2DE0 DUP4 PUSH2 0x2D84 JUMP JUMPDEST SWAP3 POP PUSH1 0x20 DUP11 ADD SWAP10 POP POP PUSH1 0x1 DUP2 ADD SWAP1 POP PUSH2 0x2DBC JUMP JUMPDEST POP DUP3 SWAP8 POP DUP8 SWAP6 POP POP POP POP POP POP SWAP3 SWAP2 POP POP JUMP JUMPDEST PUSH1 0x0 PUSH1 0x60 DUP3 ADD SWAP1 POP DUP2 DUP2 SUB PUSH1 0x0 DUP4 ADD MSTORE PUSH2 0x2E20 DUP2 DUP7 PUSH2 0x2D91 JUMP JUMPDEST SWAP1 POP PUSH2 0x2E2F PUSH1 0x20 DUP4 ADD DUP6 PUSH2 0x2915 JUMP JUMPDEST PUSH2 0x2E3C PUSH1 0x40 DUP4 ADD DUP5 PUSH2 0x2915 JUMP JUMPDEST SWAP5 SWAP4 POP POP POP POP JUMP JUMPDEST PUSH1 0x0 PUSH1 0x20 DUP3 DUP5 SUB SLT ISZERO PUSH2 0x2E5A JUMPI PUSH2 0x2E59 PUSH2 0x266F JUMP JUMPDEST JUMPDEST PUSH1 0x0 PUSH2 0x2E68 DUP5 DUP3 DUP6 ADD PUSH2 0x2BA8 JUMP JUMPDEST SWAP2 POP POP SWAP3 SWAP2 POP POP JUMP JUMPDEST PUSH1 0x0 PUSH1 0x20 DUP3 DUP5 SUB SLT ISZERO PUSH2 0x2E87 JUMPI PUSH2 0x2E86 PUSH2 0x266F JUMP JUMPDEST JUMPDEST PUSH1 0x0 PUSH2 0x2E95 DUP5 DUP3 DUP6 ADD PUSH2 0x2690 JUMP JUMPDEST SWAP2 POP POP SWAP3 SWAP2 POP POP JUMP JUMPDEST PUSH2 0x2EA7 DUP2 PUSH2 0x273F JUMP JUMPDEST DUP2 EQ PUSH2 0x2EB2 JUMPI PUSH1 0x0 DUP1 REVERT JUMPDEST POP JUMP JUMPDEST PUSH1 0x0 DUP2 CALLDATALOAD SWAP1 POP PUSH2 0x2EC4 DUP2 PUSH2 0x2E9E JUMP JUMPDEST SWAP3 SWAP2 POP POP JUMP JUMPDEST PUSH1 0x0 DUP1 PUSH1 0x40 DUP4 DUP6 SUB SLT ISZERO PUSH2 0x2EE1 JUMPI PUSH2 0x2EE0 PUSH2 0x266F JUMP JUMPDEST JUMPDEST PUSH1 0x0 PUSH2 0x2EEF DUP6 DUP3 DUP7 ADD PUSH2 0x2690 JUMP JUMPDEST SWAP3 POP POP PUSH1 0x20 PUSH2 0x2F00 DUP6 DUP3 DUP7 ADD PUSH2 0x2EB5 JUMP JUMPDEST SWAP2 POP POP SWAP3 POP SWAP3 SWAP1 POP JUMP JUMPDEST PUSH1 0x0 DUP3 DUP3 MSTORE PUSH1 0x20 DUP3 ADD SWAP1 POP SWAP3 SWAP2 POP POP JUMP JUMPDEST PUSH32 0x756E617574686F72697A65640000000000000000000000000000000000000000 PUSH1 0x0 DUP3 ADD MSTORE POP JUMP JUMPDEST PUSH1 0x0 PUSH2 0x2F51 PUSH1 0xC DUP4 PUSH2 0x2F0A JUMP JUMPDEST SWAP2 POP PUSH2 0x2F5C DUP3 PUSH2 0x2F1B JUMP JUMPDEST PUSH1 0x20 DUP3 ADD SWAP1 POP SWAP2 SWAP1 POP JUMP JUMPDEST PUSH1 0x0 PUSH1 0x20 DUP3 ADD SWAP1 POP DUP2 DUP2 SUB PUSH1 0x0 DUP4 ADD MSTORE PUSH2 0x2F80 DUP2 PUSH2 0x2F44 JUMP JUMPDEST SWAP1 POP SWAP2 SWAP1 POP JUMP JUMPDEST PUSH1 0x0 DUP3 SWAP1 POP SWAP3 SWAP2 POP POP JUMP JUMPDEST PUSH32 0x4E487B7100000000000000000000000000000000000000000000000000000000 PUSH1 0x0 MSTORE PUSH1 0x41 PUSH1 0x4 MSTORE PUSH1 0x24 PUSH1 0x0 REVERT JUMPDEST PUSH32 0x4E487B7100000000000000000000000000000000000000000000000000000000 PUSH1 0x0 MSTORE PUSH1 0x22 PUSH1 0x4 MSTORE PUSH1 0x24 PUSH1 0x0 REVERT JUMPDEST PUSH1 0x0 PUSH1 0x2 DUP3 DIV SWAP1 POP PUSH1 0x1 DUP3 AND DUP1 PUSH2 0x3008 JUMPI PUSH1 0x7F DUP3 AND SWAP2 POP JUMPDEST PUSH1 0x20 DUP3 LT DUP2 SUB PUSH2 0x301B JUMPI PUSH2 0x301A PUSH2 0x2FC1 JUMP JUMPDEST JUMPDEST POP SWAP2 SWAP1 POP JUMP JUMPDEST PUSH1 0x0 DUP2 SWAP1 POP DUP2 PUSH1 0x0 MSTORE PUSH1 0x20 PUSH1 0x0 KECCAK256 SWAP1 POP SWAP2 SWAP1 POP JUMP JUMPDEST PUSH1 0x0 PUSH1 0x20 PUSH1 0x1F DUP4 ADD DIV SWAP1 POP SWAP2 SWAP1 POP JUMP JUMPDEST PUSH1 0x0 DUP3 DUP3 SHL SWAP1 POP SWAP3 SWAP2 POP POP JUMP JUMPDEST PUSH1 0x0 PUSH1 0x8 DUP4 MUL PUSH2 0x3083 PUSH32 0xFFFFFFFFFFFFFFFFFFFFFFFFFFFFFFFFFFFFFFFFFFFFFFFFFFFFFFFFFFFFFFFF DUP3 PUSH2 0x3046 JUMP JUMPDEST PUSH2 0x308D DUP7 DUP4 PUSH2 0x3046 JUMP JUMPDEST SWAP6 POP DUP1 NOT DUP5 AND SWAP4 POP DUP1 DUP7 AND DUP5 OR SWAP3 POP POP POP SWAP4 SWAP3 POP POP POP JUMP JUMPDEST PUSH1 0x0 DUP2 SWAP1 POP SWAP2 SWAP1 POP JUMP JUMPDEST PUSH1 0x0 PUSH2 0x30CA PUSH2 0x30C5 PUSH2 0x30C0 DUP5 PUSH2 0x263B JUMP JUMPDEST PUSH2 0x30A5 JUMP JUMPDEST PUSH2 0x263B JUMP JUMPDEST SWAP1 POP SWAP2 SWAP1 POP JUMP JUMPDEST PUSH1 0x0 DUP2 SWAP1 POP SWAP2 SWAP1 POP JUMP JUMPDEST PUSH2 0x30E4 DUP4 PUSH2 0x30AF JUMP JUMPDEST PUSH2 0x30F8 PUSH2 0x30F0 DUP3 PUSH2 0x30D1 JUMP JUMPDEST DUP5 DUP5 SLOAD PUSH2 0x3053 JUMP JUMPDEST DUP3 SSTORE POP POP POP POP JUMP JUMPDEST PUSH1 0x0 SWAP1 JUMP JUMPDEST PUSH2 0x310D PUSH2 0x3100 JUMP JUMPDEST PUSH2 0x3118 DUP2 DUP5 DUP5 PUSH2 0x30DB JUMP JUMPDEST POP POP POP JUMP JUMPDEST JUMPDEST DUP2 DUP2 LT ISZERO PUSH2 0x313C JUMPI PUSH2 0x3131 PUSH1 0x0 DUP3 PUSH2 0x3105 JUMP JUMPDEST PUSH1 0x1 DUP2 ADD SWAP1 POP PUSH2 0x311E JUMP JUMPDEST POP POP JUMP JUMPDEST PUSH1 0x1F DUP3 GT ISZERO PUSH2 0x3181 JUMPI PUSH2 0x3152 DUP2 PUSH2 0x3021 JUMP JUMPDEST PUSH2 0x315B DUP5 PUSH2 0x3036 JUMP JUMPDEST DUP2 ADD PUSH1 0x20 DUP6 LT ISZERO PUSH2 0x316A JUMPI DUP2 SWAP1 POP JUMPDEST PUSH2 0x317E PUSH2 0x3176 DUP6 PUSH2 0x3036 JUMP JUMPDEST DUP4 ADD DUP3 PUSH2 0x311D JUMP JUMPDEST POP POP JUMPDEST POP POP POP JUMP JUMPDEST PUSH1 0x0 DUP3 DUP3 SHR SWAP1 POP SWAP3 SWAP2 POP POP JUMP JUMPDEST PUSH1 0x0 PUSH2 0x31A4 PUSH1 0x0 NOT DUP5 PUSH1 0x8 MUL PUSH2 0x3186 JUMP JUMPDEST NOT DUP1 DUP4 AND SWAP2 POP POP SWAP3 SWAP2 POP POP JUMP JUMPDEST PUSH1 0x0 PUSH2 0x31BD DUP4 DUP4 PUSH2 0x3193 JUMP JUMPDEST SWAP2 POP DUP3 PUSH1 0x2 MUL DUP3 OR SWAP1 POP SWAP3 SWAP2 POP POP JUMP JUMPDEST PUSH2 0x31D7 DUP4 DUP4 PUSH2 0x2F87 JUMP JUMPDEST PUSH8 0xFFFFFFFFFFFFFFFF DUP2 GT ISZERO PUSH2 0x31F0 JUMPI PUSH2 0x31EF PUSH2 0x2F92 JUMP JUMPDEST JUMPDEST PUSH2 0x31FA DUP3 SLOAD PUSH2 0x2FF0 JUMP JUMPDEST PUSH2 0x3205 DUP3 DUP3 DUP6 PUSH2 0x3140 JUMP JUMPDEST PUSH1 0x0 PUSH1 0x1F DUP4 GT PUSH1 0x1 DUP2 EQ PUSH2 0x3234 JUMPI PUSH1 0x0 DUP5 ISZERO PUSH2 0x3222 JUMPI DUP3 DUP8 ADD CALLDATALOAD SWAP1 POP JUMPDEST PUSH2 0x322C DUP6 DUP3 PUSH2 0x31B1 JUMP JUMPDEST DUP7 SSTORE POP PUSH2 0x3294 JUMP JUMPDEST PUSH1 0x1F NOT DUP5 AND PUSH2 0x3242 DUP7 PUSH2 0x3021 JUMP JUMPDEST PUSH1 0x0 JUMPDEST DUP3 DUP2 LT ISZERO PUSH2 0x326A JUMPI DUP5 DUP10 ADD CALLDATALOAD DUP3 SSTORE PUSH1 0x1 DUP3 ADD SWAP2 POP PUSH1 0x20 DUP6 ADD SWAP5 POP PUSH1 0x20 DUP2 ADD SWAP1 POP PUSH2 0x3245 JUMP JUMPDEST DUP7 DUP4 LT ISZERO PUSH2 0x3287 JUMPI DUP5 DUP10 ADD CALLDATALOAD PUSH2 0x3283 PUSH1 0x1F DUP10 AND DUP3 PUSH2 0x3193 JUMP JUMPDEST DUP4 SSTORE POP JUMPDEST PUSH1 0x1 PUSH1 0x2 DUP9 MUL ADD DUP9 SSTORE POP POP POP JUMPDEST POP POP POP POP POP POP POP JUMP JUMPDEST PUSH32 0x4E487B7100000000000000000000000000000000000000000000000000000000 PUSH1 0x0 MSTORE PUSH1 0x11 PUSH1 0x4 MSTORE PUSH1 0x24 PUSH1 0x0 REVERT JUMPDEST PUSH1 0x0 PUSH2 0x32D7 DUP3 PUSH2 0x263B JUMP JUMPDEST SWAP2 POP PUSH2 0x32E2 DUP4 PUSH2 0x263B JUMP JUMPDEST SWAP3 POP DUP3 DUP3 ADD SWAP1 POP DUP1 DUP3 GT ISZERO PUSH2 0x32FA JUMPI PUSH2 0x32F9 PUSH2 0x329D JUMP JUMPDEST JUMPDEST SWAP3 SWAP2 POP POP JUMP JUMPDEST PUSH1 0x0 PUSH2 0x330B DUP3 PUSH2 0x263B JUMP JUMPDEST SWAP2 POP PUSH2 0x3316 DUP4 PUSH2 0x263B JUMP JUMPDEST SWAP3 POP DUP3 DUP3 SUB SWAP1 POP DUP2 DUP2 GT ISZERO PUSH2 0x332E JUMPI PUSH2 0x332D PUSH2 0x329D JUMP JUMPDEST JUMPDEST SWAP3 SWAP2 POP POP JUMP JUMPDEST PUSH32 0x4E487B7100000000000000000000000000000000000000000000000000000000 PUSH1 0x0 MSTORE PUSH1 0x32 PUSH1 0x4 MSTORE PUSH1 0x24 PUSH1 0x0 REVERT JUMPDEST PUSH1 0x0 PUSH2 0x336E DUP3 PUSH2 0x263B JUMP JUMPDEST SWAP2 POP PUSH1 0x0 DUP3 SUB PUSH2 0x3381 JUMPI PUSH2 0x3380 PUSH2 0x329D JUMP JUMPDEST JUMPDEST PUSH1 0x1 DUP3 SUB SWAP1 POP SWAP2 SWAP1 POP JUMP JUMPDEST PUSH32 0x6D6174636820616C72656164792066696E697368656400000000000000000000 PUSH1 0x0 DUP3 ADD MSTORE POP JUMP JUMPDEST PUSH1 0x0 PUSH2 0x33C2 PUSH1 0x16 DUP4 PUSH2 0x2F0A JUMP JUMPDEST SWAP2 POP PUSH2 0x33CD DUP3 PUSH2 0x338C JUMP JUMPDEST PUSH1 0x20 DUP3 ADD SWAP1 POP SWAP2 SWAP1 POP JUMP JUMPDEST PUSH1 0x0 PUSH1 0x20 DUP3 ADD SWAP1 POP DUP2 DUP2 SUB PUSH1 0x0 DUP4 ADD MSTORE PUSH2 0x33F1 DUP2 PUSH2 0x33B5 JUMP JUMPDEST SWAP1 POP SWAP2 SWAP1 POP JUMP JUMPDEST PUSH32 0x6D617463684964206E6F74206578697374656400000000000000000000000000 PUSH1 0x0 DUP3 ADD MSTORE POP JUMP JUMPDEST PUSH1 0x0 PUSH2 0x342E PUSH1 0x13 DUP4 PUSH2 0x2F0A JUMP JUMPDEST SWAP2 POP PUSH2 0x3439 DUP3 PUSH2 0x33F8 JUMP JUMPDEST PUSH1 0x20 DUP3 ADD SWAP1 POP SWAP2 SWAP1 POP JUMP JUMPDEST PUSH1 0x0 PUSH1 0x20 DUP3 ADD SWAP1 POP DUP2 DUP2 SUB PUSH1 0x0 DUP4 ADD MSTORE PUSH2 0x345D DUP2 PUSH2 0x3421 JUMP JUMPDEST SWAP1 POP SWAP2 SWAP1 POP JUMP JUMPDEST PUSH32 0x746865206D6174636820697320616C726561792066696E697368656400000000 PUSH1 0x0 DUP3 ADD MSTORE POP JUMP JUMPDEST PUSH1 0x0 PUSH2 0x349A PUSH1 0x1C DUP4 PUSH2 0x2F0A JUMP JUMPDEST SWAP2 POP PUSH2 0x34A5 DUP3 PUSH2 0x3464 JUMP JUMPDEST PUSH1 0x20 DUP3 ADD SWAP1 POP SWAP2 SWAP1 POP JUMP JUMPDEST PUSH1 0x0 PUSH1 0x20 DUP3 ADD SWAP1 POP DUP2 DUP2 SUB PUSH1 0x0 DUP4 ADD MSTORE PUSH2 0x34C9 DUP2 PUSH2 0x348D JUMP JUMPDEST SWAP1 POP SWAP2 SWAP1 POP JUMP JUMPDEST PUSH32 0x62657474696E6720706F7374206E6F7420666F756E6400000000000000000000 PUSH1 0x0 DUP3 ADD MSTORE POP JUMP JUMPDEST PUSH1 0x0 PUSH2 0x3506 PUSH1 0x16 DUP4 PUSH2 0x2F0A JUMP JUMPDEST SWAP2 POP PUSH2 0x3511 DUP3 PUSH2 0x34D0 JUMP JUMPDEST PUSH1 0x20 DUP3 ADD SWAP1 POP SWAP2 SWAP1 POP JUMP JUMPDEST PUSH1 0x0 PUSH1 0x20 DUP3 ADD SWAP1 POP DUP2 DUP2 SUB PUSH1 0x0 DUP4 ADD MSTORE PUSH2 0x3535 DUP2 PUSH2 0x34F9 JUMP JUMPDEST SWAP1 POP SWAP2 SWAP1 POP JUMP JUMPDEST PUSH32 0x6D61746368206973206E6F742066696E69736865640000000000000000000000 PUSH1 0x0 DUP3 ADD MSTORE POP JUMP JUMPDEST PUSH1 0x0 PUSH2 0x3572 PUSH1 0x15 DUP4 PUSH2 0x2F0A JUMP JUMPDEST SWAP2 POP PUSH2 0x357D DUP3 PUSH2 0x353C JUMP JUMPDEST PUSH1 0x20 DUP3 ADD SWAP1 POP SWAP2 SWAP1 POP JUMP JUMPDEST PUSH1 0x0 PUSH1 0x20 DUP3 ADD SWAP1 POP DUP2 DUP2 SUB PUSH1 0x0 DUP4 ADD MSTORE PUSH2 0x35A1 DUP2 PUSH2 0x3565 JUMP JUMPDEST SWAP1 POP SWAP2 SWAP1 POP JUMP JUMPDEST PUSH32 0x72657761726420616C726561647920636C61696D656400000000000000000000 PUSH1 0x0 DUP3 ADD MSTORE POP JUMP JUMPDEST PUSH1 0x0 PUSH2 0x35DE PUSH1 0x16 DUP4 PUSH2 0x2F0A JUMP JUMPDEST SWAP2 POP PUSH2 0x35E9 DUP3 PUSH2 0x35A8 JUMP JUMPDEST PUSH1 0x20 DUP3 ADD SWAP1 POP SWAP2 SWAP1 POP JUMP JUMPDEST PUSH1 0x0 PUSH1 0x20 DUP3 ADD SWAP1 POP DUP2 DUP2 SUB PUSH1 0x0 DUP4 ADD MSTORE PUSH2 0x360D DUP2 PUSH2 0x35D1 JUMP JUMPDEST SWAP1 POP SWAP2 SWAP1 POP JUMP JUMPDEST PUSH1 0x0 PUSH2 0x361F DUP3 PUSH2 0x2720 JUMP JUMPDEST SWAP2 POP PUSH2 0x362A DUP4 PUSH2 0x2720 JUMP JUMPDEST SWAP3 POP DUP3 DUP3 ADD SWAP1 POP PUSH4 0xFFFFFFFF DUP2 GT ISZERO PUSH2 0x3646 JUMPI PUSH2 0x3645 PUSH2 0x329D JUMP JUMPDEST JUMPDEST SWAP3 SWAP2 POP POP JUMP JUMPDEST PUSH1 0x0 PUSH2 0x3657 DUP3 PUSH2 0x263B JUMP JUMPDEST SWAP2 POP PUSH2 0x3662 DUP4 PUSH2 0x263B JUMP JUMPDEST SWAP3 POP DUP3 DUP3 MUL PUSH2 0x3670 DUP2 PUSH2 0x263B JUMP JUMPDEST SWAP2 POP DUP3 DUP3 DIV DUP5 EQ DUP4 ISZERO OR PUSH2 0x3687 JUMPI PUSH2 0x3686 PUSH2 0x329D JUMP JUMPDEST JUMPDEST POP SWAP3 SWAP2 POP POP JUMP JUMPDEST PUSH32 0x706F7374206E6F74206578697374000000000000000000000000000000000000 PUSH1 0x0 DUP3 ADD MSTORE POP JUMP JUMPDEST PUSH1 0x0 PUSH2 0x36C4 PUSH1 0xE DUP4 PUSH2 0x2F0A JUMP JUMPDEST SWAP2 POP PUSH2 0x36CF DUP3 PUSH2 0x368E JUMP JUMPDEST PUSH1 0x20 DUP3 ADD SWAP1 POP SWAP2 SWAP1 POP JUMP JUMPDEST PUSH1 0x0 PUSH1 0x20 DUP3 ADD SWAP1 POP DUP2 DUP2 SUB PUSH1 0x0 DUP4 ADD MSTORE PUSH2 0x36F3 DUP2 PUSH2 0x36B7 JUMP JUMPDEST SWAP1 POP SWAP2 SWAP1 POP JUMP JUMPDEST PUSH32 0x626574206E6F742076616C696400000000000000000000000000000000000000 PUSH1 0x0 DUP3 ADD MSTORE POP JUMP JUMPDEST PUSH1 0x0 PUSH2 0x3730 PUSH1 0xD DUP4 PUSH2 0x2F0A JUMP JUMPDEST SWAP2 POP PUSH2 0x373B DUP3 PUSH2 0x36FA JUMP JUMPDEST PUSH1 0x20 DUP3 ADD SWAP1 POP SWAP2 SWAP1 POP JUMP JUMPDEST PUSH1 0x0 PUSH1 0x20 DUP3 ADD SWAP1 POP DUP2 DUP2 SUB PUSH1 0x0 DUP4 ADD MSTORE PUSH2 0x375F DUP2 PUSH2 0x3723 JUMP JUMPDEST SWAP1 POP SWAP2 SWAP1 POP JUMP JUMPDEST PUSH32 0x796F7520616C7265616479206D616B65206120626574206F6E20746869732070 PUSH1 0x0 DUP3 ADD MSTORE PUSH32 0x6F73740000000000000000000000000000000000000000000000000000000000 PUSH1 0x20 DUP3 ADD MSTORE POP JUMP JUMPDEST PUSH1 0x0 PUSH2 0x37C2 PUSH1 0x23 DUP4 PUSH2 0x2F0A JUMP JUMPDEST SWAP2 POP PUSH2 0x37CD DUP3 PUSH2 0x3766 JUMP JUMPDEST PUSH1 0x40 DUP3 ADD SWAP1 POP SWAP2 SWAP1 POP JUMP JUMPDEST PUSH1 0x0 PUSH1 0x20 DUP3 ADD SWAP1 POP DUP2 DUP2 SUB PUSH1 0x0 DUP4 ADD MSTORE PUSH2 0x37F1 DUP2 PUSH2 0x37B5 JUMP JUMPDEST SWAP1 POP SWAP2 SWAP1 POP JUMP JUMPDEST PUSH1 0x0 DUP2 MLOAD SWAP1 POP SWAP2 SWAP1 POP JUMP JUMPDEST PUSH1 0x0 DUP2 SWAP1 POP SWAP3 SWAP2 POP POP JUMP JUMPDEST PUSH1 0x0 PUSH2 0x3819 DUP3 PUSH2 0x37F8 JUMP JUMPDEST PUSH2 0x3823 DUP2 DUP6 PUSH2 0x3803 JUMP JUMPDEST SWAP4 POP PUSH2 0x3833 DUP2 DUP6 PUSH1 0x20 DUP7 ADD PUSH2 0x2C45 JUMP JUMPDEST DUP1 DUP5 ADD SWAP2 POP POP SWAP3 SWAP2 POP POP JUMP JUMPDEST PUSH1 0x0 PUSH2 0x384B DUP3 DUP5 PUSH2 0x380E JUMP JUMPDEST SWAP2 POP DUP2 SWAP1 POP SWAP3 SWAP2 POP POP JUMP JUMPDEST PUSH32 0x7472616E73666572206572726F72000000000000000000000000000000000000 PUSH1 0x0 DUP3 ADD MSTORE POP JUMP JUMPDEST PUSH1 0x0 PUSH2 0x388C PUSH1 0xE DUP4 PUSH2 0x2F0A JUMP JUMPDEST SWAP2 POP PUSH2 0x3897 DUP3 PUSH2 0x3856 JUMP JUMPDEST PUSH1 0x20 DUP3 ADD SWAP1 POP SWAP2 SWAP1 POP JUMP JUMPDEST PUSH1 0x0 PUSH1 0x20 DUP3 ADD SWAP1 POP DUP2 DUP2 SUB PUSH1 0x0 DUP4 ADD MSTORE PUSH2 0x38BB DUP2 PUSH2 0x387F JUMP JUMPDEST SWAP1 POP SWAP2 SWAP1 POP JUMP INVALID LOG2 PUSH5 0x6970667358 0x22 SLT KECCAK256 SELFBALANCE 0xC8 0xB5 RETURN SWAP12 0xAA PUSH15 0xE1B91A38BB1B4A51F06D992F166EDF 0x28 SWAP15 PUSH0 0xEF DUP2 0xB8 PUSH23 0x3AACBD64736F6C634300081B0033000000000000000000 "
        },
        "methodIdentifiers": {
          "changeOwner(address)": "a6f9dae1",
          "contributeToBettingPost(uint256)": "aaa3cdf4",
          "createBettingPost(uint256,uint32,uint32)": "b6806e57",
          "createMatch(string,string)": "57447733",
          "finishMatch(uint256,uint32,uint32)": "7f8206ad",
          "getActiveMatchSortByLatestWithPagination(uint256,uint256)": "a0579644",
          "getMyBettingPostsAsBankerWithPagination(uint256,uint256)": "47071b43",
          "getOwner()": "893d20e8",
          "getPostsByMatchIdSortByLatestWithPagination(uint256,uint256,uint256)": "9058fa1e",
          "getPostsIBetInWithPagination(uint256,uint256)": "3a3567b6",
          "getStakeInPostByUserAddress(uint256,address)": "91293d5a",
          "makeABet(uint256,bool)": "e7587ea5",
          "nBetting()": "69cc08d3",
          "nMatch()": "17c77e26",
          "playerClaimBettingReward(uint256)": "d927b1b8"
        }
      }
    }
  }
}