{
  "contracts/casinoPlatform.sol": {
    "CasinoPlatform": {
      "abi": [
        {
          "inputs": [],
          "stateMutability": "nonpayable",
          "type": "constructor"
        },
        {
          "inputs": [
            {
              "internalType": "address",
              "name": "newOwner",
              "type": "address"
            }
          ],
          "name": "changeOwner",
          "outputs": [],
          "stateMutability": "nonpayable",
          "type": "function"
        },
        {
          "inputs": [
            {
              "internalType": "uint256",
              "name": "postId",
              "type": "uint256"
            }
          ],
          "name": "contributeToBettingPost",
          "outputs": [
            {
              "internalType": "bool",
              "name": "success",
              "type": "bool"
            }
          ],
          "stateMutability": "payable",
          "type": "function"
        },
        {
          "inputs": [
            {
              "internalType": "uint256",
              "name": "matchId",
              "type": "uint256"
            },
            {
              "internalType": "uint32",
              "name": "homeHandicapScore",
              "type": "uint32"
            },
            {
              "internalType": "uint32",
              "name": "awayHandicapScore",
              "type": "uint32"
            }
          ],
          "name": "createBettingPost",
          "outputs": [
            {
              "internalType": "uint256",
              "name": "newPostId",
              "type": "uint256"
            }
          ],
          "stateMutability": "payable",
          "type": "function"
        },
        {
          "inputs": [
            {
              "internalType": "string",
              "name": "home",
              "type": "string"
            },
            {
              "internalType": "string",
              "name": "away",
              "type": "string"
            }
          ],
          "name": "createMatch",
          "outputs": [
            {
              "internalType": "uint256",
              "name": "",
              "type": "uint256"
            }
          ],
          "stateMutability": "nonpayable",
          "type": "function"
        },
        {
          "inputs": [
            {
              "internalType": "uint256",
              "name": "matchId",
              "type": "uint256"
            },
            {
              "internalType": "uint32",
              "name": "homeScore",
              "type": "uint32"
            },
            {
              "internalType": "uint32",
              "name": "awayScore",
              "type": "uint32"
            }
          ],
          "name": "finishMatch",
          "outputs": [
            {
              "internalType": "bool",
              "name": "",
              "type": "bool"
            }
          ],
          "stateMutability": "nonpayable",
          "type": "function"
        },
        {
          "inputs": [
            {
              "internalType": "uint256",
              "name": "nData",
              "type": "uint256"
            },
            {
              "internalType": "uint256",
              "name": "pageNumber",
              "type": "uint256"
            }
          ],
          "name": "getActiveMatchSortByLatest",
          "outputs": [
            {
              "components": [
                {
                  "internalType": "uint256",
                  "name": "id",
                  "type": "uint256"
                },
                {
                  "internalType": "string",
                  "name": "home",
                  "type": "string"
                },
                {
                  "internalType": "string",
                  "name": "away",
                  "type": "string"
                },
                {
                  "internalType": "uint32",
                  "name": "homeScore",
                  "type": "uint32"
                },
                {
                  "internalType": "uint32",
                  "name": "awayScore",
                  "type": "uint32"
                },
                {
                  "internalType": "bool",
                  "name": "isFinished",
                  "type": "bool"
                },
                {
                  "internalType": "bool",
                  "name": "isInitialized",
                  "type": "bool"
                },
                {
                  "internalType": "uint256[]",
                  "name": "bettingPostIds",
                  "type": "uint256[]"
                }
              ],
              "internalType": "struct Match[]",
              "name": "activeMatches",
              "type": "tuple[]"
            },
            {
              "internalType": "bool",
              "name": "success",
              "type": "bool"
            },
            {
              "internalType": "bool",
              "name": "haveMorePageAvailable",
              "type": "bool"
            }
          ],
          "stateMutability": "view",
          "type": "function"
        },
        {
          "inputs": [],
          "name": "getOwner",
          "outputs": [
            {
              "internalType": "address",
              "name": "",
              "type": "address"
            }
          ],
          "stateMutability": "view",
          "type": "function"
        },
        {
          "inputs": [
            {
              "internalType": "uint256",
              "name": "postId",
              "type": "uint256"
            },
            {
              "internalType": "address",
              "name": "user",
              "type": "address"
            }
          ],
          "name": "getStakeInPostByUserAddress",
          "outputs": [
            {
              "internalType": "uint256",
              "name": "",
              "type": "uint256"
            }
          ],
          "stateMutability": "view",
          "type": "function"
        },
        {
          "inputs": [
            {
              "internalType": "uint256",
              "name": "postId",
              "type": "uint256"
            },
            {
              "internalType": "bool",
              "name": "isHomeBet",
              "type": "bool"
            }
          ],
          "name": "makeABet",
          "outputs": [
            {
              "internalType": "bool",
              "name": "",
              "type": "bool"
            }
          ],
          "stateMutability": "payable",
          "type": "function"
        },
        {
          "inputs": [],
          "name": "nBetting",
          "outputs": [
            {
              "internalType": "uint256",
              "name": "",
              "type": "uint256"
            }
          ],
          "stateMutability": "view",
          "type": "function"
        },
        {
          "inputs": [],
          "name": "nMatch",
          "outputs": [
            {
              "internalType": "uint256",
              "name": "",
              "type": "uint256"
            }
          ],
          "stateMutability": "view",
          "type": "function"
        },
        {
          "inputs": [
            {
              "internalType": "uint256",
              "name": "postId",
              "type": "uint256"
            }
          ],
          "name": "playerClaimBettingReward",
          "outputs": [
            {
              "internalType": "bool",
              "name": "",
              "type": "bool"
            }
          ],
          "stateMutability": "nonpayable",
          "type": "function"
        }
      ],
      "evm": {
        "bytecode": {
          "linkReferences": {},
          "object": "6080604052348015600f57600080fd5b50336000806101000a81548173ffffffffffffffffffffffffffffffffffffffff021916908373ffffffffffffffffffffffffffffffffffffffff16021790555060006001819055506000600281905550612a578061006f6000396000f3fe6080604052600436106100a75760003560e01c8063a6f9dae111610064578063a6f9dae1146101e4578063aa64ec281461020d578063aaa3cdf41461024c578063b6806e571461027c578063d927b1b8146102ac578063e7587ea5146102e9576100a7565b806317c77e26146100ac57806357447733146100d757806369cc08d3146101145780637f8206ad1461013f578063893d20e81461017c57806391293d5a146101a7575b600080fd5b3480156100b857600080fd5b506100c1610319565b6040516100ce9190611975565b60405180910390f35b3480156100e357600080fd5b506100fe60048036038101906100f991906119ff565b61031f565b60405161010b9190611975565b60405180910390f35b34801561012057600080fd5b506101296104be565b6040516101369190611975565b60405180910390f35b34801561014b57600080fd5b5061016660048036038101906101619190611ae8565b6104c4565b6040516101739190611b56565b60405180910390f35b34801561018857600080fd5b506101916105f9565b60405161019e9190611bb2565b60405180910390f35b3480156101b357600080fd5b506101ce60048036038101906101c99190611bf9565b610622565b6040516101db9190611975565b60405180910390f35b3480156101f057600080fd5b5061020b60048036038101906102069190611c39565b610680565b005b34801561021957600080fd5b50610234600480360381019061022f9190611c66565b610751565b60405161024393929190611f92565b60405180910390f35b61026660048036038101906102619190611fd0565b610af3565b6040516102739190611b56565b60405180910390f35b61029660048036038101906102919190611ae8565b610c0f565b6040516102a39190611975565b60405180910390f35b3480156102b857600080fd5b506102d360048036038101906102ce9190611fd0565b610eee565b6040516102e09190611b56565b60405180910390f35b61030360048036038101906102fe9190612029565b6112ce565b6040516103109190611b56565b60405180910390f35b60025481565b60008060009054906101000a900473ffffffffffffffffffffffffffffffffffffffff1673ffffffffffffffffffffffffffffffffffffffff163373ffffffffffffffffffffffffffffffffffffffff16146103b0576040517f08c379a00000000000000000000000000000000000000000000000000000000081526004016103a7906120c6565b60405180910390fd5b60025460036000600254815260200190815260200160002060000181905550848460036000600254815260200190815260200160002060010191826103f692919061232c565b508282600360006002548152602001908152602001600020600201918261041e92919061232c565b50600060036000600254815260200190815260200160002060030160086101000a81548160ff021916908315150217905550600160036000600254815260200190815260200160002060030160096101000a81548160ff021916908315150217905550600160026000828254610494919061242b565b92505081905550600360006002548152602001908152602001600020600001549050949350505050565b60015481565b60008060009054906101000a900473ffffffffffffffffffffffffffffffffffffffff1673ffffffffffffffffffffffffffffffffffffffff163373ffffffffffffffffffffffffffffffffffffffff1614610555576040517f08c379a000000000000000000000000000000000000000000000000000000000815260040161054c906120c6565b60405180910390fd5b826003600086815260200190815260200160002060030160006101000a81548163ffffffff021916908363ffffffff160217905550816003600086815260200190815260200160002060030160046101000a81548163ffffffff021916908363ffffffff16021790555060016003600086815260200190815260200160002060030160086101000a81548160ff021916908315150217905550600190509392505050565b60008060009054906101000a900473ffffffffffffffffffffffffffffffffffffffff16905090565b60006004600084815260200190815260200160002060030160008373ffffffffffffffffffffffffffffffffffffffff1673ffffffffffffffffffffffffffffffffffffffff16815260200190815260200160002054905092915050565b60008054906101000a900473ffffffffffffffffffffffffffffffffffffffff1673ffffffffffffffffffffffffffffffffffffffff163373ffffffffffffffffffffffffffffffffffffffff161461070e576040517f08c379a0000000000000000000000000000000000000000000000000000000008152600401610705906120c6565b60405180910390fd5b806000806101000a81548173ffffffffffffffffffffffffffffffffffffffff021916908373ffffffffffffffffffffffffffffffffffffffff16021790555050565b606060008060008060006002546001898961076c919061245f565b610776919061242b565b119050801561078f576000945060009350505050610aec565b6001888861079d919061245f565b6002546107aa91906124a1565b6107b491906124a1565b925060006001846107c5919061242b565b8911905080156107d857600092506107f3565b886001856107e6919061242b565b6107f091906124a1565b92505b60006001848661080391906124a1565b61080d919061242b565b90508067ffffffffffffffff811115610829576108286120f1565b5b60405190808252806020026020018201604052801561086257816020015b61084f611907565b8152602001906001900390816108475790505b50975060008590505b848110610adb576000818761088091906124a1565b90506003600083815260200190815260200160002060405180610100016040529081600082015481526020016001820180546108bb9061214f565b80601f01602080910402602001604051908101604052809291908181526020018280546108e79061214f565b80156109345780601f1061090957610100808354040283529160200191610934565b820191906000526020600020905b81548152906001019060200180831161091757829003601f168201915b5050505050815260200160028201805461094d9061214f565b80601f01602080910402602001604051908101604052809291908181526020018280546109799061214f565b80156109c65780601f1061099b576101008083540402835291602001916109c6565b820191906000526020600020905b8154815290600101906020018083116109a957829003601f168201915b505050505081526020016003820160009054906101000a900463ffffffff1663ffffffff1663ffffffff1681526020016003820160049054906101000a900463ffffffff1663ffffffff1663ffffffff1681526020016003820160089054906101000a900460ff161515151581526020016003820160099054906101000a900460ff1615151515815260200160048201805480602002602001604051908101604052809291908181526020018280548015610aa057602002820191906000526020600020905b815481526020019060010190808311610a8c575b5050505050815250508a8281518110610abc57610abb6124d5565b5b6020026020010181905250508080610ad390612504565b91505061086b565b506001965060008411955050505050505b9250925092565b6000600360006004600085815260200190815260200160002060010154815260200190815260200160002060030160089054906101000a900460ff1615610b6f576040517f08c379a0000000000000000000000000000000000000000000000000000000008152600401610b6690612579565b60405180910390fd5b346004600084815260200190815260200160002060030160003373ffffffffffffffffffffffffffffffffffffffff1673ffffffffffffffffffffffffffffffffffffffff1681526020019081526020016000206000828254610bd2919061242b565b9250508190555034600460008481526020019081526020016000206004016000828254610bff919061242b565b9250508190555060019050919050565b60006003600085815260200190815260200160002060030160099054906101000a900460ff16610c74576040517f08c379a0000000000000000000000000000000000000000000000000000000008152600401610c6b906125e5565b60405180910390fd5b6003600085815260200190815260200160002060030160089054906101000a900460ff1615610cd8576040517f08c379a0000000000000000000000000000000000000000000000000000000008152600401610ccf90612651565b60405180910390fd5b6001546004600060015481526020019081526020016000206000018190555083600460006001548152602001908152602001600020600101819055508260046000600154815260200190815260200160002060020160006101000a81548163ffffffff021916908363ffffffff1602179055508160046000600154815260200190815260200160002060020160046101000a81548163ffffffff021916908363ffffffff1602179055503460046000600154815260200190815260200160002060030160003373ffffffffffffffffffffffffffffffffffffffff1673ffffffffffffffffffffffffffffffffffffffff168152602001908152602001600020819055503460046000600154815260200190815260200160002060040181905550600160046000600154815260200190815260200160002060090160006101000a81548160ff021916908315150217905550600160046000600154815260200190815260200160002060060160020160016101000a81548160ff021916908315150217905550600360008581526020019081526020016000206004016004600060015481526020019081526020016000206000015490806001815401808255809150506001900390600052602060002001600090919091909150556001806000828254610ec5919061242b565b925050819055506004600060015481526020019081526020016000206000015490509392505050565b6000806004600084815260200190815260200160002090506000600360008360010154815260200190815260200160002090508160090160009054906101000a900460ff16610f72576040517f08c379a0000000000000000000000000000000000000000000000000000000008152600401610f69906126bd565b60405180910390fd5b8060030160089054906101000a900460ff16610fc3576040517f08c379a0000000000000000000000000000000000000000000000000000000008152600401610fba90612729565b60405180910390fd5b8160050160003373ffffffffffffffffffffffffffffffffffffffff1673ffffffffffffffffffffffffffffffffffffffff16815260200190815260200160002060020160009054906101000a900460ff1615611055576040517f08c379a000000000000000000000000000000000000000000000000000000000815260040161104c90612795565b60405180910390fd5b60018260050160003373ffffffffffffffffffffffffffffffffffffffff1673ffffffffffffffffffffffffffffffffffffffff16815260200190815260200160002060020160006101000a81548160ff02191690831515021790555060008260020160009054906101000a900463ffffffff168260030160009054906101000a900463ffffffff166110e891906127b5565b905060008360020160049054906101000a900463ffffffff168360030160049054906101000a900463ffffffff1661112091906127b5565b90508063ffffffff168263ffffffff1611156111a357600060028560050160003373ffffffffffffffffffffffffffffffffffffffff1673ffffffffffffffffffffffffffffffffffffffff16815260200190815260200160002060000154611189919061245f565b9050611195338261176e565b6001955050505050506112c9565b8063ffffffff168263ffffffff16101561122457600060028560050160003373ffffffffffffffffffffffffffffffffffffffff1673ffffffffffffffffffffffffffffffffffffffff1681526020019081526020016000206001015461120a919061245f565b9050611216338261176e565b6001955050505050506112c9565b611272338560050160003373ffffffffffffffffffffffffffffffffffffffff1673ffffffffffffffffffffffffffffffffffffffff1681526020019081526020016000206000015461176e565b6112c0338560050160003373ffffffffffffffffffffffffffffffffffffffff1673ffffffffffffffffffffffffffffffffffffffff1681526020019081526020016000206001015461176e565b60019450505050505b919050565b60006004600084815260200190815260200160002060090160009054906101000a900460ff16611333576040517f08c379a000000000000000000000000000000000000000000000000000000000815260040161132a90612839565b60405180910390fd5b61135060046000858152602001908152602001600020833461186e565b61138f576040517f08c379a0000000000000000000000000000000000000000000000000000000008152600401611386906128a5565b60405180910390fd5b600360006004600086815260200190815260200160002060010154815260200190815260200160002060030160089054906101000a900460ff1615611409576040517f08c379a000000000000000000000000000000000000000000000000000000000815260040161140090612579565b60405180910390fd5b6004600084815260200190815260200160002060050160003373ffffffffffffffffffffffffffffffffffffffff1673ffffffffffffffffffffffffffffffffffffffff16815260200190815260200160002060020160019054906101000a900460ff166114ac576040517f08c379a00000000000000000000000000000000000000000000000000000000081526004016114a390612937565b60405180910390fd5b811561159e57346004600085815260200190815260200160002060050160003373ffffffffffffffffffffffffffffffffffffffff1673ffffffffffffffffffffffffffffffffffffffff1681526020019081526020016000206000018190555060006004600085815260200190815260200160002060050160003373ffffffffffffffffffffffffffffffffffffffff1673ffffffffffffffffffffffffffffffffffffffff1681526020019081526020016000206001018190555034600460008581526020019081526020016000206006016000016000828254611592919061242b565b92505081905550611686565b346004600085815260200190815260200160002060050160003373ffffffffffffffffffffffffffffffffffffffff1673ffffffffffffffffffffffffffffffffffffffff1681526020019081526020016000206001018190555060006004600085815260200190815260200160002060050160003373ffffffffffffffffffffffffffffffffffffffff1673ffffffffffffffffffffffffffffffffffffffff168152602001908152602001600020600001819055503460046000858152602001908152602001600020600601600101600082825461167e919061242b565b925050819055505b60006004600085815260200190815260200160002060050160003373ffffffffffffffffffffffffffffffffffffffff1673ffffffffffffffffffffffffffffffffffffffff16815260200190815260200160002060020160006101000a81548160ff02191690831515021790555060016004600085815260200190815260200160002060050160003373ffffffffffffffffffffffffffffffffffffffff1673ffffffffffffffffffffffffffffffffffffffff16815260200190815260200160002060020160016101000a81548160ff0219169083151502179055506001905092915050565b60008273ffffffffffffffffffffffffffffffffffffffff1682600067ffffffffffffffff8111156117a3576117a26120f1565b5b6040519080825280601f01601f1916602001820160405280156117d55781602001600182028036833780820191505090505b506040516117e3919061299e565b60006040518083038185875af1925050503d8060008114611820576040519150601f19603f3d011682016040523d82523d6000602084013e611825565b606091505b5050905080611869576040517f08c379a000000000000000000000000000000000000000000000000000000000815260040161186090612a01565b60405180910390fd5b505050565b6000808460060160000154905060008560060160010154905084156118a0578382611899919061242b565b91506118af565b83816118ac919061242b565b90505b600080828411156118c5578391508290506118cc565b8291508390505b600081836118da91906124a1565b905088600401548111156118f657600095505050505050611900565b6001955050505050505b9392505050565b604051806101000160405280600081526020016060815260200160608152602001600063ffffffff168152602001600063ffffffff168152602001600015158152602001600015158152602001606081525090565b6000819050919050565b61196f8161195c565b82525050565b600060208201905061198a6000830184611966565b92915050565b600080fd5b600080fd5b600080fd5b600080fd5b600080fd5b60008083601f8401126119bf576119be61199a565b5b8235905067ffffffffffffffff8111156119dc576119db61199f565b5b6020830191508360018202830111156119f8576119f76119a4565b5b9250929050565b60008060008060408587031215611a1957611a18611990565b5b600085013567ffffffffffffffff811115611a3757611a36611995565b5b611a43878288016119a9565b9450945050602085013567ffffffffffffffff811115611a6657611a65611995565b5b611a72878288016119a9565b925092505092959194509250565b611a898161195c565b8114611a9457600080fd5b50565b600081359050611aa681611a80565b92915050565b600063ffffffff82169050919050565b611ac581611aac565b8114611ad057600080fd5b50565b600081359050611ae281611abc565b92915050565b600080600060608486031215611b0157611b00611990565b5b6000611b0f86828701611a97565b9350506020611b2086828701611ad3565b9250506040611b3186828701611ad3565b9150509250925092565b60008115159050919050565b611b5081611b3b565b82525050565b6000602082019050611b6b6000830184611b47565b92915050565b600073ffffffffffffffffffffffffffffffffffffffff82169050919050565b6000611b9c82611b71565b9050919050565b611bac81611b91565b82525050565b6000602082019050611bc76000830184611ba3565b92915050565b611bd681611b91565b8114611be157600080fd5b50565b600081359050611bf381611bcd565b92915050565b60008060408385031215611c1057611c0f611990565b5b6000611c1e85828601611a97565b9250506020611c2f85828601611be4565b9150509250929050565b600060208284031215611c4f57611c4e611990565b5b6000611c5d84828501611be4565b91505092915050565b60008060408385031215611c7d57611c7c611990565b5b6000611c8b85828601611a97565b9250506020611c9c85828601611a97565b9150509250929050565b600081519050919050565b600082825260208201905092915050565b6000819050602082019050919050565b611cdb8161195c565b82525050565b600081519050919050565b600082825260208201905092915050565b60005b83811015611d1b578082015181840152602081019050611d00565b60008484015250505050565b6000601f19601f8301169050919050565b6000611d4382611ce1565b611d4d8185611cec565b9350611d5d818560208601611cfd565b611d6681611d27565b840191505092915050565b611d7a81611aac565b82525050565b611d8981611b3b565b82525050565b600081519050919050565b600082825260208201905092915050565b6000819050602082019050919050565b6000611dc78383611cd2565b60208301905092915050565b6000602082019050919050565b6000611deb82611d8f565b611df58185611d9a565b9350611e0083611dab565b8060005b83811015611e31578151611e188882611dbb565b9750611e2383611dd3565b925050600181019050611e04565b5085935050505092915050565b600061010083016000830151611e576000860182611cd2565b5060208301518482036020860152611e6f8282611d38565b91505060408301518482036040860152611e898282611d38565b9150506060830151611e9e6060860182611d71565b506080830151611eb16080860182611d71565b5060a0830151611ec460a0860182611d80565b5060c0830151611ed760c0860182611d80565b5060e083015184820360e0860152611eef8282611de0565b9150508091505092915050565b6000611f088383611e3e565b905092915050565b6000602082019050919050565b6000611f2882611ca6565b611f328185611cb1565b935083602082028501611f4485611cc2565b8060005b85811015611f805784840389528151611f618582611efc565b9450611f6c83611f10565b925060208a01995050600181019050611f48565b50829750879550505050505092915050565b60006060820190508181036000830152611fac8186611f1d565b9050611fbb6020830185611b47565b611fc86040830184611b47565b949350505050565b600060208284031215611fe657611fe5611990565b5b6000611ff484828501611a97565b91505092915050565b61200681611b3b565b811461201157600080fd5b50565b60008135905061202381611ffd565b92915050565b600080604083850312156120405761203f611990565b5b600061204e85828601611a97565b925050602061205f85828601612014565b9150509250929050565b600082825260208201905092915050565b7f756e617574686f72697a65640000000000000000000000000000000000000000600082015250565b60006120b0600c83612069565b91506120bb8261207a565b602082019050919050565b600060208201905081810360008301526120df816120a3565b9050919050565b600082905092915050565b7f4e487b7100000000000000000000000000000000000000000000000000000000600052604160045260246000fd5b7f4e487b7100000000000000000000000000000000000000000000000000000000600052602260045260246000fd5b6000600282049050600182168061216757607f821691505b60208210810361217a57612179612120565b5b50919050565b60008190508160005260206000209050919050565b60006020601f8301049050919050565b600082821b905092915050565b6000600883026121e27fffffffffffffffffffffffffffffffffffffffffffffffffffffffffffffffff826121a5565b6121ec86836121a5565b95508019841693508086168417925050509392505050565b6000819050919050565b600061222961222461221f8461195c565b612204565b61195c565b9050919050565b6000819050919050565b6122438361220e565b61225761224f82612230565b8484546121b2565b825550505050565b600090565b61226c61225f565b61227781848461223a565b505050565b5b8181101561229b57612290600082612264565b60018101905061227d565b5050565b601f8211156122e0576122b181612180565b6122ba84612195565b810160208510156122c9578190505b6122dd6122d585612195565b83018261227c565b50505b505050565b600082821c905092915050565b6000612303600019846008026122e5565b1980831691505092915050565b600061231c83836122f2565b9150826002028217905092915050565b61233683836120e6565b67ffffffffffffffff81111561234f5761234e6120f1565b5b612359825461214f565b61236482828561229f565b6000601f8311600181146123935760008415612381578287013590505b61238b8582612310565b8655506123f3565b601f1984166123a186612180565b60005b828110156123c9578489013582556001820191506020850194506020810190506123a4565b868310156123e657848901356123e2601f8916826122f2565b8355505b6001600288020188555050505b50505050505050565b7f4e487b7100000000000000000000000000000000000000000000000000000000600052601160045260246000fd5b60006124368261195c565b91506124418361195c565b9250828201905080821115612459576124586123fc565b5b92915050565b600061246a8261195c565b91506124758361195c565b92508282026124838161195c565b9150828204841483151761249a576124996123fc565b5b5092915050565b60006124ac8261195c565b91506124b78361195c565b92508282039050818111156124cf576124ce6123fc565b5b92915050565b7f4e487b7100000000000000000000000000000000000000000000000000000000600052603260045260246000fd5b600061250f8261195c565b915060008203612522576125216123fc565b5b600182039050919050565b7f6d6174636820616c72656164792066696e697368656400000000000000000000600082015250565b6000612563601683612069565b915061256e8261252d565b602082019050919050565b6000602082019050818103600083015261259281612556565b9050919050565b7f6d617463684964206e6f74206578697374656400000000000000000000000000600082015250565b60006125cf601383612069565b91506125da82612599565b602082019050919050565b600060208201905081810360008301526125fe816125c2565b9050919050565b7f746865206d6174636820697320616c726561792066696e697368656400000000600082015250565b600061263b601c83612069565b915061264682612605565b602082019050919050565b6000602082019050818103600083015261266a8161262e565b9050919050565b7f62657474696e6720706f7374206e6f7420666f756e6400000000000000000000600082015250565b60006126a7601683612069565b91506126b282612671565b602082019050919050565b600060208201905081810360008301526126d68161269a565b9050919050565b7f6d61746368206973206e6f742066696e69736865640000000000000000000000600082015250565b6000612713601583612069565b915061271e826126dd565b602082019050919050565b6000602082019050818103600083015261274281612706565b9050919050565b7f72657761726420616c726561647920636c61696d656400000000000000000000600082015250565b600061277f601683612069565b915061278a82612749565b602082019050919050565b600060208201905081810360008301526127ae81612772565b9050919050565b60006127c082611aac565b91506127cb83611aac565b9250828201905063ffffffff8111156127e7576127e66123fc565b5b92915050565b7f706f7374206e6f74206578697374000000000000000000000000000000000000600082015250565b6000612823600e83612069565b915061282e826127ed565b602082019050919050565b6000602082019050818103600083015261285281612816565b9050919050565b7f626574206e6f742076616c696400000000000000000000000000000000000000600082015250565b600061288f600d83612069565b915061289a82612859565b602082019050919050565b600060208201905081810360008301526128be81612882565b9050919050565b7f796f7520616c7265616479206d616b65206120626574206f6e2074686973207060008201527f6f73740000000000000000000000000000000000000000000000000000000000602082015250565b6000612921602383612069565b915061292c826128c5565b604082019050919050565b6000602082019050818103600083015261295081612914565b9050919050565b600081519050919050565b600081905092915050565b600061297882612957565b6129828185612962565b9350612992818560208601611cfd565b80840191505092915050565b60006129aa828461296d565b915081905092915050565b7f7472616e73666572206572726f72000000000000000000000000000000000000600082015250565b60006129eb600e83612069565b91506129f6826129b5565b602082019050919050565b60006020820190508181036000830152612a1a816129de565b905091905056fea264697066735822122072f83167215f7971d5a66770f5cc13b3d15c5d035624c6af0e0eb39c608330ce64736f6c634300081b0033",
          "opcodes": "PUSH1 0x80 PUSH1 0x40 MSTORE CALLVALUE DUP1 ISZERO PUSH1 0xF JUMPI PUSH1 0x0 DUP1 REVERT JUMPDEST POP CALLER PUSH1 0x0 DUP1 PUSH2 0x100 EXP DUP2 SLOAD DUP2 PUSH20 0xFFFFFFFFFFFFFFFFFFFFFFFFFFFFFFFFFFFFFFFF MUL NOT AND SWAP1 DUP4 PUSH20 0xFFFFFFFFFFFFFFFFFFFFFFFFFFFFFFFFFFFFFFFF AND MUL OR SWAP1 SSTORE POP PUSH1 0x0 PUSH1 0x1 DUP2 SWAP1 SSTORE POP PUSH1 0x0 PUSH1 0x2 DUP2 SWAP1 SSTORE POP PUSH2 0x2A57 DUP1 PUSH2 0x6F PUSH1 0x0 CODECOPY PUSH1 0x0 RETURN INVALID PUSH1 0x80 PUSH1 0x40 MSTORE PUSH1 0x4 CALLDATASIZE LT PUSH2 0xA7 JUMPI PUSH1 0x0 CALLDATALOAD PUSH1 0xE0 SHR DUP1 PUSH4 0xA6F9DAE1 GT PUSH2 0x64 JUMPI DUP1 PUSH4 0xA6F9DAE1 EQ PUSH2 0x1E4 JUMPI DUP1 PUSH4 0xAA64EC28 EQ PUSH2 0x20D JUMPI DUP1 PUSH4 0xAAA3CDF4 EQ PUSH2 0x24C JUMPI DUP1 PUSH4 0xB6806E57 EQ PUSH2 0x27C JUMPI DUP1 PUSH4 0xD927B1B8 EQ PUSH2 0x2AC JUMPI DUP1 PUSH4 0xE7587EA5 EQ PUSH2 0x2E9 JUMPI PUSH2 0xA7 JUMP JUMPDEST DUP1 PUSH4 0x17C77E26 EQ PUSH2 0xAC JUMPI DUP1 PUSH4 0x57447733 EQ PUSH2 0xD7 JUMPI DUP1 PUSH4 0x69CC08D3 EQ PUSH2 0x114 JUMPI DUP1 PUSH4 0x7F8206AD EQ PUSH2 0x13F JUMPI DUP1 PUSH4 0x893D20E8 EQ PUSH2 0x17C JUMPI DUP1 PUSH4 0x91293D5A EQ PUSH2 0x1A7 JUMPI JUMPDEST PUSH1 0x0 DUP1 REVERT JUMPDEST CALLVALUE DUP1 ISZERO PUSH2 0xB8 JUMPI PUSH1 0x0 DUP1 REVERT JUMPDEST POP PUSH2 0xC1 PUSH2 0x319 JUMP JUMPDEST PUSH1 0x40 MLOAD PUSH2 0xCE SWAP2 SWAP1 PUSH2 0x1975 JUMP JUMPDEST PUSH1 0x40 MLOAD DUP1 SWAP2 SUB SWAP1 RETURN JUMPDEST CALLVALUE DUP1 ISZERO PUSH2 0xE3 JUMPI PUSH1 0x0 DUP1 REVERT JUMPDEST POP PUSH2 0xFE PUSH1 0x4 DUP1 CALLDATASIZE SUB DUP2 ADD SWAP1 PUSH2 0xF9 SWAP2 SWAP1 PUSH2 0x19FF JUMP JUMPDEST PUSH2 0x31F JUMP JUMPDEST PUSH1 0x40 MLOAD PUSH2 0x10B SWAP2 SWAP1 PUSH2 0x1975 JUMP JUMPDEST PUSH1 0x40 MLOAD DUP1 SWAP2 SUB SWAP1 RETURN JUMPDEST CALLVALUE DUP1 ISZERO PUSH2 0x120 JUMPI PUSH1 0x0 DUP1 REVERT JUMPDEST POP PUSH2 0x129 PUSH2 0x4BE JUMP JUMPDEST PUSH1 0x40 MLOAD PUSH2 0x136 SWAP2 SWAP1 PUSH2 0x1975 JUMP JUMPDEST PUSH1 0x40 MLOAD DUP1 SWAP2 SUB SWAP1 RETURN JUMPDEST CALLVALUE DUP1 ISZERO PUSH2 0x14B JUMPI PUSH1 0x0 DUP1 REVERT JUMPDEST POP PUSH2 0x166 PUSH1 0x4 DUP1 CALLDATASIZE SUB DUP2 ADD SWAP1 PUSH2 0x161 SWAP2 SWAP1 PUSH2 0x1AE8 JUMP JUMPDEST PUSH2 0x4C4 JUMP JUMPDEST PUSH1 0x40 MLOAD PUSH2 0x173 SWAP2 SWAP1 PUSH2 0x1B56 JUMP JUMPDEST PUSH1 0x40 MLOAD DUP1 SWAP2 SUB SWAP1 RETURN JUMPDEST CALLVALUE DUP1 ISZERO PUSH2 0x188 JUMPI PUSH1 0x0 DUP1 REVERT JUMPDEST POP PUSH2 0x191 PUSH2 0x5F9 JUMP JUMPDEST PUSH1 0x40 MLOAD PUSH2 0x19E SWAP2 SWAP1 PUSH2 0x1BB2 JUMP JUMPDEST PUSH1 0x40 MLOAD DUP1 SWAP2 SUB SWAP1 RETURN JUMPDEST CALLVALUE DUP1 ISZERO PUSH2 0x1B3 JUMPI PUSH1 0x0 DUP1 REVERT JUMPDEST POP PUSH2 0x1CE PUSH1 0x4 DUP1 CALLDATASIZE SUB DUP2 ADD SWAP1 PUSH2 0x1C9 SWAP2 SWAP1 PUSH2 0x1BF9 JUMP JUMPDEST PUSH2 0x622 JUMP JUMPDEST PUSH1 0x40 MLOAD PUSH2 0x1DB SWAP2 SWAP1 PUSH2 0x1975 JUMP JUMPDEST PUSH1 0x40 MLOAD DUP1 SWAP2 SUB SWAP1 RETURN JUMPDEST CALLVALUE DUP1 ISZERO PUSH2 0x1F0 JUMPI PUSH1 0x0 DUP1 REVERT JUMPDEST POP PUSH2 0x20B PUSH1 0x4 DUP1 CALLDATASIZE SUB DUP2 ADD SWAP1 PUSH2 0x206 SWAP2 SWAP1 PUSH2 0x1C39 JUMP JUMPDEST PUSH2 0x680 JUMP JUMPDEST STOP JUMPDEST CALLVALUE DUP1 ISZERO PUSH2 0x219 JUMPI PUSH1 0x0 DUP1 REVERT JUMPDEST POP PUSH2 0x234 PUSH1 0x4 DUP1 CALLDATASIZE SUB DUP2 ADD SWAP1 PUSH2 0x22F SWAP2 SWAP1 PUSH2 0x1C66 JUMP JUMPDEST PUSH2 0x751 JUMP JUMPDEST PUSH1 0x40 MLOAD PUSH2 0x243 SWAP4 SWAP3 SWAP2 SWAP1 PUSH2 0x1F92 JUMP JUMPDEST PUSH1 0x40 MLOAD DUP1 SWAP2 SUB SWAP1 RETURN JUMPDEST PUSH2 0x266 PUSH1 0x4 DUP1 CALLDATASIZE SUB DUP2 ADD SWAP1 PUSH2 0x261 SWAP2 SWAP1 PUSH2 0x1FD0 JUMP JUMPDEST PUSH2 0xAF3 JUMP JUMPDEST PUSH1 0x40 MLOAD PUSH2 0x273 SWAP2 SWAP1 PUSH2 0x1B56 JUMP JUMPDEST PUSH1 0x40 MLOAD DUP1 SWAP2 SUB SWAP1 RETURN JUMPDEST PUSH2 0x296 PUSH1 0x4 DUP1 CALLDATASIZE SUB DUP2 ADD SWAP1 PUSH2 0x291 SWAP2 SWAP1 PUSH2 0x1AE8 JUMP JUMPDEST PUSH2 0xC0F JUMP JUMPDEST PUSH1 0x40 MLOAD PUSH2 0x2A3 SWAP2 SWAP1 PUSH2 0x1975 JUMP JUMPDEST PUSH1 0x40 MLOAD DUP1 SWAP2 SUB SWAP1 RETURN JUMPDEST CALLVALUE DUP1 ISZERO PUSH2 0x2B8 JUMPI PUSH1 0x0 DUP1 REVERT JUMPDEST POP PUSH2 0x2D3 PUSH1 0x4 DUP1 CALLDATASIZE SUB DUP2 ADD SWAP1 PUSH2 0x2CE SWAP2 SWAP1 PUSH2 0x1FD0 JUMP JUMPDEST PUSH2 0xEEE JUMP JUMPDEST PUSH1 0x40 MLOAD PUSH2 0x2E0 SWAP2 SWAP1 PUSH2 0x1B56 JUMP JUMPDEST PUSH1 0x40 MLOAD DUP1 SWAP2 SUB SWAP1 RETURN JUMPDEST PUSH2 0x303 PUSH1 0x4 DUP1 CALLDATASIZE SUB DUP2 ADD SWAP1 PUSH2 0x2FE SWAP2 SWAP1 PUSH2 0x2029 JUMP JUMPDEST PUSH2 0x12CE JUMP JUMPDEST PUSH1 0x40 MLOAD PUSH2 0x310 SWAP2 SWAP1 PUSH2 0x1B56 JUMP JUMPDEST PUSH1 0x40 MLOAD DUP1 SWAP2 SUB SWAP1 RETURN JUMPDEST PUSH1 0x2 SLOAD DUP2 JUMP JUMPDEST PUSH1 0x0 DUP1 PUSH1 0x0 SWAP1 SLOAD SWAP1 PUSH2 0x100 EXP SWAP1 DIV PUSH20 0xFFFFFFFFFFFFFFFFFFFFFFFFFFFFFFFFFFFFFFFF AND PUSH20 0xFFFFFFFFFFFFFFFFFFFFFFFFFFFFFFFFFFFFFFFF AND CALLER PUSH20 0xFFFFFFFFFFFFFFFFFFFFFFFFFFFFFFFFFFFFFFFF AND EQ PUSH2 0x3B0 JUMPI PUSH1 0x40 MLOAD PUSH32 0x8C379A000000000000000000000000000000000000000000000000000000000 DUP2 MSTORE PUSH1 0x4 ADD PUSH2 0x3A7 SWAP1 PUSH2 0x20C6 JUMP JUMPDEST PUSH1 0x40 MLOAD DUP1 SWAP2 SUB SWAP1 REVERT JUMPDEST PUSH1 0x2 SLOAD PUSH1 0x3 PUSH1 0x0 PUSH1 0x2 SLOAD DUP2 MSTORE PUSH1 0x20 ADD SWAP1 DUP2 MSTORE PUSH1 0x20 ADD PUSH1 0x0 KECCAK256 PUSH1 0x0 ADD DUP2 SWAP1 SSTORE POP DUP5 DUP5 PUSH1 0x3 PUSH1 0x0 PUSH1 0x2 SLOAD DUP2 MSTORE PUSH1 0x20 ADD SWAP1 DUP2 MSTORE PUSH1 0x20 ADD PUSH1 0x0 KECCAK256 PUSH1 0x1 ADD SWAP2 DUP3 PUSH2 0x3F6 SWAP3 SWAP2 SWAP1 PUSH2 0x232C JUMP JUMPDEST POP DUP3 DUP3 PUSH1 0x3 PUSH1 0x0 PUSH1 0x2 SLOAD DUP2 MSTORE PUSH1 0x20 ADD SWAP1 DUP2 MSTORE PUSH1 0x20 ADD PUSH1 0x0 KECCAK256 PUSH1 0x2 ADD SWAP2 DUP3 PUSH2 0x41E SWAP3 SWAP2 SWAP1 PUSH2 0x232C JUMP JUMPDEST POP PUSH1 0x0 PUSH1 0x3 PUSH1 0x0 PUSH1 0x2 SLOAD DUP2 MSTORE PUSH1 0x20 ADD SWAP1 DUP2 MSTORE PUSH1 0x20 ADD PUSH1 0x0 KECCAK256 PUSH1 0x3 ADD PUSH1 0x8 PUSH2 0x100 EXP DUP2 SLOAD DUP2 PUSH1 0xFF MUL NOT AND SWAP1 DUP4 ISZERO ISZERO MUL OR SWAP1 SSTORE POP PUSH1 0x1 PUSH1 0x3 PUSH1 0x0 PUSH1 0x2 SLOAD DUP2 MSTORE PUSH1 0x20 ADD SWAP1 DUP2 MSTORE PUSH1 0x20 ADD PUSH1 0x0 KECCAK256 PUSH1 0x3 ADD PUSH1 0x9 PUSH2 0x100 EXP DUP2 SLOAD DUP2 PUSH1 0xFF MUL NOT AND SWAP1 DUP4 ISZERO ISZERO MUL OR SWAP1 SSTORE POP PUSH1 0x1 PUSH1 0x2 PUSH1 0x0 DUP3 DUP3 SLOAD PUSH2 0x494 SWAP2 SWAP1 PUSH2 0x242B JUMP JUMPDEST SWAP3 POP POP DUP2 SWAP1 SSTORE POP PUSH1 0x3 PUSH1 0x0 PUSH1 0x2 SLOAD DUP2 MSTORE PUSH1 0x20 ADD SWAP1 DUP2 MSTORE PUSH1 0x20 ADD PUSH1 0x0 KECCAK256 PUSH1 0x0 ADD SLOAD SWAP1 POP SWAP5 SWAP4 POP POP POP POP JUMP JUMPDEST PUSH1 0x1 SLOAD DUP2 JUMP JUMPDEST PUSH1 0x0 DUP1 PUSH1 0x0 SWAP1 SLOAD SWAP1 PUSH2 0x100 EXP SWAP1 DIV PUSH20 0xFFFFFFFFFFFFFFFFFFFFFFFFFFFFFFFFFFFFFFFF AND PUSH20 0xFFFFFFFFFFFFFFFFFFFFFFFFFFFFFFFFFFFFFFFF AND CALLER PUSH20 0xFFFFFFFFFFFFFFFFFFFFFFFFFFFFFFFFFFFFFFFF AND EQ PUSH2 0x555 JUMPI PUSH1 0x40 MLOAD PUSH32 0x8C379A000000000000000000000000000000000000000000000000000000000 DUP2 MSTORE PUSH1 0x4 ADD PUSH2 0x54C SWAP1 PUSH2 0x20C6 JUMP JUMPDEST PUSH1 0x40 MLOAD DUP1 SWAP2 SUB SWAP1 REVERT JUMPDEST DUP3 PUSH1 0x3 PUSH1 0x0 DUP7 DUP2 MSTORE PUSH1 0x20 ADD SWAP1 DUP2 MSTORE PUSH1 0x20 ADD PUSH1 0x0 KECCAK256 PUSH1 0x3 ADD PUSH1 0x0 PUSH2 0x100 EXP DUP2 SLOAD DUP2 PUSH4 0xFFFFFFFF MUL NOT AND SWAP1 DUP4 PUSH4 0xFFFFFFFF AND MUL OR SWAP1 SSTORE POP DUP2 PUSH1 0x3 PUSH1 0x0 DUP7 DUP2 MSTORE PUSH1 0x20 ADD SWAP1 DUP2 MSTORE PUSH1 0x20 ADD PUSH1 0x0 KECCAK256 PUSH1 0x3 ADD PUSH1 0x4 PUSH2 0x100 EXP DUP2 SLOAD DUP2 PUSH4 0xFFFFFFFF MUL NOT AND SWAP1 DUP4 PUSH4 0xFFFFFFFF AND MUL OR SWAP1 SSTORE POP PUSH1 0x1 PUSH1 0x3 PUSH1 0x0 DUP7 DUP2 MSTORE PUSH1 0x20 ADD SWAP1 DUP2 MSTORE PUSH1 0x20 ADD PUSH1 0x0 KECCAK256 PUSH1 0x3 ADD PUSH1 0x8 PUSH2 0x100 EXP DUP2 SLOAD DUP2 PUSH1 0xFF MUL NOT AND SWAP1 DUP4 ISZERO ISZERO MUL OR SWAP1 SSTORE POP PUSH1 0x1 SWAP1 POP SWAP4 SWAP3 POP POP POP JUMP JUMPDEST PUSH1 0x0 DUP1 PUSH1 0x0 SWAP1 SLOAD SWAP1 PUSH2 0x100 EXP SWAP1 DIV PUSH20 0xFFFFFFFFFFFFFFFFFFFFFFFFFFFFFFFFFFFFFFFF AND SWAP1 POP SWAP1 JUMP JUMPDEST PUSH1 0x0 PUSH1 0x4 PUSH1 0x0 DUP5 DUP2 MSTORE PUSH1 0x20 ADD SWAP1 DUP2 MSTORE PUSH1 0x20 ADD PUSH1 0x0 KECCAK256 PUSH1 0x3 ADD PUSH1 0x0 DUP4 PUSH20 0xFFFFFFFFFFFFFFFFFFFFFFFFFFFFFFFFFFFFFFFF AND PUSH20 0xFFFFFFFFFFFFFFFFFFFFFFFFFFFFFFFFFFFFFFFF AND DUP2 MSTORE PUSH1 0x20 ADD SWAP1 DUP2 MSTORE PUSH1 0x20 ADD PUSH1 0x0 KECCAK256 SLOAD SWAP1 POP SWAP3 SWAP2 POP POP JUMP JUMPDEST PUSH1 0x0 DUP1 SLOAD SWAP1 PUSH2 0x100 EXP SWAP1 DIV PUSH20 0xFFFFFFFFFFFFFFFFFFFFFFFFFFFFFFFFFFFFFFFF AND PUSH20 0xFFFFFFFFFFFFFFFFFFFFFFFFFFFFFFFFFFFFFFFF AND CALLER PUSH20 0xFFFFFFFFFFFFFFFFFFFFFFFFFFFFFFFFFFFFFFFF AND EQ PUSH2 0x70E JUMPI PUSH1 0x40 MLOAD PUSH32 0x8C379A000000000000000000000000000000000000000000000000000000000 DUP2 MSTORE PUSH1 0x4 ADD PUSH2 0x705 SWAP1 PUSH2 0x20C6 JUMP JUMPDEST PUSH1 0x40 MLOAD DUP1 SWAP2 SUB SWAP1 REVERT JUMPDEST DUP1 PUSH1 0x0 DUP1 PUSH2 0x100 EXP DUP2 SLOAD DUP2 PUSH20 0xFFFFFFFFFFFFFFFFFFFFFFFFFFFFFFFFFFFFFFFF MUL NOT AND SWAP1 DUP4 PUSH20 0xFFFFFFFFFFFFFFFFFFFFFFFFFFFFFFFFFFFFFFFF AND MUL OR SWAP1 SSTORE POP POP JUMP JUMPDEST PUSH1 0x60 PUSH1 0x0 DUP1 PUSH1 0x0 DUP1 PUSH1 0x0 PUSH1 0x2 SLOAD PUSH1 0x1 DUP10 DUP10 PUSH2 0x76C SWAP2 SWAP1 PUSH2 0x245F JUMP JUMPDEST PUSH2 0x776 SWAP2 SWAP1 PUSH2 0x242B JUMP JUMPDEST GT SWAP1 POP DUP1 ISZERO PUSH2 0x78F JUMPI PUSH1 0x0 SWAP5 POP PUSH1 0x0 SWAP4 POP POP POP POP PUSH2 0xAEC JUMP JUMPDEST PUSH1 0x1 DUP9 DUP9 PUSH2 0x79D SWAP2 SWAP1 PUSH2 0x245F JUMP JUMPDEST PUSH1 0x2 SLOAD PUSH2 0x7AA SWAP2 SWAP1 PUSH2 0x24A1 JUMP JUMPDEST PUSH2 0x7B4 SWAP2 SWAP1 PUSH2 0x24A1 JUMP JUMPDEST SWAP3 POP PUSH1 0x0 PUSH1 0x1 DUP5 PUSH2 0x7C5 SWAP2 SWAP1 PUSH2 0x242B JUMP JUMPDEST DUP10 GT SWAP1 POP DUP1 ISZERO PUSH2 0x7D8 JUMPI PUSH1 0x0 SWAP3 POP PUSH2 0x7F3 JUMP JUMPDEST DUP9 PUSH1 0x1 DUP6 PUSH2 0x7E6 SWAP2 SWAP1 PUSH2 0x242B JUMP JUMPDEST PUSH2 0x7F0 SWAP2 SWAP1 PUSH2 0x24A1 JUMP JUMPDEST SWAP3 POP JUMPDEST PUSH1 0x0 PUSH1 0x1 DUP5 DUP7 PUSH2 0x803 SWAP2 SWAP1 PUSH2 0x24A1 JUMP JUMPDEST PUSH2 0x80D SWAP2 SWAP1 PUSH2 0x242B JUMP JUMPDEST SWAP1 POP DUP1 PUSH8 0xFFFFFFFFFFFFFFFF DUP2 GT ISZERO PUSH2 0x829 JUMPI PUSH2 0x828 PUSH2 0x20F1 JUMP JUMPDEST JUMPDEST PUSH1 0x40 MLOAD SWAP1 DUP1 DUP3 MSTORE DUP1 PUSH1 0x20 MUL PUSH1 0x20 ADD DUP3 ADD PUSH1 0x40 MSTORE DUP1 ISZERO PUSH2 0x862 JUMPI DUP2 PUSH1 0x20 ADD JUMPDEST PUSH2 0x84F PUSH2 0x1907 JUMP JUMPDEST DUP2 MSTORE PUSH1 0x20 ADD SWAP1 PUSH1 0x1 SWAP1 SUB SWAP1 DUP2 PUSH2 0x847 JUMPI SWAP1 POP JUMPDEST POP SWAP8 POP PUSH1 0x0 DUP6 SWAP1 POP JUMPDEST DUP5 DUP2 LT PUSH2 0xADB JUMPI PUSH1 0x0 DUP2 DUP8 PUSH2 0x880 SWAP2 SWAP1 PUSH2 0x24A1 JUMP JUMPDEST SWAP1 POP PUSH1 0x3 PUSH1 0x0 DUP4 DUP2 MSTORE PUSH1 0x20 ADD SWAP1 DUP2 MSTORE PUSH1 0x20 ADD PUSH1 0x0 KECCAK256 PUSH1 0x40 MLOAD DUP1 PUSH2 0x100 ADD PUSH1 0x40 MSTORE SWAP1 DUP2 PUSH1 0x0 DUP3 ADD SLOAD DUP2 MSTORE PUSH1 0x20 ADD PUSH1 0x1 DUP3 ADD DUP1 SLOAD PUSH2 0x8BB SWAP1 PUSH2 0x214F JUMP JUMPDEST DUP1 PUSH1 0x1F ADD PUSH1 0x20 DUP1 SWAP2 DIV MUL PUSH1 0x20 ADD PUSH1 0x40 MLOAD SWAP1 DUP2 ADD PUSH1 0x40 MSTORE DUP1 SWAP3 SWAP2 SWAP1 DUP2 DUP2 MSTORE PUSH1 0x20 ADD DUP3 DUP1 SLOAD PUSH2 0x8E7 SWAP1 PUSH2 0x214F JUMP JUMPDEST DUP1 ISZERO PUSH2 0x934 JUMPI DUP1 PUSH1 0x1F LT PUSH2 0x909 JUMPI PUSH2 0x100 DUP1 DUP4 SLOAD DIV MUL DUP4 MSTORE SWAP2 PUSH1 0x20 ADD SWAP2 PUSH2 0x934 JUMP JUMPDEST DUP3 ADD SWAP2 SWAP1 PUSH1 0x0 MSTORE PUSH1 0x20 PUSH1 0x0 KECCAK256 SWAP1 JUMPDEST DUP2 SLOAD DUP2 MSTORE SWAP1 PUSH1 0x1 ADD SWAP1 PUSH1 0x20 ADD DUP1 DUP4 GT PUSH2 0x917 JUMPI DUP3 SWAP1 SUB PUSH1 0x1F AND DUP3 ADD SWAP2 JUMPDEST POP POP POP POP POP DUP2 MSTORE PUSH1 0x20 ADD PUSH1 0x2 DUP3 ADD DUP1 SLOAD PUSH2 0x94D SWAP1 PUSH2 0x214F JUMP JUMPDEST DUP1 PUSH1 0x1F ADD PUSH1 0x20 DUP1 SWAP2 DIV MUL PUSH1 0x20 ADD PUSH1 0x40 MLOAD SWAP1 DUP2 ADD PUSH1 0x40 MSTORE DUP1 SWAP3 SWAP2 SWAP1 DUP2 DUP2 MSTORE PUSH1 0x20 ADD DUP3 DUP1 SLOAD PUSH2 0x979 SWAP1 PUSH2 0x214F JUMP JUMPDEST DUP1 ISZERO PUSH2 0x9C6 JUMPI DUP1 PUSH1 0x1F LT PUSH2 0x99B JUMPI PUSH2 0x100 DUP1 DUP4 SLOAD DIV MUL DUP4 MSTORE SWAP2 PUSH1 0x20 ADD SWAP2 PUSH2 0x9C6 JUMP JUMPDEST DUP3 ADD SWAP2 SWAP1 PUSH1 0x0 MSTORE PUSH1 0x20 PUSH1 0x0 KECCAK256 SWAP1 JUMPDEST DUP2 SLOAD DUP2 MSTORE SWAP1 PUSH1 0x1 ADD SWAP1 PUSH1 0x20 ADD DUP1 DUP4 GT PUSH2 0x9A9 JUMPI DUP3 SWAP1 SUB PUSH1 0x1F AND DUP3 ADD SWAP2 JUMPDEST POP POP POP POP POP DUP2 MSTORE PUSH1 0x20 ADD PUSH1 0x3 DUP3 ADD PUSH1 0x0 SWAP1 SLOAD SWAP1 PUSH2 0x100 EXP SWAP1 DIV PUSH4 0xFFFFFFFF AND PUSH4 0xFFFFFFFF AND PUSH4 0xFFFFFFFF AND DUP2 MSTORE PUSH1 0x20 ADD PUSH1 0x3 DUP3 ADD PUSH1 0x4 SWAP1 SLOAD SWAP1 PUSH2 0x100 EXP SWAP1 DIV PUSH4 0xFFFFFFFF AND PUSH4 0xFFFFFFFF AND PUSH4 0xFFFFFFFF AND DUP2 MSTORE PUSH1 0x20 ADD PUSH1 0x3 DUP3 ADD PUSH1 0x8 SWAP1 SLOAD SWAP1 PUSH2 0x100 EXP SWAP1 DIV PUSH1 0xFF AND ISZERO ISZERO ISZERO ISZERO DUP2 MSTORE PUSH1 0x20 ADD PUSH1 0x3 DUP3 ADD PUSH1 0x9 SWAP1 SLOAD SWAP1 PUSH2 0x100 EXP SWAP1 DIV PUSH1 0xFF AND ISZERO ISZERO ISZERO ISZERO DUP2 MSTORE PUSH1 0x20 ADD PUSH1 0x4 DUP3 ADD DUP1 SLOAD DUP1 PUSH1 0x20 MUL PUSH1 0x20 ADD PUSH1 0x40 MLOAD SWAP1 DUP2 ADD PUSH1 0x40 MSTORE DUP1 SWAP3 SWAP2 SWAP1 DUP2 DUP2 MSTORE PUSH1 0x20 ADD DUP3 DUP1 SLOAD DUP1 ISZERO PUSH2 0xAA0 JUMPI PUSH1 0x20 MUL DUP3 ADD SWAP2 SWAP1 PUSH1 0x0 MSTORE PUSH1 0x20 PUSH1 0x0 KECCAK256 SWAP1 JUMPDEST DUP2 SLOAD DUP2 MSTORE PUSH1 0x20 ADD SWAP1 PUSH1 0x1 ADD SWAP1 DUP1 DUP4 GT PUSH2 0xA8C JUMPI JUMPDEST POP POP POP POP POP DUP2 MSTORE POP POP DUP11 DUP3 DUP2 MLOAD DUP2 LT PUSH2 0xABC JUMPI PUSH2 0xABB PUSH2 0x24D5 JUMP JUMPDEST JUMPDEST PUSH1 0x20 MUL PUSH1 0x20 ADD ADD DUP2 SWAP1 MSTORE POP POP DUP1 DUP1 PUSH2 0xAD3 SWAP1 PUSH2 0x2504 JUMP JUMPDEST SWAP2 POP POP PUSH2 0x86B JUMP JUMPDEST POP PUSH1 0x1 SWAP7 POP PUSH1 0x0 DUP5 GT SWAP6 POP POP POP POP POP POP JUMPDEST SWAP3 POP SWAP3 POP SWAP3 JUMP JUMPDEST PUSH1 0x0 PUSH1 0x3 PUSH1 0x0 PUSH1 0x4 PUSH1 0x0 DUP6 DUP2 MSTORE PUSH1 0x20 ADD SWAP1 DUP2 MSTORE PUSH1 0x20 ADD PUSH1 0x0 KECCAK256 PUSH1 0x1 ADD SLOAD DUP2 MSTORE PUSH1 0x20 ADD SWAP1 DUP2 MSTORE PUSH1 0x20 ADD PUSH1 0x0 KECCAK256 PUSH1 0x3 ADD PUSH1 0x8 SWAP1 SLOAD SWAP1 PUSH2 0x100 EXP SWAP1 DIV PUSH1 0xFF AND ISZERO PUSH2 0xB6F JUMPI PUSH1 0x40 MLOAD PUSH32 0x8C379A000000000000000000000000000000000000000000000000000000000 DUP2 MSTORE PUSH1 0x4 ADD PUSH2 0xB66 SWAP1 PUSH2 0x2579 JUMP JUMPDEST PUSH1 0x40 MLOAD DUP1 SWAP2 SUB SWAP1 REVERT JUMPDEST CALLVALUE PUSH1 0x4 PUSH1 0x0 DUP5 DUP2 MSTORE PUSH1 0x20 ADD SWAP1 DUP2 MSTORE PUSH1 0x20 ADD PUSH1 0x0 KECCAK256 PUSH1 0x3 ADD PUSH1 0x0 CALLER PUSH20 0xFFFFFFFFFFFFFFFFFFFFFFFFFFFFFFFFFFFFFFFF AND PUSH20 0xFFFFFFFFFFFFFFFFFFFFFFFFFFFFFFFFFFFFFFFF AND DUP2 MSTORE PUSH1 0x20 ADD SWAP1 DUP2 MSTORE PUSH1 0x20 ADD PUSH1 0x0 KECCAK256 PUSH1 0x0 DUP3 DUP3 SLOAD PUSH2 0xBD2 SWAP2 SWAP1 PUSH2 0x242B JUMP JUMPDEST SWAP3 POP POP DUP2 SWAP1 SSTORE POP CALLVALUE PUSH1 0x4 PUSH1 0x0 DUP5 DUP2 MSTORE PUSH1 0x20 ADD SWAP1 DUP2 MSTORE PUSH1 0x20 ADD PUSH1 0x0 KECCAK256 PUSH1 0x4 ADD PUSH1 0x0 DUP3 DUP3 SLOAD PUSH2 0xBFF SWAP2 SWAP1 PUSH2 0x242B JUMP JUMPDEST SWAP3 POP POP DUP2 SWAP1 SSTORE POP PUSH1 0x1 SWAP1 POP SWAP2 SWAP1 POP JUMP JUMPDEST PUSH1 0x0 PUSH1 0x3 PUSH1 0x0 DUP6 DUP2 MSTORE PUSH1 0x20 ADD SWAP1 DUP2 MSTORE PUSH1 0x20 ADD PUSH1 0x0 KECCAK256 PUSH1 0x3 ADD PUSH1 0x9 SWAP1 SLOAD SWAP1 PUSH2 0x100 EXP SWAP1 DIV PUSH1 0xFF AND PUSH2 0xC74 JUMPI PUSH1 0x40 MLOAD PUSH32 0x8C379A000000000000000000000000000000000000000000000000000000000 DUP2 MSTORE PUSH1 0x4 ADD PUSH2 0xC6B SWAP1 PUSH2 0x25E5 JUMP JUMPDEST PUSH1 0x40 MLOAD DUP1 SWAP2 SUB SWAP1 REVERT JUMPDEST PUSH1 0x3 PUSH1 0x0 DUP6 DUP2 MSTORE PUSH1 0x20 ADD SWAP1 DUP2 MSTORE PUSH1 0x20 ADD PUSH1 0x0 KECCAK256 PUSH1 0x3 ADD PUSH1 0x8 SWAP1 SLOAD SWAP1 PUSH2 0x100 EXP SWAP1 DIV PUSH1 0xFF AND ISZERO PUSH2 0xCD8 JUMPI PUSH1 0x40 MLOAD PUSH32 0x8C379A000000000000000000000000000000000000000000000000000000000 DUP2 MSTORE PUSH1 0x4 ADD PUSH2 0xCCF SWAP1 PUSH2 0x2651 JUMP JUMPDEST PUSH1 0x40 MLOAD DUP1 SWAP2 SUB SWAP1 REVERT JUMPDEST PUSH1 0x1 SLOAD PUSH1 0x4 PUSH1 0x0 PUSH1 0x1 SLOAD DUP2 MSTORE PUSH1 0x20 ADD SWAP1 DUP2 MSTORE PUSH1 0x20 ADD PUSH1 0x0 KECCAK256 PUSH1 0x0 ADD DUP2 SWAP1 SSTORE POP DUP4 PUSH1 0x4 PUSH1 0x0 PUSH1 0x1 SLOAD DUP2 MSTORE PUSH1 0x20 ADD SWAP1 DUP2 MSTORE PUSH1 0x20 ADD PUSH1 0x0 KECCAK256 PUSH1 0x1 ADD DUP2 SWAP1 SSTORE POP DUP3 PUSH1 0x4 PUSH1 0x0 PUSH1 0x1 SLOAD DUP2 MSTORE PUSH1 0x20 ADD SWAP1 DUP2 MSTORE PUSH1 0x20 ADD PUSH1 0x0 KECCAK256 PUSH1 0x2 ADD PUSH1 0x0 PUSH2 0x100 EXP DUP2 SLOAD DUP2 PUSH4 0xFFFFFFFF MUL NOT AND SWAP1 DUP4 PUSH4 0xFFFFFFFF AND MUL OR SWAP1 SSTORE POP DUP2 PUSH1 0x4 PUSH1 0x0 PUSH1 0x1 SLOAD DUP2 MSTORE PUSH1 0x20 ADD SWAP1 DUP2 MSTORE PUSH1 0x20 ADD PUSH1 0x0 KECCAK256 PUSH1 0x2 ADD PUSH1 0x4 PUSH2 0x100 EXP DUP2 SLOAD DUP2 PUSH4 0xFFFFFFFF MUL NOT AND SWAP1 DUP4 PUSH4 0xFFFFFFFF AND MUL OR SWAP1 SSTORE POP CALLVALUE PUSH1 0x4 PUSH1 0x0 PUSH1 0x1 SLOAD DUP2 MSTORE PUSH1 0x20 ADD SWAP1 DUP2 MSTORE PUSH1 0x20 ADD PUSH1 0x0 KECCAK256 PUSH1 0x3 ADD PUSH1 0x0 CALLER PUSH20 0xFFFFFFFFFFFFFFFFFFFFFFFFFFFFFFFFFFFFFFFF AND PUSH20 0xFFFFFFFFFFFFFFFFFFFFFFFFFFFFFFFFFFFFFFFF AND DUP2 MSTORE PUSH1 0x20 ADD SWAP1 DUP2 MSTORE PUSH1 0x20 ADD PUSH1 0x0 KECCAK256 DUP2 SWAP1 SSTORE POP CALLVALUE PUSH1 0x4 PUSH1 0x0 PUSH1 0x1 SLOAD DUP2 MSTORE PUSH1 0x20 ADD SWAP1 DUP2 MSTORE PUSH1 0x20 ADD PUSH1 0x0 KECCAK256 PUSH1 0x4 ADD DUP2 SWAP1 SSTORE POP PUSH1 0x1 PUSH1 0x4 PUSH1 0x0 PUSH1 0x1 SLOAD DUP2 MSTORE PUSH1 0x20 ADD SWAP1 DUP2 MSTORE PUSH1 0x20 ADD PUSH1 0x0 KECCAK256 PUSH1 0x9 ADD PUSH1 0x0 PUSH2 0x100 EXP DUP2 SLOAD DUP2 PUSH1 0xFF MUL NOT AND SWAP1 DUP4 ISZERO ISZERO MUL OR SWAP1 SSTORE POP PUSH1 0x1 PUSH1 0x4 PUSH1 0x0 PUSH1 0x1 SLOAD DUP2 MSTORE PUSH1 0x20 ADD SWAP1 DUP2 MSTORE PUSH1 0x20 ADD PUSH1 0x0 KECCAK256 PUSH1 0x6 ADD PUSH1 0x2 ADD PUSH1 0x1 PUSH2 0x100 EXP DUP2 SLOAD DUP2 PUSH1 0xFF MUL NOT AND SWAP1 DUP4 ISZERO ISZERO MUL OR SWAP1 SSTORE POP PUSH1 0x3 PUSH1 0x0 DUP6 DUP2 MSTORE PUSH1 0x20 ADD SWAP1 DUP2 MSTORE PUSH1 0x20 ADD PUSH1 0x0 KECCAK256 PUSH1 0x4 ADD PUSH1 0x4 PUSH1 0x0 PUSH1 0x1 SLOAD DUP2 MSTORE PUSH1 0x20 ADD SWAP1 DUP2 MSTORE PUSH1 0x20 ADD PUSH1 0x0 KECCAK256 PUSH1 0x0 ADD SLOAD SWAP1 DUP1 PUSH1 0x1 DUP2 SLOAD ADD DUP1 DUP3 SSTORE DUP1 SWAP2 POP POP PUSH1 0x1 SWAP1 SUB SWAP1 PUSH1 0x0 MSTORE PUSH1 0x20 PUSH1 0x0 KECCAK256 ADD PUSH1 0x0 SWAP1 SWAP2 SWAP1 SWAP2 SWAP1 SWAP2 POP SSTORE PUSH1 0x1 DUP1 PUSH1 0x0 DUP3 DUP3 SLOAD PUSH2 0xEC5 SWAP2 SWAP1 PUSH2 0x242B JUMP JUMPDEST SWAP3 POP POP DUP2 SWAP1 SSTORE POP PUSH1 0x4 PUSH1 0x0 PUSH1 0x1 SLOAD DUP2 MSTORE PUSH1 0x20 ADD SWAP1 DUP2 MSTORE PUSH1 0x20 ADD PUSH1 0x0 KECCAK256 PUSH1 0x0 ADD SLOAD SWAP1 POP SWAP4 SWAP3 POP POP POP JUMP JUMPDEST PUSH1 0x0 DUP1 PUSH1 0x4 PUSH1 0x0 DUP5 DUP2 MSTORE PUSH1 0x20 ADD SWAP1 DUP2 MSTORE PUSH1 0x20 ADD PUSH1 0x0 KECCAK256 SWAP1 POP PUSH1 0x0 PUSH1 0x3 PUSH1 0x0 DUP4 PUSH1 0x1 ADD SLOAD DUP2 MSTORE PUSH1 0x20 ADD SWAP1 DUP2 MSTORE PUSH1 0x20 ADD PUSH1 0x0 KECCAK256 SWAP1 POP DUP2 PUSH1 0x9 ADD PUSH1 0x0 SWAP1 SLOAD SWAP1 PUSH2 0x100 EXP SWAP1 DIV PUSH1 0xFF AND PUSH2 0xF72 JUMPI PUSH1 0x40 MLOAD PUSH32 0x8C379A000000000000000000000000000000000000000000000000000000000 DUP2 MSTORE PUSH1 0x4 ADD PUSH2 0xF69 SWAP1 PUSH2 0x26BD JUMP JUMPDEST PUSH1 0x40 MLOAD DUP1 SWAP2 SUB SWAP1 REVERT JUMPDEST DUP1 PUSH1 0x3 ADD PUSH1 0x8 SWAP1 SLOAD SWAP1 PUSH2 0x100 EXP SWAP1 DIV PUSH1 0xFF AND PUSH2 0xFC3 JUMPI PUSH1 0x40 MLOAD PUSH32 0x8C379A000000000000000000000000000000000000000000000000000000000 DUP2 MSTORE PUSH1 0x4 ADD PUSH2 0xFBA SWAP1 PUSH2 0x2729 JUMP JUMPDEST PUSH1 0x40 MLOAD DUP1 SWAP2 SUB SWAP1 REVERT JUMPDEST DUP2 PUSH1 0x5 ADD PUSH1 0x0 CALLER PUSH20 0xFFFFFFFFFFFFFFFFFFFFFFFFFFFFFFFFFFFFFFFF AND PUSH20 0xFFFFFFFFFFFFFFFFFFFFFFFFFFFFFFFFFFFFFFFF AND DUP2 MSTORE PUSH1 0x20 ADD SWAP1 DUP2 MSTORE PUSH1 0x20 ADD PUSH1 0x0 KECCAK256 PUSH1 0x2 ADD PUSH1 0x0 SWAP1 SLOAD SWAP1 PUSH2 0x100 EXP SWAP1 DIV PUSH1 0xFF AND ISZERO PUSH2 0x1055 JUMPI PUSH1 0x40 MLOAD PUSH32 0x8C379A000000000000000000000000000000000000000000000000000000000 DUP2 MSTORE PUSH1 0x4 ADD PUSH2 0x104C SWAP1 PUSH2 0x2795 JUMP JUMPDEST PUSH1 0x40 MLOAD DUP1 SWAP2 SUB SWAP1 REVERT JUMPDEST PUSH1 0x1 DUP3 PUSH1 0x5 ADD PUSH1 0x0 CALLER PUSH20 0xFFFFFFFFFFFFFFFFFFFFFFFFFFFFFFFFFFFFFFFF AND PUSH20 0xFFFFFFFFFFFFFFFFFFFFFFFFFFFFFFFFFFFFFFFF AND DUP2 MSTORE PUSH1 0x20 ADD SWAP1 DUP2 MSTORE PUSH1 0x20 ADD PUSH1 0x0 KECCAK256 PUSH1 0x2 ADD PUSH1 0x0 PUSH2 0x100 EXP DUP2 SLOAD DUP2 PUSH1 0xFF MUL NOT AND SWAP1 DUP4 ISZERO ISZERO MUL OR SWAP1 SSTORE POP PUSH1 0x0 DUP3 PUSH1 0x2 ADD PUSH1 0x0 SWAP1 SLOAD SWAP1 PUSH2 0x100 EXP SWAP1 DIV PUSH4 0xFFFFFFFF AND DUP3 PUSH1 0x3 ADD PUSH1 0x0 SWAP1 SLOAD SWAP1 PUSH2 0x100 EXP SWAP1 DIV PUSH4 0xFFFFFFFF AND PUSH2 0x10E8 SWAP2 SWAP1 PUSH2 0x27B5 JUMP JUMPDEST SWAP1 POP PUSH1 0x0 DUP4 PUSH1 0x2 ADD PUSH1 0x4 SWAP1 SLOAD SWAP1 PUSH2 0x100 EXP SWAP1 DIV PUSH4 0xFFFFFFFF AND DUP4 PUSH1 0x3 ADD PUSH1 0x4 SWAP1 SLOAD SWAP1 PUSH2 0x100 EXP SWAP1 DIV PUSH4 0xFFFFFFFF AND PUSH2 0x1120 SWAP2 SWAP1 PUSH2 0x27B5 JUMP JUMPDEST SWAP1 POP DUP1 PUSH4 0xFFFFFFFF AND DUP3 PUSH4 0xFFFFFFFF AND GT ISZERO PUSH2 0x11A3 JUMPI PUSH1 0x0 PUSH1 0x2 DUP6 PUSH1 0x5 ADD PUSH1 0x0 CALLER PUSH20 0xFFFFFFFFFFFFFFFFFFFFFFFFFFFFFFFFFFFFFFFF AND PUSH20 0xFFFFFFFFFFFFFFFFFFFFFFFFFFFFFFFFFFFFFFFF AND DUP2 MSTORE PUSH1 0x20 ADD SWAP1 DUP2 MSTORE PUSH1 0x20 ADD PUSH1 0x0 KECCAK256 PUSH1 0x0 ADD SLOAD PUSH2 0x1189 SWAP2 SWAP1 PUSH2 0x245F JUMP JUMPDEST SWAP1 POP PUSH2 0x1195 CALLER DUP3 PUSH2 0x176E JUMP JUMPDEST PUSH1 0x1 SWAP6 POP POP POP POP POP POP PUSH2 0x12C9 JUMP JUMPDEST DUP1 PUSH4 0xFFFFFFFF AND DUP3 PUSH4 0xFFFFFFFF AND LT ISZERO PUSH2 0x1224 JUMPI PUSH1 0x0 PUSH1 0x2 DUP6 PUSH1 0x5 ADD PUSH1 0x0 CALLER PUSH20 0xFFFFFFFFFFFFFFFFFFFFFFFFFFFFFFFFFFFFFFFF AND PUSH20 0xFFFFFFFFFFFFFFFFFFFFFFFFFFFFFFFFFFFFFFFF AND DUP2 MSTORE PUSH1 0x20 ADD SWAP1 DUP2 MSTORE PUSH1 0x20 ADD PUSH1 0x0 KECCAK256 PUSH1 0x1 ADD SLOAD PUSH2 0x120A SWAP2 SWAP1 PUSH2 0x245F JUMP JUMPDEST SWAP1 POP PUSH2 0x1216 CALLER DUP3 PUSH2 0x176E JUMP JUMPDEST PUSH1 0x1 SWAP6 POP POP POP POP POP POP PUSH2 0x12C9 JUMP JUMPDEST PUSH2 0x1272 CALLER DUP6 PUSH1 0x5 ADD PUSH1 0x0 CALLER PUSH20 0xFFFFFFFFFFFFFFFFFFFFFFFFFFFFFFFFFFFFFFFF AND PUSH20 0xFFFFFFFFFFFFFFFFFFFFFFFFFFFFFFFFFFFFFFFF AND DUP2 MSTORE PUSH1 0x20 ADD SWAP1 DUP2 MSTORE PUSH1 0x20 ADD PUSH1 0x0 KECCAK256 PUSH1 0x0 ADD SLOAD PUSH2 0x176E JUMP JUMPDEST PUSH2 0x12C0 CALLER DUP6 PUSH1 0x5 ADD PUSH1 0x0 CALLER PUSH20 0xFFFFFFFFFFFFFFFFFFFFFFFFFFFFFFFFFFFFFFFF AND PUSH20 0xFFFFFFFFFFFFFFFFFFFFFFFFFFFFFFFFFFFFFFFF AND DUP2 MSTORE PUSH1 0x20 ADD SWAP1 DUP2 MSTORE PUSH1 0x20 ADD PUSH1 0x0 KECCAK256 PUSH1 0x1 ADD SLOAD PUSH2 0x176E JUMP JUMPDEST PUSH1 0x1 SWAP5 POP POP POP POP POP JUMPDEST SWAP2 SWAP1 POP JUMP JUMPDEST PUSH1 0x0 PUSH1 0x4 PUSH1 0x0 DUP5 DUP2 MSTORE PUSH1 0x20 ADD SWAP1 DUP2 MSTORE PUSH1 0x20 ADD PUSH1 0x0 KECCAK256 PUSH1 0x9 ADD PUSH1 0x0 SWAP1 SLOAD SWAP1 PUSH2 0x100 EXP SWAP1 DIV PUSH1 0xFF AND PUSH2 0x1333 JUMPI PUSH1 0x40 MLOAD PUSH32 0x8C379A000000000000000000000000000000000000000000000000000000000 DUP2 MSTORE PUSH1 0x4 ADD PUSH2 0x132A SWAP1 PUSH2 0x2839 JUMP JUMPDEST PUSH1 0x40 MLOAD DUP1 SWAP2 SUB SWAP1 REVERT JUMPDEST PUSH2 0x1350 PUSH1 0x4 PUSH1 0x0 DUP6 DUP2 MSTORE PUSH1 0x20 ADD SWAP1 DUP2 MSTORE PUSH1 0x20 ADD PUSH1 0x0 KECCAK256 DUP4 CALLVALUE PUSH2 0x186E JUMP JUMPDEST PUSH2 0x138F JUMPI PUSH1 0x40 MLOAD PUSH32 0x8C379A000000000000000000000000000000000000000000000000000000000 DUP2 MSTORE PUSH1 0x4 ADD PUSH2 0x1386 SWAP1 PUSH2 0x28A5 JUMP JUMPDEST PUSH1 0x40 MLOAD DUP1 SWAP2 SUB SWAP1 REVERT JUMPDEST PUSH1 0x3 PUSH1 0x0 PUSH1 0x4 PUSH1 0x0 DUP7 DUP2 MSTORE PUSH1 0x20 ADD SWAP1 DUP2 MSTORE PUSH1 0x20 ADD PUSH1 0x0 KECCAK256 PUSH1 0x1 ADD SLOAD DUP2 MSTORE PUSH1 0x20 ADD SWAP1 DUP2 MSTORE PUSH1 0x20 ADD PUSH1 0x0 KECCAK256 PUSH1 0x3 ADD PUSH1 0x8 SWAP1 SLOAD SWAP1 PUSH2 0x100 EXP SWAP1 DIV PUSH1 0xFF AND ISZERO PUSH2 0x1409 JUMPI PUSH1 0x40 MLOAD PUSH32 0x8C379A000000000000000000000000000000000000000000000000000000000 DUP2 MSTORE PUSH1 0x4 ADD PUSH2 0x1400 SWAP1 PUSH2 0x2579 JUMP JUMPDEST PUSH1 0x40 MLOAD DUP1 SWAP2 SUB SWAP1 REVERT JUMPDEST PUSH1 0x4 PUSH1 0x0 DUP5 DUP2 MSTORE PUSH1 0x20 ADD SWAP1 DUP2 MSTORE PUSH1 0x20 ADD PUSH1 0x0 KECCAK256 PUSH1 0x5 ADD PUSH1 0x0 CALLER PUSH20 0xFFFFFFFFFFFFFFFFFFFFFFFFFFFFFFFFFFFFFFFF AND PUSH20 0xFFFFFFFFFFFFFFFFFFFFFFFFFFFFFFFFFFFFFFFF AND DUP2 MSTORE PUSH1 0x20 ADD SWAP1 DUP2 MSTORE PUSH1 0x20 ADD PUSH1 0x0 KECCAK256 PUSH1 0x2 ADD PUSH1 0x1 SWAP1 SLOAD SWAP1 PUSH2 0x100 EXP SWAP1 DIV PUSH1 0xFF AND PUSH2 0x14AC JUMPI PUSH1 0x40 MLOAD PUSH32 0x8C379A000000000000000000000000000000000000000000000000000000000 DUP2 MSTORE PUSH1 0x4 ADD PUSH2 0x14A3 SWAP1 PUSH2 0x2937 JUMP JUMPDEST PUSH1 0x40 MLOAD DUP1 SWAP2 SUB SWAP1 REVERT JUMPDEST DUP2 ISZERO PUSH2 0x159E JUMPI CALLVALUE PUSH1 0x4 PUSH1 0x0 DUP6 DUP2 MSTORE PUSH1 0x20 ADD SWAP1 DUP2 MSTORE PUSH1 0x20 ADD PUSH1 0x0 KECCAK256 PUSH1 0x5 ADD PUSH1 0x0 CALLER PUSH20 0xFFFFFFFFFFFFFFFFFFFFFFFFFFFFFFFFFFFFFFFF AND PUSH20 0xFFFFFFFFFFFFFFFFFFFFFFFFFFFFFFFFFFFFFFFF AND DUP2 MSTORE PUSH1 0x20 ADD SWAP1 DUP2 MSTORE PUSH1 0x20 ADD PUSH1 0x0 KECCAK256 PUSH1 0x0 ADD DUP2 SWAP1 SSTORE POP PUSH1 0x0 PUSH1 0x4 PUSH1 0x0 DUP6 DUP2 MSTORE PUSH1 0x20 ADD SWAP1 DUP2 MSTORE PUSH1 0x20 ADD PUSH1 0x0 KECCAK256 PUSH1 0x5 ADD PUSH1 0x0 CALLER PUSH20 0xFFFFFFFFFFFFFFFFFFFFFFFFFFFFFFFFFFFFFFFF AND PUSH20 0xFFFFFFFFFFFFFFFFFFFFFFFFFFFFFFFFFFFFFFFF AND DUP2 MSTORE PUSH1 0x20 ADD SWAP1 DUP2 MSTORE PUSH1 0x20 ADD PUSH1 0x0 KECCAK256 PUSH1 0x1 ADD DUP2 SWAP1 SSTORE POP CALLVALUE PUSH1 0x4 PUSH1 0x0 DUP6 DUP2 MSTORE PUSH1 0x20 ADD SWAP1 DUP2 MSTORE PUSH1 0x20 ADD PUSH1 0x0 KECCAK256 PUSH1 0x6 ADD PUSH1 0x0 ADD PUSH1 0x0 DUP3 DUP3 SLOAD PUSH2 0x1592 SWAP2 SWAP1 PUSH2 0x242B JUMP JUMPDEST SWAP3 POP POP DUP2 SWAP1 SSTORE POP PUSH2 0x1686 JUMP JUMPDEST CALLVALUE PUSH1 0x4 PUSH1 0x0 DUP6 DUP2 MSTORE PUSH1 0x20 ADD SWAP1 DUP2 MSTORE PUSH1 0x20 ADD PUSH1 0x0 KECCAK256 PUSH1 0x5 ADD PUSH1 0x0 CALLER PUSH20 0xFFFFFFFFFFFFFFFFFFFFFFFFFFFFFFFFFFFFFFFF AND PUSH20 0xFFFFFFFFFFFFFFFFFFFFFFFFFFFFFFFFFFFFFFFF AND DUP2 MSTORE PUSH1 0x20 ADD SWAP1 DUP2 MSTORE PUSH1 0x20 ADD PUSH1 0x0 KECCAK256 PUSH1 0x1 ADD DUP2 SWAP1 SSTORE POP PUSH1 0x0 PUSH1 0x4 PUSH1 0x0 DUP6 DUP2 MSTORE PUSH1 0x20 ADD SWAP1 DUP2 MSTORE PUSH1 0x20 ADD PUSH1 0x0 KECCAK256 PUSH1 0x5 ADD PUSH1 0x0 CALLER PUSH20 0xFFFFFFFFFFFFFFFFFFFFFFFFFFFFFFFFFFFFFFFF AND PUSH20 0xFFFFFFFFFFFFFFFFFFFFFFFFFFFFFFFFFFFFFFFF AND DUP2 MSTORE PUSH1 0x20 ADD SWAP1 DUP2 MSTORE PUSH1 0x20 ADD PUSH1 0x0 KECCAK256 PUSH1 0x0 ADD DUP2 SWAP1 SSTORE POP CALLVALUE PUSH1 0x4 PUSH1 0x0 DUP6 DUP2 MSTORE PUSH1 0x20 ADD SWAP1 DUP2 MSTORE PUSH1 0x20 ADD PUSH1 0x0 KECCAK256 PUSH1 0x6 ADD PUSH1 0x1 ADD PUSH1 0x0 DUP3 DUP3 SLOAD PUSH2 0x167E SWAP2 SWAP1 PUSH2 0x242B JUMP JUMPDEST SWAP3 POP POP DUP2 SWAP1 SSTORE POP JUMPDEST PUSH1 0x0 PUSH1 0x4 PUSH1 0x0 DUP6 DUP2 MSTORE PUSH1 0x20 ADD SWAP1 DUP2 MSTORE PUSH1 0x20 ADD PUSH1 0x0 KECCAK256 PUSH1 0x5 ADD PUSH1 0x0 CALLER PUSH20 0xFFFFFFFFFFFFFFFFFFFFFFFFFFFFFFFFFFFFFFFF AND PUSH20 0xFFFFFFFFFFFFFFFFFFFFFFFFFFFFFFFFFFFFFFFF AND DUP2 MSTORE PUSH1 0x20 ADD SWAP1 DUP2 MSTORE PUSH1 0x20 ADD PUSH1 0x0 KECCAK256 PUSH1 0x2 ADD PUSH1 0x0 PUSH2 0x100 EXP DUP2 SLOAD DUP2 PUSH1 0xFF MUL NOT AND SWAP1 DUP4 ISZERO ISZERO MUL OR SWAP1 SSTORE POP PUSH1 0x1 PUSH1 0x4 PUSH1 0x0 DUP6 DUP2 MSTORE PUSH1 0x20 ADD SWAP1 DUP2 MSTORE PUSH1 0x20 ADD PUSH1 0x0 KECCAK256 PUSH1 0x5 ADD PUSH1 0x0 CALLER PUSH20 0xFFFFFFFFFFFFFFFFFFFFFFFFFFFFFFFFFFFFFFFF AND PUSH20 0xFFFFFFFFFFFFFFFFFFFFFFFFFFFFFFFFFFFFFFFF AND DUP2 MSTORE PUSH1 0x20 ADD SWAP1 DUP2 MSTORE PUSH1 0x20 ADD PUSH1 0x0 KECCAK256 PUSH1 0x2 ADD PUSH1 0x1 PUSH2 0x100 EXP DUP2 SLOAD DUP2 PUSH1 0xFF MUL NOT AND SWAP1 DUP4 ISZERO ISZERO MUL OR SWAP1 SSTORE POP PUSH1 0x1 SWAP1 POP SWAP3 SWAP2 POP POP JUMP JUMPDEST PUSH1 0x0 DUP3 PUSH20 0xFFFFFFFFFFFFFFFFFFFFFFFFFFFFFFFFFFFFFFFF AND DUP3 PUSH1 0x0 PUSH8 0xFFFFFFFFFFFFFFFF DUP2 GT ISZERO PUSH2 0x17A3 JUMPI PUSH2 0x17A2 PUSH2 0x20F1 JUMP JUMPDEST JUMPDEST PUSH1 0x40 MLOAD SWAP1 DUP1 DUP3 MSTORE DUP1 PUSH1 0x1F ADD PUSH1 0x1F NOT AND PUSH1 0x20 ADD DUP3 ADD PUSH1 0x40 MSTORE DUP1 ISZERO PUSH2 0x17D5 JUMPI DUP2 PUSH1 0x20 ADD PUSH1 0x1 DUP3 MUL DUP1 CALLDATASIZE DUP4 CALLDATACOPY DUP1 DUP3 ADD SWAP2 POP POP SWAP1 POP JUMPDEST POP PUSH1 0x40 MLOAD PUSH2 0x17E3 SWAP2 SWAP1 PUSH2 0x299E JUMP JUMPDEST PUSH1 0x0 PUSH1 0x40 MLOAD DUP1 DUP4 SUB DUP2 DUP6 DUP8 GAS CALL SWAP3 POP POP POP RETURNDATASIZE DUP1 PUSH1 0x0 DUP2 EQ PUSH2 0x1820 JUMPI PUSH1 0x40 MLOAD SWAP2 POP PUSH1 0x1F NOT PUSH1 0x3F RETURNDATASIZE ADD AND DUP3 ADD PUSH1 0x40 MSTORE RETURNDATASIZE DUP3 MSTORE RETURNDATASIZE PUSH1 0x0 PUSH1 0x20 DUP5 ADD RETURNDATACOPY PUSH2 0x1825 JUMP JUMPDEST PUSH1 0x60 SWAP2 POP JUMPDEST POP POP SWAP1 POP DUP1 PUSH2 0x1869 JUMPI PUSH1 0x40 MLOAD PUSH32 0x8C379A000000000000000000000000000000000000000000000000000000000 DUP2 MSTORE PUSH1 0x4 ADD PUSH2 0x1860 SWAP1 PUSH2 0x2A01 JUMP JUMPDEST PUSH1 0x40 MLOAD DUP1 SWAP2 SUB SWAP1 REVERT JUMPDEST POP POP POP JUMP JUMPDEST PUSH1 0x0 DUP1 DUP5 PUSH1 0x6 ADD PUSH1 0x0 ADD SLOAD SWAP1 POP PUSH1 0x0 DUP6 PUSH1 0x6 ADD PUSH1 0x1 ADD SLOAD SWAP1 POP DUP5 ISZERO PUSH2 0x18A0 JUMPI DUP4 DUP3 PUSH2 0x1899 SWAP2 SWAP1 PUSH2 0x242B JUMP JUMPDEST SWAP2 POP PUSH2 0x18AF JUMP JUMPDEST DUP4 DUP2 PUSH2 0x18AC SWAP2 SWAP1 PUSH2 0x242B JUMP JUMPDEST SWAP1 POP JUMPDEST PUSH1 0x0 DUP1 DUP3 DUP5 GT ISZERO PUSH2 0x18C5 JUMPI DUP4 SWAP2 POP DUP3 SWAP1 POP PUSH2 0x18CC JUMP JUMPDEST DUP3 SWAP2 POP DUP4 SWAP1 POP JUMPDEST PUSH1 0x0 DUP2 DUP4 PUSH2 0x18DA SWAP2 SWAP1 PUSH2 0x24A1 JUMP JUMPDEST SWAP1 POP DUP9 PUSH1 0x4 ADD SLOAD DUP2 GT ISZERO PUSH2 0x18F6 JUMPI PUSH1 0x0 SWAP6 POP POP POP POP POP POP PUSH2 0x1900 JUMP JUMPDEST PUSH1 0x1 SWAP6 POP POP POP POP POP POP JUMPDEST SWAP4 SWAP3 POP POP POP JUMP JUMPDEST PUSH1 0x40 MLOAD DUP1 PUSH2 0x100 ADD PUSH1 0x40 MSTORE DUP1 PUSH1 0x0 DUP2 MSTORE PUSH1 0x20 ADD PUSH1 0x60 DUP2 MSTORE PUSH1 0x20 ADD PUSH1 0x60 DUP2 MSTORE PUSH1 0x20 ADD PUSH1 0x0 PUSH4 0xFFFFFFFF AND DUP2 MSTORE PUSH1 0x20 ADD PUSH1 0x0 PUSH4 0xFFFFFFFF AND DUP2 MSTORE PUSH1 0x20 ADD PUSH1 0x0 ISZERO ISZERO DUP2 MSTORE PUSH1 0x20 ADD PUSH1 0x0 ISZERO ISZERO DUP2 MSTORE PUSH1 0x20 ADD PUSH1 0x60 DUP2 MSTORE POP SWAP1 JUMP JUMPDEST PUSH1 0x0 DUP2 SWAP1 POP SWAP2 SWAP1 POP JUMP JUMPDEST PUSH2 0x196F DUP2 PUSH2 0x195C JUMP JUMPDEST DUP3 MSTORE POP POP JUMP JUMPDEST PUSH1 0x0 PUSH1 0x20 DUP3 ADD SWAP1 POP PUSH2 0x198A PUSH1 0x0 DUP4 ADD DUP5 PUSH2 0x1966 JUMP JUMPDEST SWAP3 SWAP2 POP POP JUMP JUMPDEST PUSH1 0x0 DUP1 REVERT JUMPDEST PUSH1 0x0 DUP1 REVERT JUMPDEST PUSH1 0x0 DUP1 REVERT JUMPDEST PUSH1 0x0 DUP1 REVERT JUMPDEST PUSH1 0x0 DUP1 REVERT JUMPDEST PUSH1 0x0 DUP1 DUP4 PUSH1 0x1F DUP5 ADD SLT PUSH2 0x19BF JUMPI PUSH2 0x19BE PUSH2 0x199A JUMP JUMPDEST JUMPDEST DUP3 CALLDATALOAD SWAP1 POP PUSH8 0xFFFFFFFFFFFFFFFF DUP2 GT ISZERO PUSH2 0x19DC JUMPI PUSH2 0x19DB PUSH2 0x199F JUMP JUMPDEST JUMPDEST PUSH1 0x20 DUP4 ADD SWAP2 POP DUP4 PUSH1 0x1 DUP3 MUL DUP4 ADD GT ISZERO PUSH2 0x19F8 JUMPI PUSH2 0x19F7 PUSH2 0x19A4 JUMP JUMPDEST JUMPDEST SWAP3 POP SWAP3 SWAP1 POP JUMP JUMPDEST PUSH1 0x0 DUP1 PUSH1 0x0 DUP1 PUSH1 0x40 DUP6 DUP8 SUB SLT ISZERO PUSH2 0x1A19 JUMPI PUSH2 0x1A18 PUSH2 0x1990 JUMP JUMPDEST JUMPDEST PUSH1 0x0 DUP6 ADD CALLDATALOAD PUSH8 0xFFFFFFFFFFFFFFFF DUP2 GT ISZERO PUSH2 0x1A37 JUMPI PUSH2 0x1A36 PUSH2 0x1995 JUMP JUMPDEST JUMPDEST PUSH2 0x1A43 DUP8 DUP3 DUP9 ADD PUSH2 0x19A9 JUMP JUMPDEST SWAP5 POP SWAP5 POP POP PUSH1 0x20 DUP6 ADD CALLDATALOAD PUSH8 0xFFFFFFFFFFFFFFFF DUP2 GT ISZERO PUSH2 0x1A66 JUMPI PUSH2 0x1A65 PUSH2 0x1995 JUMP JUMPDEST JUMPDEST PUSH2 0x1A72 DUP8 DUP3 DUP9 ADD PUSH2 0x19A9 JUMP JUMPDEST SWAP3 POP SWAP3 POP POP SWAP3 SWAP6 SWAP2 SWAP5 POP SWAP3 POP JUMP JUMPDEST PUSH2 0x1A89 DUP2 PUSH2 0x195C JUMP JUMPDEST DUP2 EQ PUSH2 0x1A94 JUMPI PUSH1 0x0 DUP1 REVERT JUMPDEST POP JUMP JUMPDEST PUSH1 0x0 DUP2 CALLDATALOAD SWAP1 POP PUSH2 0x1AA6 DUP2 PUSH2 0x1A80 JUMP JUMPDEST SWAP3 SWAP2 POP POP JUMP JUMPDEST PUSH1 0x0 PUSH4 0xFFFFFFFF DUP3 AND SWAP1 POP SWAP2 SWAP1 POP JUMP JUMPDEST PUSH2 0x1AC5 DUP2 PUSH2 0x1AAC JUMP JUMPDEST DUP2 EQ PUSH2 0x1AD0 JUMPI PUSH1 0x0 DUP1 REVERT JUMPDEST POP JUMP JUMPDEST PUSH1 0x0 DUP2 CALLDATALOAD SWAP1 POP PUSH2 0x1AE2 DUP2 PUSH2 0x1ABC JUMP JUMPDEST SWAP3 SWAP2 POP POP JUMP JUMPDEST PUSH1 0x0 DUP1 PUSH1 0x0 PUSH1 0x60 DUP5 DUP7 SUB SLT ISZERO PUSH2 0x1B01 JUMPI PUSH2 0x1B00 PUSH2 0x1990 JUMP JUMPDEST JUMPDEST PUSH1 0x0 PUSH2 0x1B0F DUP7 DUP3 DUP8 ADD PUSH2 0x1A97 JUMP JUMPDEST SWAP4 POP POP PUSH1 0x20 PUSH2 0x1B20 DUP7 DUP3 DUP8 ADD PUSH2 0x1AD3 JUMP JUMPDEST SWAP3 POP POP PUSH1 0x40 PUSH2 0x1B31 DUP7 DUP3 DUP8 ADD PUSH2 0x1AD3 JUMP JUMPDEST SWAP2 POP POP SWAP3 POP SWAP3 POP SWAP3 JUMP JUMPDEST PUSH1 0x0 DUP2 ISZERO ISZERO SWAP1 POP SWAP2 SWAP1 POP JUMP JUMPDEST PUSH2 0x1B50 DUP2 PUSH2 0x1B3B JUMP JUMPDEST DUP3 MSTORE POP POP JUMP JUMPDEST PUSH1 0x0 PUSH1 0x20 DUP3 ADD SWAP1 POP PUSH2 0x1B6B PUSH1 0x0 DUP4 ADD DUP5 PUSH2 0x1B47 JUMP JUMPDEST SWAP3 SWAP2 POP POP JUMP JUMPDEST PUSH1 0x0 PUSH20 0xFFFFFFFFFFFFFFFFFFFFFFFFFFFFFFFFFFFFFFFF DUP3 AND SWAP1 POP SWAP2 SWAP1 POP JUMP JUMPDEST PUSH1 0x0 PUSH2 0x1B9C DUP3 PUSH2 0x1B71 JUMP JUMPDEST SWAP1 POP SWAP2 SWAP1 POP JUMP JUMPDEST PUSH2 0x1BAC DUP2 PUSH2 0x1B91 JUMP JUMPDEST DUP3 MSTORE POP POP JUMP JUMPDEST PUSH1 0x0 PUSH1 0x20 DUP3 ADD SWAP1 POP PUSH2 0x1BC7 PUSH1 0x0 DUP4 ADD DUP5 PUSH2 0x1BA3 JUMP JUMPDEST SWAP3 SWAP2 POP POP JUMP JUMPDEST PUSH2 0x1BD6 DUP2 PUSH2 0x1B91 JUMP JUMPDEST DUP2 EQ PUSH2 0x1BE1 JUMPI PUSH1 0x0 DUP1 REVERT JUMPDEST POP JUMP JUMPDEST PUSH1 0x0 DUP2 CALLDATALOAD SWAP1 POP PUSH2 0x1BF3 DUP2 PUSH2 0x1BCD JUMP JUMPDEST SWAP3 SWAP2 POP POP JUMP JUMPDEST PUSH1 0x0 DUP1 PUSH1 0x40 DUP4 DUP6 SUB SLT ISZERO PUSH2 0x1C10 JUMPI PUSH2 0x1C0F PUSH2 0x1990 JUMP JUMPDEST JUMPDEST PUSH1 0x0 PUSH2 0x1C1E DUP6 DUP3 DUP7 ADD PUSH2 0x1A97 JUMP JUMPDEST SWAP3 POP POP PUSH1 0x20 PUSH2 0x1C2F DUP6 DUP3 DUP7 ADD PUSH2 0x1BE4 JUMP JUMPDEST SWAP2 POP POP SWAP3 POP SWAP3 SWAP1 POP JUMP JUMPDEST PUSH1 0x0 PUSH1 0x20 DUP3 DUP5 SUB SLT ISZERO PUSH2 0x1C4F JUMPI PUSH2 0x1C4E PUSH2 0x1990 JUMP JUMPDEST JUMPDEST PUSH1 0x0 PUSH2 0x1C5D DUP5 DUP3 DUP6 ADD PUSH2 0x1BE4 JUMP JUMPDEST SWAP2 POP POP SWAP3 SWAP2 POP POP JUMP JUMPDEST PUSH1 0x0 DUP1 PUSH1 0x40 DUP4 DUP6 SUB SLT ISZERO PUSH2 0x1C7D JUMPI PUSH2 0x1C7C PUSH2 0x1990 JUMP JUMPDEST JUMPDEST PUSH1 0x0 PUSH2 0x1C8B DUP6 DUP3 DUP7 ADD PUSH2 0x1A97 JUMP JUMPDEST SWAP3 POP POP PUSH1 0x20 PUSH2 0x1C9C DUP6 DUP3 DUP7 ADD PUSH2 0x1A97 JUMP JUMPDEST SWAP2 POP POP SWAP3 POP SWAP3 SWAP1 POP JUMP JUMPDEST PUSH1 0x0 DUP2 MLOAD SWAP1 POP SWAP2 SWAP1 POP JUMP JUMPDEST PUSH1 0x0 DUP3 DUP3 MSTORE PUSH1 0x20 DUP3 ADD SWAP1 POP SWAP3 SWAP2 POP POP JUMP JUMPDEST PUSH1 0x0 DUP2 SWAP1 POP PUSH1 0x20 DUP3 ADD SWAP1 POP SWAP2 SWAP1 POP JUMP JUMPDEST PUSH2 0x1CDB DUP2 PUSH2 0x195C JUMP JUMPDEST DUP3 MSTORE POP POP JUMP JUMPDEST PUSH1 0x0 DUP2 MLOAD SWAP1 POP SWAP2 SWAP1 POP JUMP JUMPDEST PUSH1 0x0 DUP3 DUP3 MSTORE PUSH1 0x20 DUP3 ADD SWAP1 POP SWAP3 SWAP2 POP POP JUMP JUMPDEST PUSH1 0x0 JUMPDEST DUP4 DUP2 LT ISZERO PUSH2 0x1D1B JUMPI DUP1 DUP3 ADD MLOAD DUP2 DUP5 ADD MSTORE PUSH1 0x20 DUP2 ADD SWAP1 POP PUSH2 0x1D00 JUMP JUMPDEST PUSH1 0x0 DUP5 DUP5 ADD MSTORE POP POP POP POP JUMP JUMPDEST PUSH1 0x0 PUSH1 0x1F NOT PUSH1 0x1F DUP4 ADD AND SWAP1 POP SWAP2 SWAP1 POP JUMP JUMPDEST PUSH1 0x0 PUSH2 0x1D43 DUP3 PUSH2 0x1CE1 JUMP JUMPDEST PUSH2 0x1D4D DUP2 DUP6 PUSH2 0x1CEC JUMP JUMPDEST SWAP4 POP PUSH2 0x1D5D DUP2 DUP6 PUSH1 0x20 DUP7 ADD PUSH2 0x1CFD JUMP JUMPDEST PUSH2 0x1D66 DUP2 PUSH2 0x1D27 JUMP JUMPDEST DUP5 ADD SWAP2 POP POP SWAP3 SWAP2 POP POP JUMP JUMPDEST PUSH2 0x1D7A DUP2 PUSH2 0x1AAC JUMP JUMPDEST DUP3 MSTORE POP POP JUMP JUMPDEST PUSH2 0x1D89 DUP2 PUSH2 0x1B3B JUMP JUMPDEST DUP3 MSTORE POP POP JUMP JUMPDEST PUSH1 0x0 DUP2 MLOAD SWAP1 POP SWAP2 SWAP1 POP JUMP JUMPDEST PUSH1 0x0 DUP3 DUP3 MSTORE PUSH1 0x20 DUP3 ADD SWAP1 POP SWAP3 SWAP2 POP POP JUMP JUMPDEST PUSH1 0x0 DUP2 SWAP1 POP PUSH1 0x20 DUP3 ADD SWAP1 POP SWAP2 SWAP1 POP JUMP JUMPDEST PUSH1 0x0 PUSH2 0x1DC7 DUP4 DUP4 PUSH2 0x1CD2 JUMP JUMPDEST PUSH1 0x20 DUP4 ADD SWAP1 POP SWAP3 SWAP2 POP POP JUMP JUMPDEST PUSH1 0x0 PUSH1 0x20 DUP3 ADD SWAP1 POP SWAP2 SWAP1 POP JUMP JUMPDEST PUSH1 0x0 PUSH2 0x1DEB DUP3 PUSH2 0x1D8F JUMP JUMPDEST PUSH2 0x1DF5 DUP2 DUP6 PUSH2 0x1D9A JUMP JUMPDEST SWAP4 POP PUSH2 0x1E00 DUP4 PUSH2 0x1DAB JUMP JUMPDEST DUP1 PUSH1 0x0 JUMPDEST DUP4 DUP2 LT ISZERO PUSH2 0x1E31 JUMPI DUP2 MLOAD PUSH2 0x1E18 DUP9 DUP3 PUSH2 0x1DBB JUMP JUMPDEST SWAP8 POP PUSH2 0x1E23 DUP4 PUSH2 0x1DD3 JUMP JUMPDEST SWAP3 POP POP PUSH1 0x1 DUP2 ADD SWAP1 POP PUSH2 0x1E04 JUMP JUMPDEST POP DUP6 SWAP4 POP POP POP POP SWAP3 SWAP2 POP POP JUMP JUMPDEST PUSH1 0x0 PUSH2 0x100 DUP4 ADD PUSH1 0x0 DUP4 ADD MLOAD PUSH2 0x1E57 PUSH1 0x0 DUP7 ADD DUP3 PUSH2 0x1CD2 JUMP JUMPDEST POP PUSH1 0x20 DUP4 ADD MLOAD DUP5 DUP3 SUB PUSH1 0x20 DUP7 ADD MSTORE PUSH2 0x1E6F DUP3 DUP3 PUSH2 0x1D38 JUMP JUMPDEST SWAP2 POP POP PUSH1 0x40 DUP4 ADD MLOAD DUP5 DUP3 SUB PUSH1 0x40 DUP7 ADD MSTORE PUSH2 0x1E89 DUP3 DUP3 PUSH2 0x1D38 JUMP JUMPDEST SWAP2 POP POP PUSH1 0x60 DUP4 ADD MLOAD PUSH2 0x1E9E PUSH1 0x60 DUP7 ADD DUP3 PUSH2 0x1D71 JUMP JUMPDEST POP PUSH1 0x80 DUP4 ADD MLOAD PUSH2 0x1EB1 PUSH1 0x80 DUP7 ADD DUP3 PUSH2 0x1D71 JUMP JUMPDEST POP PUSH1 0xA0 DUP4 ADD MLOAD PUSH2 0x1EC4 PUSH1 0xA0 DUP7 ADD DUP3 PUSH2 0x1D80 JUMP JUMPDEST POP PUSH1 0xC0 DUP4 ADD MLOAD PUSH2 0x1ED7 PUSH1 0xC0 DUP7 ADD DUP3 PUSH2 0x1D80 JUMP JUMPDEST POP PUSH1 0xE0 DUP4 ADD MLOAD DUP5 DUP3 SUB PUSH1 0xE0 DUP7 ADD MSTORE PUSH2 0x1EEF DUP3 DUP3 PUSH2 0x1DE0 JUMP JUMPDEST SWAP2 POP POP DUP1 SWAP2 POP POP SWAP3 SWAP2 POP POP JUMP JUMPDEST PUSH1 0x0 PUSH2 0x1F08 DUP4 DUP4 PUSH2 0x1E3E JUMP JUMPDEST SWAP1 POP SWAP3 SWAP2 POP POP JUMP JUMPDEST PUSH1 0x0 PUSH1 0x20 DUP3 ADD SWAP1 POP SWAP2 SWAP1 POP JUMP JUMPDEST PUSH1 0x0 PUSH2 0x1F28 DUP3 PUSH2 0x1CA6 JUMP JUMPDEST PUSH2 0x1F32 DUP2 DUP6 PUSH2 0x1CB1 JUMP JUMPDEST SWAP4 POP DUP4 PUSH1 0x20 DUP3 MUL DUP6 ADD PUSH2 0x1F44 DUP6 PUSH2 0x1CC2 JUMP JUMPDEST DUP1 PUSH1 0x0 JUMPDEST DUP6 DUP2 LT ISZERO PUSH2 0x1F80 JUMPI DUP5 DUP5 SUB DUP10 MSTORE DUP2 MLOAD PUSH2 0x1F61 DUP6 DUP3 PUSH2 0x1EFC JUMP JUMPDEST SWAP5 POP PUSH2 0x1F6C DUP4 PUSH2 0x1F10 JUMP JUMPDEST SWAP3 POP PUSH1 0x20 DUP11 ADD SWAP10 POP POP PUSH1 0x1 DUP2 ADD SWAP1 POP PUSH2 0x1F48 JUMP JUMPDEST POP DUP3 SWAP8 POP DUP8 SWAP6 POP POP POP POP POP POP SWAP3 SWAP2 POP POP JUMP JUMPDEST PUSH1 0x0 PUSH1 0x60 DUP3 ADD SWAP1 POP DUP2 DUP2 SUB PUSH1 0x0 DUP4 ADD MSTORE PUSH2 0x1FAC DUP2 DUP7 PUSH2 0x1F1D JUMP JUMPDEST SWAP1 POP PUSH2 0x1FBB PUSH1 0x20 DUP4 ADD DUP6 PUSH2 0x1B47 JUMP JUMPDEST PUSH2 0x1FC8 PUSH1 0x40 DUP4 ADD DUP5 PUSH2 0x1B47 JUMP JUMPDEST SWAP5 SWAP4 POP POP POP POP JUMP JUMPDEST PUSH1 0x0 PUSH1 0x20 DUP3 DUP5 SUB SLT ISZERO PUSH2 0x1FE6 JUMPI PUSH2 0x1FE5 PUSH2 0x1990 JUMP JUMPDEST JUMPDEST PUSH1 0x0 PUSH2 0x1FF4 DUP5 DUP3 DUP6 ADD PUSH2 0x1A97 JUMP JUMPDEST SWAP2 POP POP SWAP3 SWAP2 POP POP JUMP JUMPDEST PUSH2 0x2006 DUP2 PUSH2 0x1B3B JUMP JUMPDEST DUP2 EQ PUSH2 0x2011 JUMPI PUSH1 0x0 DUP1 REVERT JUMPDEST POP JUMP JUMPDEST PUSH1 0x0 DUP2 CALLDATALOAD SWAP1 POP PUSH2 0x2023 DUP2 PUSH2 0x1FFD JUMP JUMPDEST SWAP3 SWAP2 POP POP JUMP JUMPDEST PUSH1 0x0 DUP1 PUSH1 0x40 DUP4 DUP6 SUB SLT ISZERO PUSH2 0x2040 JUMPI PUSH2 0x203F PUSH2 0x1990 JUMP JUMPDEST JUMPDEST PUSH1 0x0 PUSH2 0x204E DUP6 DUP3 DUP7 ADD PUSH2 0x1A97 JUMP JUMPDEST SWAP3 POP POP PUSH1 0x20 PUSH2 0x205F DUP6 DUP3 DUP7 ADD PUSH2 0x2014 JUMP JUMPDEST SWAP2 POP POP SWAP3 POP SWAP3 SWAP1 POP JUMP JUMPDEST PUSH1 0x0 DUP3 DUP3 MSTORE PUSH1 0x20 DUP3 ADD SWAP1 POP SWAP3 SWAP2 POP POP JUMP JUMPDEST PUSH32 0x756E617574686F72697A65640000000000000000000000000000000000000000 PUSH1 0x0 DUP3 ADD MSTORE POP JUMP JUMPDEST PUSH1 0x0 PUSH2 0x20B0 PUSH1 0xC DUP4 PUSH2 0x2069 JUMP JUMPDEST SWAP2 POP PUSH2 0x20BB DUP3 PUSH2 0x207A JUMP JUMPDEST PUSH1 0x20 DUP3 ADD SWAP1 POP SWAP2 SWAP1 POP JUMP JUMPDEST PUSH1 0x0 PUSH1 0x20 DUP3 ADD SWAP1 POP DUP2 DUP2 SUB PUSH1 0x0 DUP4 ADD MSTORE PUSH2 0x20DF DUP2 PUSH2 0x20A3 JUMP JUMPDEST SWAP1 POP SWAP2 SWAP1 POP JUMP JUMPDEST PUSH1 0x0 DUP3 SWAP1 POP SWAP3 SWAP2 POP POP JUMP JUMPDEST PUSH32 0x4E487B7100000000000000000000000000000000000000000000000000000000 PUSH1 0x0 MSTORE PUSH1 0x41 PUSH1 0x4 MSTORE PUSH1 0x24 PUSH1 0x0 REVERT JUMPDEST PUSH32 0x4E487B7100000000000000000000000000000000000000000000000000000000 PUSH1 0x0 MSTORE PUSH1 0x22 PUSH1 0x4 MSTORE PUSH1 0x24 PUSH1 0x0 REVERT JUMPDEST PUSH1 0x0 PUSH1 0x2 DUP3 DIV SWAP1 POP PUSH1 0x1 DUP3 AND DUP1 PUSH2 0x2167 JUMPI PUSH1 0x7F DUP3 AND SWAP2 POP JUMPDEST PUSH1 0x20 DUP3 LT DUP2 SUB PUSH2 0x217A JUMPI PUSH2 0x2179 PUSH2 0x2120 JUMP JUMPDEST JUMPDEST POP SWAP2 SWAP1 POP JUMP JUMPDEST PUSH1 0x0 DUP2 SWAP1 POP DUP2 PUSH1 0x0 MSTORE PUSH1 0x20 PUSH1 0x0 KECCAK256 SWAP1 POP SWAP2 SWAP1 POP JUMP JUMPDEST PUSH1 0x0 PUSH1 0x20 PUSH1 0x1F DUP4 ADD DIV SWAP1 POP SWAP2 SWAP1 POP JUMP JUMPDEST PUSH1 0x0 DUP3 DUP3 SHL SWAP1 POP SWAP3 SWAP2 POP POP JUMP JUMPDEST PUSH1 0x0 PUSH1 0x8 DUP4 MUL PUSH2 0x21E2 PUSH32 0xFFFFFFFFFFFFFFFFFFFFFFFFFFFFFFFFFFFFFFFFFFFFFFFFFFFFFFFFFFFFFFFF DUP3 PUSH2 0x21A5 JUMP JUMPDEST PUSH2 0x21EC DUP7 DUP4 PUSH2 0x21A5 JUMP JUMPDEST SWAP6 POP DUP1 NOT DUP5 AND SWAP4 POP DUP1 DUP7 AND DUP5 OR SWAP3 POP POP POP SWAP4 SWAP3 POP POP POP JUMP JUMPDEST PUSH1 0x0 DUP2 SWAP1 POP SWAP2 SWAP1 POP JUMP JUMPDEST PUSH1 0x0 PUSH2 0x2229 PUSH2 0x2224 PUSH2 0x221F DUP5 PUSH2 0x195C JUMP JUMPDEST PUSH2 0x2204 JUMP JUMPDEST PUSH2 0x195C JUMP JUMPDEST SWAP1 POP SWAP2 SWAP1 POP JUMP JUMPDEST PUSH1 0x0 DUP2 SWAP1 POP SWAP2 SWAP1 POP JUMP JUMPDEST PUSH2 0x2243 DUP4 PUSH2 0x220E JUMP JUMPDEST PUSH2 0x2257 PUSH2 0x224F DUP3 PUSH2 0x2230 JUMP JUMPDEST DUP5 DUP5 SLOAD PUSH2 0x21B2 JUMP JUMPDEST DUP3 SSTORE POP POP POP POP JUMP JUMPDEST PUSH1 0x0 SWAP1 JUMP JUMPDEST PUSH2 0x226C PUSH2 0x225F JUMP JUMPDEST PUSH2 0x2277 DUP2 DUP5 DUP5 PUSH2 0x223A JUMP JUMPDEST POP POP POP JUMP JUMPDEST JUMPDEST DUP2 DUP2 LT ISZERO PUSH2 0x229B JUMPI PUSH2 0x2290 PUSH1 0x0 DUP3 PUSH2 0x2264 JUMP JUMPDEST PUSH1 0x1 DUP2 ADD SWAP1 POP PUSH2 0x227D JUMP JUMPDEST POP POP JUMP JUMPDEST PUSH1 0x1F DUP3 GT ISZERO PUSH2 0x22E0 JUMPI PUSH2 0x22B1 DUP2 PUSH2 0x2180 JUMP JUMPDEST PUSH2 0x22BA DUP5 PUSH2 0x2195 JUMP JUMPDEST DUP2 ADD PUSH1 0x20 DUP6 LT ISZERO PUSH2 0x22C9 JUMPI DUP2 SWAP1 POP JUMPDEST PUSH2 0x22DD PUSH2 0x22D5 DUP6 PUSH2 0x2195 JUMP JUMPDEST DUP4 ADD DUP3 PUSH2 0x227C JUMP JUMPDEST POP POP JUMPDEST POP POP POP JUMP JUMPDEST PUSH1 0x0 DUP3 DUP3 SHR SWAP1 POP SWAP3 SWAP2 POP POP JUMP JUMPDEST PUSH1 0x0 PUSH2 0x2303 PUSH1 0x0 NOT DUP5 PUSH1 0x8 MUL PUSH2 0x22E5 JUMP JUMPDEST NOT DUP1 DUP4 AND SWAP2 POP POP SWAP3 SWAP2 POP POP JUMP JUMPDEST PUSH1 0x0 PUSH2 0x231C DUP4 DUP4 PUSH2 0x22F2 JUMP JUMPDEST SWAP2 POP DUP3 PUSH1 0x2 MUL DUP3 OR SWAP1 POP SWAP3 SWAP2 POP POP JUMP JUMPDEST PUSH2 0x2336 DUP4 DUP4 PUSH2 0x20E6 JUMP JUMPDEST PUSH8 0xFFFFFFFFFFFFFFFF DUP2 GT ISZERO PUSH2 0x234F JUMPI PUSH2 0x234E PUSH2 0x20F1 JUMP JUMPDEST JUMPDEST PUSH2 0x2359 DUP3 SLOAD PUSH2 0x214F JUMP JUMPDEST PUSH2 0x2364 DUP3 DUP3 DUP6 PUSH2 0x229F JUMP JUMPDEST PUSH1 0x0 PUSH1 0x1F DUP4 GT PUSH1 0x1 DUP2 EQ PUSH2 0x2393 JUMPI PUSH1 0x0 DUP5 ISZERO PUSH2 0x2381 JUMPI DUP3 DUP8 ADD CALLDATALOAD SWAP1 POP JUMPDEST PUSH2 0x238B DUP6 DUP3 PUSH2 0x2310 JUMP JUMPDEST DUP7 SSTORE POP PUSH2 0x23F3 JUMP JUMPDEST PUSH1 0x1F NOT DUP5 AND PUSH2 0x23A1 DUP7 PUSH2 0x2180 JUMP JUMPDEST PUSH1 0x0 JUMPDEST DUP3 DUP2 LT ISZERO PUSH2 0x23C9 JUMPI DUP5 DUP10 ADD CALLDATALOAD DUP3 SSTORE PUSH1 0x1 DUP3 ADD SWAP2 POP PUSH1 0x20 DUP6 ADD SWAP5 POP PUSH1 0x20 DUP2 ADD SWAP1 POP PUSH2 0x23A4 JUMP JUMPDEST DUP7 DUP4 LT ISZERO PUSH2 0x23E6 JUMPI DUP5 DUP10 ADD CALLDATALOAD PUSH2 0x23E2 PUSH1 0x1F DUP10 AND DUP3 PUSH2 0x22F2 JUMP JUMPDEST DUP4 SSTORE POP JUMPDEST PUSH1 0x1 PUSH1 0x2 DUP9 MUL ADD DUP9 SSTORE POP POP POP JUMPDEST POP POP POP POP POP POP POP JUMP JUMPDEST PUSH32 0x4E487B7100000000000000000000000000000000000000000000000000000000 PUSH1 0x0 MSTORE PUSH1 0x11 PUSH1 0x4 MSTORE PUSH1 0x24 PUSH1 0x0 REVERT JUMPDEST PUSH1 0x0 PUSH2 0x2436 DUP3 PUSH2 0x195C JUMP JUMPDEST SWAP2 POP PUSH2 0x2441 DUP4 PUSH2 0x195C JUMP JUMPDEST SWAP3 POP DUP3 DUP3 ADD SWAP1 POP DUP1 DUP3 GT ISZERO PUSH2 0x2459 JUMPI PUSH2 0x2458 PUSH2 0x23FC JUMP JUMPDEST JUMPDEST SWAP3 SWAP2 POP POP JUMP JUMPDEST PUSH1 0x0 PUSH2 0x246A DUP3 PUSH2 0x195C JUMP JUMPDEST SWAP2 POP PUSH2 0x2475 DUP4 PUSH2 0x195C JUMP JUMPDEST SWAP3 POP DUP3 DUP3 MUL PUSH2 0x2483 DUP2 PUSH2 0x195C JUMP JUMPDEST SWAP2 POP DUP3 DUP3 DIV DUP5 EQ DUP4 ISZERO OR PUSH2 0x249A JUMPI PUSH2 0x2499 PUSH2 0x23FC JUMP JUMPDEST JUMPDEST POP SWAP3 SWAP2 POP POP JUMP JUMPDEST PUSH1 0x0 PUSH2 0x24AC DUP3 PUSH2 0x195C JUMP JUMPDEST SWAP2 POP PUSH2 0x24B7 DUP4 PUSH2 0x195C JUMP JUMPDEST SWAP3 POP DUP3 DUP3 SUB SWAP1 POP DUP2 DUP2 GT ISZERO PUSH2 0x24CF JUMPI PUSH2 0x24CE PUSH2 0x23FC JUMP JUMPDEST JUMPDEST SWAP3 SWAP2 POP POP JUMP JUMPDEST PUSH32 0x4E487B7100000000000000000000000000000000000000000000000000000000 PUSH1 0x0 MSTORE PUSH1 0x32 PUSH1 0x4 MSTORE PUSH1 0x24 PUSH1 0x0 REVERT JUMPDEST PUSH1 0x0 PUSH2 0x250F DUP3 PUSH2 0x195C JUMP JUMPDEST SWAP2 POP PUSH1 0x0 DUP3 SUB PUSH2 0x2522 JUMPI PUSH2 0x2521 PUSH2 0x23FC JUMP JUMPDEST JUMPDEST PUSH1 0x1 DUP3 SUB SWAP1 POP SWAP2 SWAP1 POP JUMP JUMPDEST PUSH32 0x6D6174636820616C72656164792066696E697368656400000000000000000000 PUSH1 0x0 DUP3 ADD MSTORE POP JUMP JUMPDEST PUSH1 0x0 PUSH2 0x2563 PUSH1 0x16 DUP4 PUSH2 0x2069 JUMP JUMPDEST SWAP2 POP PUSH2 0x256E DUP3 PUSH2 0x252D JUMP JUMPDEST PUSH1 0x20 DUP3 ADD SWAP1 POP SWAP2 SWAP1 POP JUMP JUMPDEST PUSH1 0x0 PUSH1 0x20 DUP3 ADD SWAP1 POP DUP2 DUP2 SUB PUSH1 0x0 DUP4 ADD MSTORE PUSH2 0x2592 DUP2 PUSH2 0x2556 JUMP JUMPDEST SWAP1 POP SWAP2 SWAP1 POP JUMP JUMPDEST PUSH32 0x6D617463684964206E6F74206578697374656400000000000000000000000000 PUSH1 0x0 DUP3 ADD MSTORE POP JUMP JUMPDEST PUSH1 0x0 PUSH2 0x25CF PUSH1 0x13 DUP4 PUSH2 0x2069 JUMP JUMPDEST SWAP2 POP PUSH2 0x25DA DUP3 PUSH2 0x2599 JUMP JUMPDEST PUSH1 0x20 DUP3 ADD SWAP1 POP SWAP2 SWAP1 POP JUMP JUMPDEST PUSH1 0x0 PUSH1 0x20 DUP3 ADD SWAP1 POP DUP2 DUP2 SUB PUSH1 0x0 DUP4 ADD MSTORE PUSH2 0x25FE DUP2 PUSH2 0x25C2 JUMP JUMPDEST SWAP1 POP SWAP2 SWAP1 POP JUMP JUMPDEST PUSH32 0x746865206D6174636820697320616C726561792066696E697368656400000000 PUSH1 0x0 DUP3 ADD MSTORE POP JUMP JUMPDEST PUSH1 0x0 PUSH2 0x263B PUSH1 0x1C DUP4 PUSH2 0x2069 JUMP JUMPDEST SWAP2 POP PUSH2 0x2646 DUP3 PUSH2 0x2605 JUMP JUMPDEST PUSH1 0x20 DUP3 ADD SWAP1 POP SWAP2 SWAP1 POP JUMP JUMPDEST PUSH1 0x0 PUSH1 0x20 DUP3 ADD SWAP1 POP DUP2 DUP2 SUB PUSH1 0x0 DUP4 ADD MSTORE PUSH2 0x266A DUP2 PUSH2 0x262E JUMP JUMPDEST SWAP1 POP SWAP2 SWAP1 POP JUMP JUMPDEST PUSH32 0x62657474696E6720706F7374206E6F7420666F756E6400000000000000000000 PUSH1 0x0 DUP3 ADD MSTORE POP JUMP JUMPDEST PUSH1 0x0 PUSH2 0x26A7 PUSH1 0x16 DUP4 PUSH2 0x2069 JUMP JUMPDEST SWAP2 POP PUSH2 0x26B2 DUP3 PUSH2 0x2671 JUMP JUMPDEST PUSH1 0x20 DUP3 ADD SWAP1 POP SWAP2 SWAP1 POP JUMP JUMPDEST PUSH1 0x0 PUSH1 0x20 DUP3 ADD SWAP1 POP DUP2 DUP2 SUB PUSH1 0x0 DUP4 ADD MSTORE PUSH2 0x26D6 DUP2 PUSH2 0x269A JUMP JUMPDEST SWAP1 POP SWAP2 SWAP1 POP JUMP JUMPDEST PUSH32 0x6D61746368206973206E6F742066696E69736865640000000000000000000000 PUSH1 0x0 DUP3 ADD MSTORE POP JUMP JUMPDEST PUSH1 0x0 PUSH2 0x2713 PUSH1 0x15 DUP4 PUSH2 0x2069 JUMP JUMPDEST SWAP2 POP PUSH2 0x271E DUP3 PUSH2 0x26DD JUMP JUMPDEST PUSH1 0x20 DUP3 ADD SWAP1 POP SWAP2 SWAP1 POP JUMP JUMPDEST PUSH1 0x0 PUSH1 0x20 DUP3 ADD SWAP1 POP DUP2 DUP2 SUB PUSH1 0x0 DUP4 ADD MSTORE PUSH2 0x2742 DUP2 PUSH2 0x2706 JUMP JUMPDEST SWAP1 POP SWAP2 SWAP1 POP JUMP JUMPDEST PUSH32 0x72657761726420616C726561647920636C61696D656400000000000000000000 PUSH1 0x0 DUP3 ADD MSTORE POP JUMP JUMPDEST PUSH1 0x0 PUSH2 0x277F PUSH1 0x16 DUP4 PUSH2 0x2069 JUMP JUMPDEST SWAP2 POP PUSH2 0x278A DUP3 PUSH2 0x2749 JUMP JUMPDEST PUSH1 0x20 DUP3 ADD SWAP1 POP SWAP2 SWAP1 POP JUMP JUMPDEST PUSH1 0x0 PUSH1 0x20 DUP3 ADD SWAP1 POP DUP2 DUP2 SUB PUSH1 0x0 DUP4 ADD MSTORE PUSH2 0x27AE DUP2 PUSH2 0x2772 JUMP JUMPDEST SWAP1 POP SWAP2 SWAP1 POP JUMP JUMPDEST PUSH1 0x0 PUSH2 0x27C0 DUP3 PUSH2 0x1AAC JUMP JUMPDEST SWAP2 POP PUSH2 0x27CB DUP4 PUSH2 0x1AAC JUMP JUMPDEST SWAP3 POP DUP3 DUP3 ADD SWAP1 POP PUSH4 0xFFFFFFFF DUP2 GT ISZERO PUSH2 0x27E7 JUMPI PUSH2 0x27E6 PUSH2 0x23FC JUMP JUMPDEST JUMPDEST SWAP3 SWAP2 POP POP JUMP JUMPDEST PUSH32 0x706F7374206E6F74206578697374000000000000000000000000000000000000 PUSH1 0x0 DUP3 ADD MSTORE POP JUMP JUMPDEST PUSH1 0x0 PUSH2 0x2823 PUSH1 0xE DUP4 PUSH2 0x2069 JUMP JUMPDEST SWAP2 POP PUSH2 0x282E DUP3 PUSH2 0x27ED JUMP JUMPDEST PUSH1 0x20 DUP3 ADD SWAP1 POP SWAP2 SWAP1 POP JUMP JUMPDEST PUSH1 0x0 PUSH1 0x20 DUP3 ADD SWAP1 POP DUP2 DUP2 SUB PUSH1 0x0 DUP4 ADD MSTORE PUSH2 0x2852 DUP2 PUSH2 0x2816 JUMP JUMPDEST SWAP1 POP SWAP2 SWAP1 POP JUMP JUMPDEST PUSH32 0x626574206E6F742076616C696400000000000000000000000000000000000000 PUSH1 0x0 DUP3 ADD MSTORE POP JUMP JUMPDEST PUSH1 0x0 PUSH2 0x288F PUSH1 0xD DUP4 PUSH2 0x2069 JUMP JUMPDEST SWAP2 POP PUSH2 0x289A DUP3 PUSH2 0x2859 JUMP JUMPDEST PUSH1 0x20 DUP3 ADD SWAP1 POP SWAP2 SWAP1 POP JUMP JUMPDEST PUSH1 0x0 PUSH1 0x20 DUP3 ADD SWAP1 POP DUP2 DUP2 SUB PUSH1 0x0 DUP4 ADD MSTORE PUSH2 0x28BE DUP2 PUSH2 0x2882 JUMP JUMPDEST SWAP1 POP SWAP2 SWAP1 POP JUMP JUMPDEST PUSH32 0x796F7520616C7265616479206D616B65206120626574206F6E20746869732070 PUSH1 0x0 DUP3 ADD MSTORE PUSH32 0x6F73740000000000000000000000000000000000000000000000000000000000 PUSH1 0x20 DUP3 ADD MSTORE POP JUMP JUMPDEST PUSH1 0x0 PUSH2 0x2921 PUSH1 0x23 DUP4 PUSH2 0x2069 JUMP JUMPDEST SWAP2 POP PUSH2 0x292C DUP3 PUSH2 0x28C5 JUMP JUMPDEST PUSH1 0x40 DUP3 ADD SWAP1 POP SWAP2 SWAP1 POP JUMP JUMPDEST PUSH1 0x0 PUSH1 0x20 DUP3 ADD SWAP1 POP DUP2 DUP2 SUB PUSH1 0x0 DUP4 ADD MSTORE PUSH2 0x2950 DUP2 PUSH2 0x2914 JUMP JUMPDEST SWAP1 POP SWAP2 SWAP1 POP JUMP JUMPDEST PUSH1 0x0 DUP2 MLOAD SWAP1 POP SWAP2 SWAP1 POP JUMP JUMPDEST PUSH1 0x0 DUP2 SWAP1 POP SWAP3 SWAP2 POP POP JUMP JUMPDEST PUSH1 0x0 PUSH2 0x2978 DUP3 PUSH2 0x2957 JUMP JUMPDEST PUSH2 0x2982 DUP2 DUP6 PUSH2 0x2962 JUMP JUMPDEST SWAP4 POP PUSH2 0x2992 DUP2 DUP6 PUSH1 0x20 DUP7 ADD PUSH2 0x1CFD JUMP JUMPDEST DUP1 DUP5 ADD SWAP2 POP POP SWAP3 SWAP2 POP POP JUMP JUMPDEST PUSH1 0x0 PUSH2 0x29AA DUP3 DUP5 PUSH2 0x296D JUMP JUMPDEST SWAP2 POP DUP2 SWAP1 POP SWAP3 SWAP2 POP POP JUMP JUMPDEST PUSH32 0x7472616E73666572206572726F72000000000000000000000000000000000000 PUSH1 0x0 DUP3 ADD MSTORE POP JUMP JUMPDEST PUSH1 0x0 PUSH2 0x29EB PUSH1 0xE DUP4 PUSH2 0x2069 JUMP JUMPDEST SWAP2 POP PUSH2 0x29F6 DUP3 PUSH2 0x29B5 JUMP JUMPDEST PUSH1 0x20 DUP3 ADD SWAP1 POP SWAP2 SWAP1 POP JUMP JUMPDEST PUSH1 0x0 PUSH1 0x20 DUP3 ADD SWAP1 POP DUP2 DUP2 SUB PUSH1 0x0 DUP4 ADD MSTORE PUSH2 0x2A1A DUP2 PUSH2 0x29DE JUMP JUMPDEST SWAP1 POP SWAP2 SWAP1 POP JUMP INVALID LOG2 PUSH5 0x6970667358 0x22 SLT KECCAK256 PUSH19 0xF83167215F7971D5A66770F5CC13B3D15C5D03 JUMP 0x24 0xC6 0xAF 0xE 0xE 0xB3 SWAP13 PUSH1 0x83 ADDRESS 0xCE PUSH5 0x736F6C6343 STOP ADDMOD SHL STOP CALLER "
        },
        "methodIdentifiers": {
          "changeOwner(address)": "a6f9dae1",
          "contributeToBettingPost(uint256)": "aaa3cdf4",
          "createBettingPost(uint256,uint32,uint32)": "b6806e57",
          "createMatch(string,string)": "57447733",
          "finishMatch(uint256,uint32,uint32)": "7f8206ad",
          "getActiveMatchSortByLatest(uint256,uint256)": "aa64ec28",
          "getOwner()": "893d20e8",
          "getStakeInPostByUserAddress(uint256,address)": "91293d5a",
          "makeABet(uint256,bool)": "e7587ea5",
          "nBetting()": "69cc08d3",
          "nMatch()": "17c77e26",
          "playerClaimBettingReward(uint256)": "d927b1b8"
        }
      }
    }
  }
}